:020000040800F2
:10000000B00A0020E1010008911200081B0C000852
:1000100061120008B7070008DF1D0008000000009B
:100020000000000000000000000000003114000883
:10003000BB07000800000000191300081D15000888
:10004000FB010008FB010008FB010008FB010008A0
:10005000FB010008FB010008FB010008FB01000890
:10006000FB010008FB010008FB010008FB01000880
:10007000FB010008FB010008FB010008FB01000870
:10008000FB010008FB010008FB010008FB01000860
:10009000FB010008FB010008FB010008FB01000850
:1000A000FB010008FB010008FB010008FB01000840
:1000B000C1170008FB010008FB010008FB01000854
:1000C000FB010008FB010008FB010008FB01000820
:1000D000FB010008611B0008E91B0008151C000853
:1000E000FB010008FB010008FB010008FB01000800
:1000F000FB010008FB010008FB010008FB010008F0
:10010000FB010008FB010008FB010008FB010008DF
:100110003D1B0008FB010008FB010008FB01000873
:10012000FB010008FB010008FB010008FB010008BF
:1001300000F002F800F045F80AA090E8000C8244B4
:100140008344AAF10107DA4501D100F03AF8AFF291
:10015000090EBAE80F0013F0010F18BFFB1A43F0A5
:1001600001031847DC3D0000FC3D0000103A24BFAD
:1001700078C878C1FAD8520724BF30C830C144BF0C
:1001800004680C607047000000230024002500264E
:10019000103A28BF78C1FBD8520728BF30C148BFEA
:1001A0000B607047692900F07380782900F0AC80FB
:1001B000732900F05E82002070471FB51FBD10B587
:1001C00010BD00F08DFA1146FFF7F7FF03F0E6FBD4
:1001D00000F0ABFA03B4FFF7F2FF03BC03F0C3F97E
:1001E0000948804709480047FEE7FEE7FEE7FEE7CB
:1001F000FEE7FEE7FEE7FEE7FEE7FEE70448054907
:10020000054A064B7047000021150008310100081F
:10021000B0040020B00A0020B0060020B006002084
:10022000704700000FB4044910B503AA029800F00B
:1002300025FA10BC5DF814FB0800002070B50C46D0
:100240000546012A05D02878800600D5EA690023F2
:1002500002E0012305E05B1C934202D2E05C00282F
:10026000F9D1A869E618C01AA861286A184428625A
:100270002846AFF3008004E0D5E9012114F8010B12
:100280009047B442F8D32846AFF3008070BD000019
:100290002DE9F0410646002410687529314616A55F
:1002A00010D0AFF30080002802DA404213A507E027
:1002B00031688A0701D512A502E0490704D511A5C6
:1002C000012401E0AFF3008000210A2206F1240797
:1002D00009E0B0FBF2FCB0FBF2F302FB1C00303093
:1002E00078541846491C0028F3D123462A46304644
:1002F000BDE8F04100F052B9000000002D00000000
:100300002B0000002000000070B504460D46214679
:100310001068AFF300802188090502D50F4A7A449E
:1003200002E00E4A7A440E32002104F1240305E073
:1003300000F00F060009965D5E54491C0028F7D1B5
:1003400020780023000704D5702D02D009B10223C4
:1003500011322046BDE8704000F020B9E43B0000B7
:100360002DE9F05F894604464FF0000ADFF874B1CA
:10037000FB44C0F820A02046E1688847002874D0DC
:10038000252806D0D4E901219047206A401C20622C
:10039000F1E700265F462046E168884720280546A9
:1003A00007DB312D05D2781910F8200C08B106436F
:1003B000F1E7B00701D526F00406C4F81CA0002719
:1003C000C4F818A02A2D09D0284603F0C5F838B380
:1003D00004EB8708303DC8F8185019E059F8041BA1
:1003E000204604EB87029161E1688847012F0546AA
:1003F00018D1E069002820DA26F020061DE0D8F8A0
:10040000180000EB800005EB40003038C8F81800F9
:100410002046E1688847054603F09EF80028EED1A3
:10042000012F0AD02E2D08D12046E16888477F1C75
:100430000546022F46F02006C4DBA069002803DA37
:10044000404246F00106A061F00701D026F01006F8
:100450006C2D0BD0682D09D04C2D39D06A2D35D09C
:10046000742D35D07A2D33D016E038E0E1682F4670
:1004700020468847B842054609D16C2F26D04FF454
:100480008060E168064320468847054604E06C2FFB
:100490001AD04FF4807006430DB3A5F1410019281E
:1004A00002D8203546F400664A4629462046266092
:1004B0004E46FFF777FE80B101280BD0F61D26F0DF
:1004C000070000F1080956E74020E4E78020D8E75C
:1004D0000020D6E706F104094DE7284652E7206AD6
:1004E000BDE8F09FBA3B000040EA0103024630B588
:1004F0009B0710D14FF0013400E008C208C91D1B52
:100500009D4315EAC41FF8D013F0FF0102F8011B48
:100510000DD01B0AF8E711F8013B002B02F8013B54
:1005200005D011F8013B002B02F8013BF3D130BD9F
:1005300010B5203AC0F00B80B1E81850203AA0E87E
:100540001850B1E81850A0E81850BFF4F5AF5FEAB2
:10055000027C24BFB1E81850A0E8185044BF18C965
:1005600018C0BDE810405FEA827C24BF51F8043B0C
:1005700040F8043B08BF7047D20728BF31F8023B60
:1005800048BF11F8012B28BF20F8023B48BF00F8F4
:10059000012B704770477047704770472DE9F0474F
:1005A0000D4699469246044600F1240801688806E3
:1005B00004D5E06921F01001216000E00120A8428B
:1005C00001DD471B00E00027A1697A1902EB090051
:1005D000081AA0612078C00602D42046AFF300803C
:1005E000002608E0D4E901211AF806009047206AA5
:1005F000401C761C20624E45F4DB2078C0060AD5EC
:100600002046AFF3008006E0D4E901213020904776
:10061000206A401C2062381EA7F10107F4DC07E0C5
:10062000D4E9012118F805009047206A401C206297
:10063000281EA5F10105F3DC2046AFF300802078E9
:10064000000602D50220BDE8F0870120FBE710B5C7
:10065000436913B1AFF3008001E0FFF7EFFD012024
:1006600010BD127800F124010A7000224A700122A4
:10067000EDE711684FF0FF32E9E70000074B70B576
:100680000D467B4400F011F80446284600F020F89F
:1006900010B14FF0FF3070BD204670BD43310000F7
:1006A00001694A1C02610878704700B58FB0CDE936
:1006B00001310021059105497944CDE90310114626
:1006C0006846FFF74DFE0FB000BD0000E5FFFFFFDD
:1006D000007B00F080007047004870475004002005
:1006E0007546FFF7F9FFAE4605006946534620F010
:1006F0000700854618B020B5FFF780FDBDE8204013
:100700004FF000064FF000074FF000084FF0000BCD
:1007100021F00701AC46ACE8C009ACE8C009ACE880
:10072000C009ACE8C0098D46704710B50446AFF368
:1007300000802046BDE81040FFF74CBD70B506466E
:100740000C46154608E03046721C96B200F007F8D9
:1007500004F8010B681E85B2002DF4D170BD70B590
:100760000446002600F018FB2546E11704EB116152
:100770000912A02202EB4101C8B200F0D9FA00F040
:1007800057FBE11704EB11610912A4EB0121C8B278
:1007900000F0CEFA00F04CFB00F0FEFAA12000F0D1
:1007A000C7FA00F045FB002000F08AFA064600F088
:1007B00019FB304670BD00BFFEE7704710B5C44856
:1007C00000780A2813D2DFE800F005137BB5D3F0D8
:1007D000EEEDECEB0020BF490870BF490870BF493F
:1007E0000870BF490870BF490870BF4908706DE1C3
:1007F000BE48807801281ED10020B6490870B6494D
:100800000870B6490870B8490870B54908700320E7
:10081000B449087008460078052850D10220B34931
:1008200088700120B24948710020AE490870032049
:10083000A749087043E0AB480078032801D10120A4
:1008400000E00020A7490978022901D1012100E038
:1008500000210843B0B100209E4908709E490870ED
:100860009E490870A04908709D4908709D4800780D
:10087000052824D100209B4908709E48007894499F
:1008800008701CE097480078042818D1002091498E
:10089000087091490870914908709349087090490F
:1008A000087090480078052809D100208D4908700B
:1008B000904800788649087002208749087005E151
:1008C00089480078022818D000208249087082499F
:1008D00008708249087082490870824908700320B4
:1008E0008149087008460078042822D10020087049
:1008F00081480078764908701BE07B480078022820
:1009000017D1002073490870734908707349087043
:100910007549087072490870724908707248007809
:10092000042806D100207049087072480078684990
:10093000087000BF002067490870684908706A495C
:10094000087068490870012065490870624908709C
:100950000846007802280AD100206149087002F098
:1009600005FE00205C490870042059490870ADE07C
:10097000002058490870594908705B490870584967
:1009800008705849087001205349087008460078DB
:10099000022804D10020087005204D49087095E018
:1009A0007DE05FE043E01BE0FFE700204B4908707B
:1009B0004D4908704A4908704A490870464908700C
:1009C00001204449087008460078022807D14049B0
:1009D000087000203F49087006204749087075E0FC
:1009E00000203E4908703B4908703F4908703C4967
:1009F00008703C49087001203749087008460078A3
:100A0000022813D1002008700720314908703748A8
:100A10000078401C3549087008460078032805D145
:100A200000202D4908700920294908704EE0002057
:100A3000284908702C49087029490870294908700C
:100A400025490870012025490870084600780228C9
:100A500007D10020087002201D490870082026498F
:100A6000087033E000201B4908701F4908701C49BA
:100A700008701C490870194908700120164908704F
:100A800008460078022809D10020087017484078ED
:100A9000401C1649487005200D49087016E00020DA
:100AA0000C490870104908700D4908700D4908700C
:100AB0000A49087001200849087008460078022891
:100AC00003D1002008700249087000BF00BF10BDAC
:100AD00060000020680000206A00002069000020FB
:100AE00067000020660000206B00002063000020EB
:100AF0006C00002061000020620000202DE9F04120
:100B0000024600250026002000230024002791F83B
:100B100003C00CF00F0591F803C00CF0100CBCF1F1
:100B2000000F03D091F802C04CEA050591F800C00F
:100B3000BCF1000F31D0146800202BE04FF0010C05
:100B40000CFA00F3B1F800C00CEA03069E4220D173
:100B500083004FF00F0C0CFA03F7BC4305FA03FCBB
:100B60004CEA040491F803C0BCF1280F06D14FF001
:100B7000010C0CFA00FCC2F814C00AE091F803C0A2
:100B8000BCF1480F05D14FF0010C0CFA00FCC2F883
:100B900010C0401C0828D1D31460B1F800C0BCF1CB
:100BA000FF0F34DD546800202EE000F1080C4FF0F8
:100BB000010808FA0CF3B1F800C00CEA03069E42E3
:100BC00021D183004FF00F0C0CFA03F7BC4305FA58
:100BD00003FC4CEA040491F803C0BCF1280F05D1D2
:100BE00000F1080C08FA0CF8C2F8148091F803C060
:100BF000BCF1480F07D100F1080C4FF0010808FACA
:100C00000CF8C2F81080401C0828CED35460BDE810
:100C1000F081416170470161704700BFFEE700004D
:100C200010B500200F4908600F48006820F07040A0
:100C30000D4908600846006840F0405008600020F8
:100C40000A49C1F89C01022002F03AFD0120054941
:100C50000860022002F034FD00200449C1F8980128
:100C600010BD000098812142000C0140008021420B
:100C700010B500200F4908600F48006820F0704050
:100C80000D4908600846006840F0405008600120A7
:100C90000A49C1F89C01022002F012FD0120054919
:100CA0000860022002F00CFD00200449C1F8980100
:100CB00010BD000098812142000C014000802142BB
:100CC00070B5054600241748006820F070401549AB
:100CD00008600846006840F000400860002616E002
:100CE000002011490860022002F0EAFC01200F49AF
:100CF000C1F898016006040E0B487C38006808B102
:100D0000601CC4B2012002F0DBFC701CC6B2082ECD
:100D1000E6DB15B9FFF7ACFF01E0FFF781FF2046E6
:100D200070BD0000000C01409881214200802142EA
:100D300070B504461548006820F0704013490860FB
:100D40000846006840F040500860002010490860E4
:100D5000002517E0E0090E49091D08606006040E31
:100D6000022002F0ADFC01200A49C1F898010220DE
:100D700002F0A6FC002006490860022002F0A0FC58
:100D8000681CC5B2082DE5DB70BD0000000C0140F9
:100D9000988121420080214210B50F48006820F060
:100DA00070400D4908600846006840F040500860F7
:100DB00001200A4908600A49C1F89801042002F09C
:100DC0007FFC002005490860042002F079FC002027
:100DD0000349C1F8980110BD000C01409C812142DB
:100DE0000080214210B50F48006820F070400D4986
:100DF00008600846006840F04050086000200A493A
:100E000008600A49C1F89C01042002F059FC012045
:100E1000054908600549C1F89C01042002F050FC16
:100E200010BD0000000C0140988121420080214249
:100E300010B500241448006820F070401249086082
:100E40000846006840F00040086001200F49086033
:100E500002F036FC01200E49C1F8980102F030FC86
:100E600007E0601CC4B2FA2C03DDFFF7BBFF0120D2
:100E700010BD0648803800680028F2D10349091FD8
:100E8000086000BFF4E70000000C01409C81214293
:100E90000080214208B50121482000F04FFA2020AF
:100EA000ADF8000010208DF8030003208DF802003B
:100EB00069460848FFF722FE20210648FFF7ABFEEF
:100EC00069460548FFF71AFE20210348FFF7A3FEF5
:100ED00008BD0000000C01400018014010B50020C2
:100EE0000D4908600D48006820F070400B4908600B
:100EF0000120086000200A49C1F88C01022002F09C
:100F0000DFFB012004490860022002F0D9FB002029
:100F10000349C1F8880110BD88012142000C01403D
:100F20000000214208B50121082000F007FA102036
:100F30008DF80300C020ADF8000003208DF80200FA
:100F400069460448FFF7DAFDC0210248FFF763FE57
:100F500008BD0000000C014010B500200D490860DC
:100F60000D48006820F070400B49086001200860BF
:100F70000A49C1F88C01022002F0A2FB01200549B8
:100F80000860022002F09CFB00200449C1F888019F
:100F900010BD000088012142000C014000002142E8
:100FA00070B5054600241548006820F070401349CC
:100FB000086048050860002616E000201049086017
:100FC000022002F07DFB01200E49C1F88801600675
:100FD000040E0B487C38006808B1601CC4B20220C3
:100FE00002F06EFB701CC6B2082EE6DB15B1FFF7EF
:100FF00075FF01E0FFF7B0FF204670BD000C014017
:10100000880121420000214270B504461148006861
:1010100020F070400F4908600120086000200E4950
:101020000860002512E0E0090B49091D0860012055
:101030000A49C1F88801022002F042FB002006495B
:101040000860022002F03CFB681CC5B2082DEADBF8
:1010500070BD0000000C01408801214200002142C7
:1010600010B50D48006820F070400B490860012061
:1010700008600A4908600A49C1F88801022002F0A4
:101080001FFB002005490860022002F019FB002028
:101090000349C1F8880110BD000C01408C012142B8
:1010A0000000214210B50D48006820F070400B4947
:1010B0000860012008600020094908600949C1F85A
:1010C0008C01022002F0FCFA012005490860054964
:1010D000C1F88C01022002F0F3FA10BD000C0140AF
:1010E000880121420000214210B500241348006805
:1010F00020F070401149086048050860012010493F
:101100000860022002F0DCFA01200E49C1F88801D3
:10111000022002F0D5FA07E0601CC4B2FA2C03DD0D
:10112000FFF7C0FF012010BD054880380068002887
:10113000F2D10349091F086000BFF4E7000C014029
:101140008C0121420000214270B50446FFF788FF60
:10115000D020FFF759FFFFF7C7FF2046FFF754FFE6
:10116000FFF7C2FFFFF77CFFD120FFF74DFFFFF72E
:10117000BBFF0020FFF714FF0546FFF793FF28464B
:1011800070BD10B5044600211C2000F042F810BDCF
:1011900010B50446E006010E1B2000F03AF810BD21
:1011A00070B50546BC2D01DD012410E0622D01DB88
:1011B00002240CE02A2D01DB032408E0142D01DBBE
:1011C000042404E00A2D01DB052400E00624214666
:1011D0001A2000F01EF870BD70B50446B4F57A7F91
:1011E00001DD4FF47A74042C00DA04244FF47A7091
:1011F00090FBF4F0401EC5B22946192000F009F812
:101200000546264604EBD671C1F34F00FFF7C8FF31
:1012100070BD70B505460C46FFF722FFD020FFF7E2
:10122000F3FEFFF761FF18B1FFF73CFF012070BD2F
:101230002846FFF7E9FEFFF757FF18B1FFF732FF27
:101240000120F4E72046FFF7DFFEFFF74DFF18B15E
:10125000FFF728FF0120EAE7FFF724FF0020E6E779
:1012600000BFFEE708B50121802000F067F83F20AD
:10127000ADF8000010208DF8030003208DF8020067
:1012800069460248FFF73AFC08BD0000001C014017
:101290007047000070B5002100230F22C47804B30A
:1012A000154C246804F4E064C4F5E064210AC1F13B
:1012B0000403CA40447804FA03F1847814402143BB
:1012C00009010E4C0678A155047804F01F0501248D
:1012D000AC4005786D11AD0005F1E025C5F8004181
:1012E00009E0047804F01F050124AC40044D0678A1
:1012F000761145F8264070BD0CED00E000E400E0FA
:1013000080E100E002490143024A11607047000099
:101310000000FA050CED00E07047000029B1064A14
:10132000D2690243044BDA6104E0034AD269824382
:10133000014BDA61704700000010024029B1064AF3
:1013400092690243044B9A6104E0034A9269824322
:10135000014B9A61704700000010024030B5002137
:101360000022002400232D4D6D6805F00C0121B1F1
:10137000042905D0082923D105E0294D056022E084
:10138000274D05601FE0254D6D6805F47012234D53
:101390006D6805F48034022505EB92421CB9214D9D
:1013A000554305600BE01D4D6D6805F400351DB11A
:1013B0001C4D5543056002E0194D5543056002E0A0
:1013C000174D056000BF00BF144D6D6805F0F001BA
:1013D0000909154D6B5C0568DD4045600F4D6D6872
:1013E00005F4E061090A104D6B5C4568DD408560DD
:1013F0000A4D6D6805F46051C90A0B4D6B5C456878
:10140000DD40C560054D6D6805F44041890B074D11
:101410006B5CC568B5FBF3F5056130BD001002409B
:1014200000127A0000093D000E0000201E0000207E
:10143000704710B500F002F810BD00000CB5002098
:10144000019000903348006840F4803031490860D2
:1014500000BF3048006800F4003000900198401C44
:101460000190009818B90198B0F5A06FF1D1294802
:10147000006800F4003010B10120009001E000206D
:1014800000900098012843D12348006840F01000E4
:10149000214908600846006820F0030008600846FB
:1014A000006840F0020008601A4840681949486026
:1014B0000846406848600846406840F480604860DC
:1014C0000846406820F47C1048600846406840F4B4
:1014D000E81048600846006840F08070086000BF6F
:1014E0000C48006800F000700028F9D009484068F6
:1014F00020F00300074948600846406840F00200B9
:10150000486000BF0348406800F00C000828F9D18B
:101510000CBD000000100240002002407047000097
:1015200010B51348006840F00100114908600846F2
:101530004068104908400E494860084600680E4956
:1015400008400B4908600846006820F480200860C5
:101550000846406820F4FE0048604FF41F00886091
:10156000FFF767FF4FF000600449086010BD0000FE
:10157000001002400000FFF8FFFFF6FE08ED00E05B
:10158000F0B50C46154600220021068C4FF6FE777A
:101590003E400684028B018C4FF60C7632407E1C56
:1015A00006EA03162E433243104EB0420ED0104EC0
:1015B000B0420BD0B0F1804F08D00E4EB04205D0F3
:1015C0000D4EB04202D00D4EB04206D14FF6FD7620
:1015D000314044F00106314305E04FF6F5763140E5
:1015E00044F00106314302830184F0BD002C014028
:1015F000003401400004004000080040000C00409E
:10160000F0B50C461546002200210026078C4FF647
:10161000EF7C07EA0C070784028B018C4FF6FF77FB
:1016200007EA041640F6FF473A404FF6FF7707EA0D
:1016300003373A434FF6FF7707EA05273A43114F3E
:10164000B8420ED0104FB8420BD0B0F1804F08D046
:101650000E4FB84205D00E4FB84202D00D4FB842DF
:1016600006D14FF6DF77394046F01007394305E0E1
:101670004FF65F77394044F0100739430283018405
:10168000F0BD0000002C0140003401400004004087
:1016900000080040000C0040F0B50C461546002242
:1016A00000210026078C4FF6FF6C07EA0C07078421
:1016B000828B018C4FF6FF7707EA04264FF60C77F2
:1016C0003A404FF6FF7707EA03172F433A43114F8B
:1016D000B8420ED0104FB8420BD0B0F1804F08D0B6
:1016E0000E4FB84205D00E4FB84202D00D4FB8424F
:1016F00006D14FF6FF57394046F48077394305E06D
:101700004FF2FF57394044F4807739438283018494
:10171000F0BD0000002C01400034014000040040F6
:1017200000080040000C0040F0B50C4615460022B1
:1017300000210026078C4EF6FF7C07EA0C07078481
:10174000828B018C4FF6FF7707EA043640F6FF479D
:101750003A404FF6FF7707EA05273A434FF6FF77FF
:1017600007EA03373A43114FB8420ED0104FB84240
:101770000BD0B0F1804F08D00E4FB84205D00E4FBD
:10178000B84202D00D4FB84206D14DF6FF7739402E
:1017900046F48057394305E047F6FF57394044F493
:1017A0008057394382830184F0BD0000002C014042
:1017B000003401400004004000080040000C0040DC
:1017C00010B50121880700F076F801282BD10320FD
:1017D00002F0A6F916490860042002F0A1F91449A4
:1017E0004860052002F09CF911498860032002F04E
:1017F00097F90F49C96808440D49C860042002F0F0
:101800008FF90B490969014409480161052002F07B
:1018100087F907494969014405484161054800685D
:10182000401C044908600121880700F005F810BD3C
:10183000600100205C000020CA430282704721B191
:10184000028842F00102028004E002884FF6FE7333
:101850001A400280704731B1B0F8442042F400428F
:10186000A0F8442005E0B0F84420C2F30E02A0F82E
:1018700044207047F0B50C4615461E460021002254
:1018800000230189028B038C4FF6F87739402143FE
:101890004FF6FC473A4040F201173A434FF6DD77E6
:1018A0003B404FF6FF7707EA06172F433B43018182
:1018B00002830384F0BD30B50246002000230024DB
:1018C000158A05EA0103958905EA010413B10CB1F3
:1018D000012000E0002030BD70B505460C462448CC
:1018E00085420ED0234885420BD0B5F1804F08D0F9
:1018F0002148854205D02148854202D020488542B2
:1019000000D100E000BF208850B92389A2886188F7
:101910002846FFF735FEE188284600F091F825E0DB
:10192000208804280AD12389A28861882846FFF7E5
:1019300067FEE188284600F08CF817E02088082828
:101940000AD12389A28861882846FFF7A5FEE1888D
:10195000284600F08BF809E02389A2886188284690
:10196000FFF7E2FEE188284600F089F870BD00002C
:10197000002C0140003401400004004000080040F9
:10198000000C004000210180418001218180002164
:10199000C180018170471AB183890B43838102E0C2
:1019A00083898B438381704770B500240022002314
:1019B000058C4FF6FE7635400584028C8388048BB7
:1019C0004FF68F752C40B51E2C400D882C43751E8C
:1019D0002A400D892A434D882A43144DA8420BD032
:1019E000134DA84208D0134DA84205D0124DA8426D
:1019F00002D0124DA84213D14FF6F7752A404D89F7
:101A00002A434FF6FB752A408D882A434FF6FF651F
:101A10002B404FF6FF552B408D892B43CD892B430F
:101A200083800483CD888586028470BD002C0140AC
:101A300000340140004001400044014000480140A2
:101A4000028B4FF6F3731A400283028B0A43028320
:101A50007047028B4FF2FF331A400283028B4FF61E
:101A6000FF7303EA01231A4302837047828B4FF608
:101A7000F3731A408283828B0A4382837047828B7E
:101A80004FF2FF331A408283828B4FF6FF7303EAD3
:101A900001231A4382837047002202881D4B98421B
:101AA0000ED01D4B98420BD0B0F1804F08D01B4B8D
:101AB000984205D01A4B984202D01A4B984204D152
:101AC0004FF68F731A404B881A43174B984207D032
:101AD000164B984204D04FF6FF431A40CB881A4366
:101AE00002808B8883850B8803850A4B98420BD034
:101AF000094B984208D00E4B984205D00D4B9842A6
:101B000002D00D4B984201D10B7A038601238382C8
:101B100070470000002C01400034014000040040E8
:101B200000080040000C004000100040001400407D
:101B300000400140004401400048014010B540F21F
:101B40002551054800F08AF828B1034800F042F911
:101B5000C4B20248047010BD004C004008040020CC
:101B600010B540F225511D4800F078F810B31B481D
:101B700000F030F9C4B21A48008800F40040C8B937
:101B80001748008800F4804060B10A2C03D0002080
:101B90001349088020E01248008840F400401049B2
:101BA000088019E00D2C06D10D48008840F48040D3
:101BB0000B49088010E00A480088C0F30D0009496D
:101BC0000C5407480088401C0549088008460088D6
:101BD000C72801DD0020088010BD0000003801404A
:101BE0000C0000209800002010B540F22551074855
:101BF00000F034F840B1054800F0ECF8C4B22046DB
:101C000002F06EF90249C86010BD000000440040B7
:101C10000804002010B540F22551074800F01EF8D6
:101C200048B1054800F0D6F8C4B20448007801284D
:101C300001D10348847010BD0048004067000020B7
:101C40006C00002021B1828942F40052828104E0BC
:101C500082894DF6FF731A408281704770B5024643
:101C6000002400230025002040F66A16B14200D16E
:101C700000BFC1F3421501F01F03012606FA03F36A
:101C8000012D02D19689334006E0022D02D1168A39
:101C9000334001E0968A33400C12012606FA04F420
:101CA0001688344013B10CB1012000E0002070BD53
:101CB000F0B50346002400260025002040F66A17F0
:101CC000B94200D100BF1846C1F3421401F01F060B
:101CD000012707FA06F5012C01D10C3004E0022C93
:101CE00001D1103000E014301AB107682F430760AB
:101CF00002E00768AF430760F0BD00002DE9F04740
:101D000086B005460E460024A24600BFA146002725
:101D1000B08900B100BF2F462C8A4CF6FF700440FA
:101D2000F08804432C82AC894EF6F3100440B0884E
:101D300031890843718908430443AC81AC8A4FF66A
:101D4000FF400440B0890443AC8201A8FFF706FBC2
:101D50001F48874202D1DDF810A001E0DDF80CA099
:101D6000A88900F4004040B10AEBCA0000EB0A1059
:101D700031684900B0FBF1F807E00AEBCA0000EB5C
:101D80000A1031688900B0FBF1F86420B8FBF0F06C
:101D900004012009642101FB1089A88900F4004096
:101DA00040B1322000EBC900B0FBF1F000F00700B9
:101DB000044308E0322000EB09106421B0FBF1F08D
:101DC00000F00F0004432C8106B0BDE8F08700004E
:101DD0000038014001468888C0F30800704700BF02
:101DE000FEE7000070B592B0054600240123FE22F4
:101DF0008921284600F057FB04462CB9002288218F
:101E0000284600F079FB04460021F02041554FF4AC
:101E10007A70A5F852014FF4C870A5F854015A48D9
:101E2000C5F858015948C5F8D400296202A92846C6
:101E300000F0BEF8044654B900208DF808008DF873
:101E40000900402202A905F11000FEF771FB642091
:101E500005F59A7528804FF4617068804FF4FA7028
:101E6000A8804FF42060288101202877A5F59A7575
:101E700001228021284600F03FFB04430122FF217C
:101E8000284600F039FB044300221146284600F0A2
:101E900033FB044301AA9121284600F014FA0443BD
:101EA0009DF8040085F83A0101220021284600F03F
:101EB00023FB04430022FF21284600F01DFB0443BE
:101EC00000228021284600F017FB0443002609E089
:101ED00034B9B1B20122284600F049FA044300E0C7
:101EE00002E0761C062EF3DB00BF2CB90022022193
:101EF000284600F03CFA04462CB90022032128466B
:101F000000F035FA04462CB900220421284600F0DE
:101F10002EFA04462CB900220521284600F027FAA3
:101F2000044634B94FF490120021284600F080FA9C
:101F3000044634B94FF480420121284600F078FA73
:101F4000044634B94FF40C120221284600F070FA0E
:101F500004462CB900220321284600F069FA044601
:101F60005CB9FF2085F83001FF220121284600F0EE
:101F7000C3FA0446012085F8320114B9002185F81E
:101F80001511204612B070BD856B0100A4700900C8
:101F900070B504460D4600262946204600F05CFB3D
:101FA0000646304670BD02460020137C0B70704719
:101FB0002DE9F04107460D46002429463846FFF733
:101FC000F2FF04462CB905F10801384600F040F84C
:101FD00004460CB9002028732CB905F110013846CD
:101FE00000F048F904462CB905F11401384600F018
:101FF000C2F80446E4B9002617E04CB905F1240004
:1020000000EB8602B1B2384600F04FF8044300E01E
:102010000DE044B905F118008219B1B2384600F05C
:1020200036F8044300E002E0761C062EE5DB00BF34
:102030002CB905F13C01384600F0FDF8044624B9FE
:10204000291D384600F08CF804462046BDE8F08192
:102050007CB506460C46002501AAF821304600F062
:102060005EF905462DB96A460421304600F041F973
:10207000054655B9BDF8040028B1BDF80410009814
:10208000B0FBF1F020602168B16128467CBD30B51D
:1020900003460020062903DB001F0025157003E01E
:1020A00003F128056C5C147030BD2DE9F84305463A
:1020B0000E4617464FF00008C146062E2FD2DFE825
:1020C00006F00307161A1E1F6C6B4FF0000929E07B
:1020D0006A464421284600F022F98046B8F1000FF4
:1020E00002D1BDF8000044024FF001091AE0EC6B88
:1020F0004FF0000916E02C6C4FF0000912E000BF11
:102100006A466421284600F00AF98046B8F1000FBB
:1021100002D1BDF8000044024FF0000902E06FF068
:10212000030800BF00BFB8F1000F16D1B9F1010FCD
:1021300012D144B905F1340050F826403C6000212A
:102140000C38815509E03C6005F1340040F8264028
:1021500001210C38815500E03C604046BDE8F88321
:1021600070B504460D4600262946204600F087FD3E
:102170000646304670BD70B504460D460026294619
:10218000204600F0F3FD0646304670BD70B50446AB
:102190000D4600262946204600F014FE064630462D
:1021A00070BDF8B506460C460025002000906A4632
:1021B0000121304600F087F805463DB923469DF8D9
:1021C00000200021304601F0C7FC05463DB9A31CA4
:1021D0009DF800200121304601F0BEFC05463DB9C6
:1021E000631C9DF800200221304601F0B5FC054635
:1021F0003DB9E31C9DF800200321304601F0ACFC02
:1022000005463DB9231D9DF800200421304601F00C
:10221000A3FC05462846F8BD2DE9F04104460D46CD
:102220001646002732462946204600F031FF074671
:102230003846BDE8F081F8B506460C4600256A46EA
:102240000121304600F03FF805466DB99DF80000C9
:1022500086F830019DF8000000F0800010B10120E8
:10226000207001E00020207015B9217886F84C100C
:102270002846F8BDF8B504460E4600276A462021D8
:10228000204600F04CF8074677B9BDF8000020B9A9
:10229000256A35600021217706E0BDF80000C50001
:1022A00035602562012121773846F8BD08B5014621
:1022B00000200022009202E0009A521C0092009A34
:1022C000FA2AF9D308BD2DE9F04704460D46164613
:1022D000002794F85C9132462946484600F0FBFE00
:1022E0008046B8F1000F01D06FF013073846BDE803
:1022F000F0872DE9F04704460D461646002794F86E
:102300005C9132462946484600F0F5FE8046B8F119
:10231000000F01D06FF013073846BDE8F0872DE9B4
:10232000F04704460D461646002794F85C91324665
:102330002946484600F010FF8046B8F1000F01D052
:102340006FF013073846BDE8F0872DE9F0410546E8
:102350000C460026274604EBD770C0F347028A21BB
:10236000284600F0C9F806463046BDE8F0812DE960
:10237000F05F04460D4616464FF00009CB46002795
:10238000BA46062D02DB6FF0030941E02EB94FF08B
:10239000000B00274FF0010A06E004F1340050F86A
:1023A00025B04FF0000A0127062D2DD2DFE805F0F9
:1023B00003060E1114202820075528E0CBF34F22E6
:1023C0004421204600F0AEF8814620E084F82A70CF
:1023D0001DE084F82B701AE04FEA4A604FEA10685B
:1023E0004346FE226021204600F05DF881460EE063
:1023F0004FEA0A704FEA10684346EF2260212046F8
:1024000000F051F8814602E06FF0030900BF00BF01
:10241000B9F1000F09D126B9002104F12800415576
:1024200003E0012104F1280041554846BDE8F09F32
:102430002DE9F04105460E461446002705F1280017
:1024400010F80680B8F1000F03D10C3040F8264098
:1024500026E0062E1BD2DFE806F003050D0F111251
:102460006C6317E0C4F34F224421284600F05AF869
:1024700007460FE0EC630DE02C640BE000BFC4F3F3
:102480004F226421284600F04DF8074602E06FF025
:10249000030700BF00BF1FB905F1340040F8264014
:1024A0003846BDE8F0812DE9F84F044689461546C7
:1024B0001E46002794F85CA16A464946504600F043
:1024C0000AFE8046B8F1000F01D06FF0130787B9FC
:1024D0009DF800002840304300909DF800204946B8
:1024E000504600F04EFE8046B8F1000F01D06FF06C
:1024F00013073846BDE8F88F2DE9F04704460D462E
:102500001646002794F85C9132462946484600F06A
:1025100038FE8046B8F1000F01D06FF0130738463F
:10252000BDE8F0872DE9F04704460D461646002722
:1025300094F85C9132462946484600F043FE8046B6
:10254000B8F1000F01D06FF013073846BDE8F087EF
:10255000E0B5064640F277634FF4106202FB01F5E6
:10256000A5FB0307E0BD2DE9F04306460C461546E2
:10257000002729463046FFF7EBFF804608F5FA7042
:102580004FF47A71B0FBF1F904FB09F000F5FA7031
:10259000B0FBF1F73846BDE8F08300002DE9F047C5
:1025A00004460D46164600270221204600F0C2F8D8
:1025B0000746AFB994F8F180B8F1000F06D10020BA
:1025C000287009A0007886F8400009E0F220005D3C
:1025D000287004F1F309494606F14000FDF784FF35
:1025E0003846BDE8F08700000000000001460020EA
:1025F000CAB20B0A9A40501C7047014600204A1C80
:102600005206100E7047F8B50646002400228321BA
:102610003046FFF771FF0443B4B9002500BF6A4696
:1026200083213046FFF74FFE04469DF8000000B9B5
:1026300004B103E06D1CB5F5FA6FF0D300BFB5F53A
:10264000FA6F01D36FF00604012283213046FFF7B1
:1026500053FF04432046F8BD7CB506460C460025D2
:10266000224669463046FFF799FF0546002D26D1E0
:102670009DF8000020B91EA12046FDF735FF19E0A6
:102680009DF80000222808DC9DF80000202804D0D6
:102690001AA12046FDF728FF0CE09DF8000027282E
:1026A00004DA19A12046FDF71FFF03E019A1204617
:1026B000FDF71AFF1DA104F12000FDF715FF35B944
:1026C00004F16002C0213046FFF7FDFD05466DB9FB
:1026D00001AAC2213046FFF7F6FD0546012084F825
:1026E00061009DF80400000984F8620028467CBD62
:1026F000564C35334C30582054533000564C3533FB
:102700004C30582054533100564C35334C305820FF
:1027100054533200564C35334C30582045533120F9
:102720006F72206C6174657200000000564C353386
:102730004C3058002DE9F04F93B005460F46002469
:1027400000200E900D900C900B90824683464FF423
:10275000C8500A904FF00009002009900290F02024
:10276000465D072E7ED0012280212846FFF7C4FE59
:1027700004430122FF212846FFF7BEFE0443002246
:1027800011462846FFF7B8FE04430622FF212846DB
:10279000FFF7B2FE044312AA83212846FFF793FDF8
:1027A00004439DF8480040F0040283212846FFF7C7
:1027B000A3FE04430722FF212846FFF79DFE0443A2
:1027C000012281212846FFF797FE04432846FFF7A0
:1027D0006DFD0443012280212846FFF78DFE04434E
:1027E00007F00100002855D006F00100002851D163
:1027F0006B2294212846FFF77FFE04432846FFF70B
:1028000002FF044311AA90212846FFF772FD0443FA
:102810001198C0F306200E901198C0F3C0300D90AF
:10282000242294212846FFF767FE04432846FFF739
:10283000EAFE044311AA90212846FFF75AFD0443FB
:102840001198000E8DF800001198000C8DF8010011
:102850001198000A8DF802001198C0B28DF803009B
:10286000252200E0A4E194212846FFF745FE044319
:102870002846FFF7C8FE044311AA90212846FFF717
:1028800038FD04431198000E8DF804001198000CD7
:102890008DF8050007F0020002287DD106F0020045
:1028A0000028FAD1022294212846FFF725FE04438E
:1028B0002846FFF7A8FE044310AA90212846FFF7F8
:1028C00002FD04437B2294212846FFF715FE0443B2
:1028D0002846FFF798FE04430FAA90212846FFF7E9
:1028E000F2FC0443772294212846FFF705FE0443B7
:1028F0002846FFF788FE044311AA90212846FFF7D7
:10290000F8FC04437F21119801EA50608DF8100013
:102910001198C0F386408DF811001198C0F3C620BD
:102920008DF812001198C0F306108DF8130011985D
:102930000007400E1290782294212846FFF7DCFD14
:1029400004432846FFF75FFE044311AA902128465E
:10295000FFF7CFFC04437F21119801EA50709DF8E6
:1029600048100844C0B28DF814001198C0F3865086
:102970008DF815001198C0F3C6308DF81600119827
:10298000C0F306208DF817001198C0F346008DF8AB
:1029900018001198C00700E05FE0400E1290792205
:1029A00094212846FFF7A8FD04432846FFF72BFE95
:1029B000044311AA90212846FFF79BFC04437F2182
:1029C000119801EA90609DF848100844C0B28DF853
:1029D00019001198C0F3C6408DF81A001198C0F381
:1029E00006308DF81B001198C0F346108DF81C00BE
:1029F0001198C006400E12907A2294212846FFF7C3
:102A00007BFD04432846FFF7FEFD044311AA9021F5
:102A10002846FFF76EFC04437F21119801EA90706D
:102A20009DF848100844C0B28DF81D001198C0F3FD
:102A3000C6508DF81E001198C0F306408DF81F0097
:102A40001198C0F346208DF820001198C0F386003D
:102A50008DF8210000208DF8220007F004000428E2
:102A600073D106F0040000286FD17B229421284600
:102A7000FFF742FD04432846FFF7C5FD04430CAAB7
:102A800090212846FFF735FC04437C2294212846F8
:102A9000FFF732FD04432846FFF7B5FD04430BAAB8
:102AA00090212846FFF725FC0443732294212846F1
:102AB000FFF722FD04432846FFF7A5FD044311AAB2
:102AC00090212846FFF715FC044311980006000CDE
:102AD0000990742294212846FFF70EFD04432846EE
:102AE000FFF791FD044311AA90212846FFF701FC4E
:102AF00004431199099840EA1160099075229421C4
:102B00002846FFF7F9FC04432846FFF77CFD044301
:102B100011AA90212846FFF7ECFB04431198000608
:102B20004FEA1049762294212846FFF7E5FC04433A
:102B30002846FFF768FD044311AA90212846FFF7B5
:102B4000D8FB0443119849EA1069002281212846E4
:102B5000FFF7D2FC04430622FF212846FFF7CCFCF6
:102B6000044312AA83212846FFF7ADFB04439DF8D6
:102B7000480000F0FB0283212846FFF7BDFC044318
:102B80000122FF212846FFF7B7FC04430122002160
:102B90002846FFF7B1FC04430022FF212846FFF737
:102BA000ABFC0443002280212846FFF7A5FC044328
:102BB000002C60D1072E5ED007F00100A8B106F00E
:102BC000010090B90E9885F813010D9885F814014D
:102BD000A04607E01DF8081005F5957000F80810EC
:102BE00008F10108B8F1060FF4DB07F00200022833
:102BF00011D106F0020070B99DF84010F120415546
:102C00009DF83C10F220415505F1F300039004A912
:102C10000398FDF769FC07F00400042824D106F0AE
:102C2000040008BB4FF48C700C994151001D0B99A6
:102C300041510998400202904FF490710298485116
:102C40004FF0000BB9F1000F0CD00A98A9EB000A65
:102C50004FF47A700AFB00F04FEA101BCBF1000032
:102C60000FFA80FBC5F80CB046EA070012909DF8F9
:102C70004810F0204155204613B0BDE8F08F2DE9F3
:102C8000F04F87B006460C4600254FF4FA600390DB
:102C900040F276774FF470784FF4257940F24E2A5F
:102CA00040F2B22B4846029040F2262001900020CC
:102CB000009007EB0800206005A93046FFF771FA85
:102CC00005461DB1284607B0BDE8F08F9DF81400F9
:102CD00028B99DF8150010B99DF8160008B303AA8D
:102CE0000221304600F09EFD0546D5B99DF814003E
:102CF00020B1206803995144084420609DF81600D3
:102D000038B1206803995944022202FB0100206077
:102D100007E09DF8150020B1206803994944084454
:102D2000206075B99DF8170058B16A4603213046F6
:102D300000F078FD05462168009A02981044084486
:102D4000206075B99DF8180058B104AA04213046D6
:102D500000F068FD05462168049A01981044084473
:102D600020600DB9216871612846ACE72DE9F84370
:102D700006460C46002540F2FF774FF480586A461D
:102D800028213046FFF7CBFA0546BDB9BDF8000053
:102D9000C0F30B000090BDF80000B84208DDBDF89C
:102DA0000000A0EB080000B2FA214843206005E0D3
:102DB000BDF8000000B2FA21484320602846BDE873
:102DC000F883000070B504460D460026204614F135
:102DD000080F54D01DDC10F1140F64D00CDC10F17E
:102DE000630F77D010F1320F6FD010F1280F64D03D
:102DF00010F11E0F73D15BE010F10C0F30D010F109
:102E00000B0F4BD010F10A0F43D010F1090F66D110
:102E10003AE0C01D082862D2DFE800F02C271D1818
:102E2000130E090432A12846FDF75EFB5CE033A1D6
:102E30002846FDF759FB57E037A12846FDF754FB1C
:102E400052E03AA12846FDF74FFB4DE03BA1284652
:102E5000FDF74AFB48E040A12846FDF745FB43E06B
:102E600042A12846FDF740FB3EE046A12846FDF77B
:102E70003BFB39E046A12846FDF736FB34E048A18C
:102E80002846FDF731FB2FE04CA12846FDF72CFB2F
:102E90002AE04FA12846FDF727FB25E051A128464F
:102EA000FDF722FB20E056A12846FDF71DFB1BE0A5
:102EB00059A12846FDF718FB16E05DA12846FDF74D
:102EC00013FB11E006E000E009E05FA12846FDF7F2
:102ED0000BFB09E063A12846FDF706FB04E067A1B0
:102EE0002846FDF701FB00BF00BF304670BD000063
:102EF0004E6F204572726F720000000043616C6972
:102F000062726174696F6E205761726E696E6720BC
:102F10004572726F720000004D696E20636C6970BB
:102F2000706564206572726F72000000556E646592
:102F300066696E6564206572726F7200496E7661B3
:102F40006C696420706172616D657465727320656F
:102F500072726F72000000004E6F74207375707093
:102F60006F72746564206572726F7200496E746569
:102F70007272757074206E6F7420436C6561726537
:102F80006400000052616E6765206572726F7200A6
:102F900054696D65206F7574206572726F720000E0
:102FA0004D6F6465206E6F7420737570706F7274EE
:102FB0006564206572726F7200000000427566667B
:102FC000657220746F6F20736D616C6C000000007F
:102FD0004750494F206E6F74206578697374696E2D
:102FE000670000004750494F2066756E6374206E7D
:102FF0006F7420737570706F7274656400000000E8
:10300000436F6E74726F6C20496E74657266616393
:1030100065204572726F7200496E76616C6964203A
:10302000436F6D6D616E64204572726F72000000B7
:103030004469766973696F6E206279207A65726F70
:10304000204572726F7200005265666572656E632C
:1030500065205370616420496E6974204572726FF7
:10306000720000004E6F7420696D706C656D656E46
:10307000746564206572726F72000000556E6B6E2D
:103080006F776E204572726F7220436F6465000027
:10309000F8B507460C461546002614B1012C0ED192
:1030A00006E06A4650213846FFF70DF9064609E06A
:1030B0006A4670213846FFF706F9064602E06FF0CF
:1030C000030600BF00BF26B99DF80000FFF795FA80
:1030D00028703046F8BD2DE9F04104460D461646ED
:1030E0000027012332462946204600F021F80746F2
:1030F0003846BDE8F081F8B505460E46144600276F
:1031000004236A463146284600F012F807469DF827
:10311000000000069DF8011000EB01409DF8021030
:1031200000EB01209DF80310084420603846F8BDEC
:103130002DE9F04106460F4614461D464FF00008A3
:1031400023462A463946304600F0F0F808B14FF0E1
:1031500001084046BDE8F081F8B505460E46144624
:10316000002702236A4631462846FFF7E1FF07465B
:103170009DF801009DF8001000EB012020803846EA
:10318000F8BDF7B504460D460026012302AA2946DC
:10319000204600F003F806463046FEBD2DE9F0411A
:1031A00006460F4614461D464FF0000823462A46A1
:1031B0003946304600F0A8F908B14FF00108404602
:1031C000BDE8F081F8B506460C46154600272812E2
:1031D0008DF80000E8B28DF80100204604EBD071B4
:1031E0004910A4EB410101290ED101236A46214671
:1031F0003046FFF7D3FF074601236A462146304693
:10320000FFF7CCFF074606E002236A462146304618
:10321000FFF7C4FF07463846F8BD000010B5002090
:103220000F4908600F48006820F470400D4908609D
:103230000846006840F44050086000200A49C1F880
:103240008C01022000F03CFA0120054908600220B0
:1032500000F036FA00200449C1F8880110BD0000D2
:1032600088012142000801400000214210B50020E1
:103270000F4908600F48006820F470400D4908604D
:103280000846006840F44050086001200A49C1F82F
:103290008C01022000F014FA012005490860022088
:1032A00000F00EFA00200449C1F8880110BD0000AA
:1032B00088012142000801400000214270B5054606
:1032C00000241748006820F470401549086008463B
:1032D000006840F400400860002616E00020114914
:1032E0000860042000F0ECF901200F49C1F88801C2
:1032F0006006040E0B487C38006808B1601CC4B23C
:10330000042000F0DDF9701CC6B2082EE6DB15B90A
:10331000FFF7ACFF01E0FFF781FF204670BD000022
:103320000008014088012142000021422DE9F041BE
:1033300006460F4614461D4600F068F8304600F079
:103340002BF800F0AFF820B100F086F80120BDE8BE
:10335000F081384600F020F800F0A4F800F056F8AC
:1033600046F0010000F018F800F09CF80DE0012C88
:1033700004D10020FFF7A2FF287003E00120FFF72F
:103380009DFF28706D1C601E84B2002CEFD100F0F0
:1033900063F80020DBE7000070B5044618480068B9
:1033A00020F47040164908600846006840F4405018
:1033B000086000201349086000251EE0E00920B1E4
:1033C00001201049091D086003E000200D49091D76
:1033D00008606006040E022000F072F9012009491D
:1033E0000860022000F06CF900200749C1F888014C
:1033F000022000F065F9681CC5B2082DDEDB70BD47
:1034000000080140880121420000214210B50F4808
:10341000006820F470400D4908600846006840F4D8
:103420004050086001200A4908600A49C1F8880133
:10343000042000F045F9002005490860042000F050
:103440003FF900200349C1F8880110BD0008014080
:103450008C0121420000214210B50F48006820F481
:1034600070400D4908600846006840F4405008600C
:1034700000200A4908600A49C1F88C01042000F0C4
:103480001FF90120054908600549C1F88C01042095
:1034900000F016F910BD000000080140880121422B
:1034A0000000214210B500241448006820F4704048
:1034B000124908600846006840F400400860012096
:1034C0000F49086000F0FCF801200E49C1F888019E
:1034D00000F0F6F807E0601CC4B2FA2C03DDFFF739
:1034E000BBFF012010BD0648803800680028F2D1DB
:1034F0000349091F086000BFF4E70000000801400D
:103500008C012142000021422DE9F04107460D4681
:1035100016461C46FFF77AFF3846FFF73DFFFFF7D8
:10352000C1FF20B1FFF798FF0120BDE8F0812846D8
:10353000FFF732FFFFF7B6FF05E014F8010BFFF7C6
:103540002BFFFFF7AFFF301EA6F101018EB2F4D1C1
:10355000FFF782FF0020E8E730380A2801D2012077
:10356000704700207047014600BF70471B484078F5
:1035700000EB40001A4901EB400018490978405C13
:10358000184981F8280015480078072823D2DFE879
:1035900000F02204090E13181D000220114981F8C1
:1035A000290018E001200F4981F8290013E00520C7
:1035B0000C4981F829000EE006200A4981F829000B
:1035C00009E00320074981F8290004E004200549A7
:1035D00081F8290000BF00BF704700006C00002088
:1035E000730000206C03002000B591B001201C493D
:1035F0001C4A0D92CDE90E21109000200A900B90EC
:10360000282219490C906846FCF792FF164810389A
:103610000FC800F04EFA00201149124A0D92CDE970
:103620000F100A900B900E920C9028220F496846BA
:10363000FCF77EFF0D4810380FC800F03AFA0BE097
:103640004FF47A720A4941F8202042F210720C318C
:1036500041F82020411CC8B20328F1DB11B000BDA5
:103660000000A04000007A44A8030020E0030020EE
:10367000780100200146114A12884A434FF0E023A6
:103680005A6100229A611A46126942F001021A61D7
:1036900000BF4FF0E022106900F001021AB100F4FF
:1036A0008032002AF5D04FF0E022126922F00102A8
:1036B0004FF0E0231A6100229A6170470600002053
:1036C0000146114A12784A434FF0E0235A61002222
:1036D0009A611A46126942F001021A6100BF4FF066
:1036E000E022106900F001021AB100F48032002AD1
:1036F000F5D04FF0E022126922F001024FF0E023F2
:103700001A6100229A6170470400002008B5012167
:103710002020FDF713FE4FF47C40ADF80000282078
:103720008DF8030003208DF802004FF47C4104481B
:10373000FDF76FFA69460248FDF7E0F908BD0000A1
:103740000014014000B587B001210420FDF7E6FD1B
:1037500001210820FDF7F2FDC020ADF80000042093
:103760008DF8030003208DF8020069461448FDF728
:10377000C5F90020ADF81600ADF812004FF6FF7045
:10378000ADF814000020ADF8100004A90D48FEF7B4
:1037900083F900231A4603210A48FEF76BF801A8B3
:1037A000FEF7F0F80A20ADF80C0001A90548FEF775
:1037B00093F801210348FEF742F807B000BD00006E
:1037C000000C01400008004000BF054A128802F0CA
:1037D0004002002AF9D0C2B2014B1B1D1A8070476B
:1037E000003801400120084908700020074908708E
:1037F00007490870074908700749087007490870A9
:103800000749087070470000600000206800002031
:103810006A000020690000206B0000206700002083
:10382000660000202DE9F04F87B082460D4617460E
:103830000024002005908346049081461DB1012D8F
:1038400001D0022D1AD106AA00215046FEF7E4FC51
:1038500004462CB905AA46215046FEF734FD04461D
:103860009DF81400FEF7C2FE1FFA80F89DF818209C
:1038700041465046FEF777FE83465EE0032D21D198
:1038800006AA00215046FEF7C7FC0446002C54D17E
:1038900006AA00215046FEF7BFFC04462CB904AA34
:1038A00051215046FEF73BFD0446BDF81000FEF7DF
:1038B0009DFE86B29DF8182031465046FEF753FE15
:1038C00083463AE0042D38D101A95046FEF769FC41
:1038D00000269DF8070088B106AA00215046FEF791
:1038E0009BFC044654B904AA51215046FEF717FD2B
:1038F0000446BDF81000FEF779FE86B22CB906AA80
:1039000001215046FEF788FC04465CB903AA7121E8
:103910005046FEF704FD0446BDF80C00FEF766FEB7
:103920001FFA80F9A9EB06001FFA80F99DF818200C
:1039300049465046FEF717FE8346C7F800B02046BA
:1039400007B0BDE8F08F000010B5132140F60F60FE
:1039500000F02CF9FFF7F6FE00F072F841F61F4177
:10396000C72000F027F80C48006800F047FAFDF780
:1039700091FAFDF777FCFFF7C9FE4FF4E13000F054
:1039800097F94FF4E13000F041F900F00EF9FFF73C
:1039900029FFFFF729FE10BD0000002010B54FF4ED
:1039A000A060FDF7AFFCFFF7CFFF00F0F9F80020B3
:1039B00010BD000030B589B005460C46012110202D
:1039C000FDF7BCFC01214803FDF7B8FC4020ADF831
:1039D000200018208DF8230003208DF8220008A96C
:1039E0001548FDF78BF8ADF81850ADF814400020DD
:1039F000ADF81600ADF81A008DF81C0005A90F48A7
:103A0000FEF74AF86020ADF804000120ADF806008A
:103A10000520ADF80A000020ADF80C0001A9074808
:103A2000FDF7C2FF01210548FDF715FF01210348FD
:103A3000FDF705FF09B030BD001001400034014022
:103A400010B5FDF76FFA80216B20FDF7E2FB6420D3
:103A5000FFF710FE00216B20FDF7DBFB0320FDF7D5
:103A600097FB0020FDF78DFB3220FDF7B5FB002111
:103A70003820FDF7CEFB00216A20FDF7CAFB0021AC
:103A80002320FDF7C6FB80213720FDF7C2FB752000
:103A9000FDF75AFB0446682C07D10121FDF7B9FB5D
:103AA00000216C20FDF7B5FB01E0012010BD0020D6
:103AB000FCE70FB42DE9F04716AC94E8F007089442
:103AC00009950A96CDF84890CDF8448010970020CB
:103AD0000E900F900B900C900D90504600F000FA55
:103AE0001490BDE8F0075DF814FB000010B588B035
:103AF000044669462046FEF749FB6A46214602A075
:103B0000FCF790FB08B010BD41504920537461741C
:103B100075733A202569203A2025730D0A000000AC
:103B20000146032907D0042902D0052909D105E05F
:103B3000064A108807E0064A108804E0054A108803
:103B400001E0002000BF00BF7047000024080040D3
:103B500024040040240C004030B504460020002519
:103B60001D70052917D2DFE801F003070B0F1300C2
:103B7000C2F300151D7011E0C2F3C0051D700DE009
:103B8000C2F380051D7009E0C2F380151D7005E0C9
:103B9000D5091D7002E06FF0030000BF00BF30BD0B
:103BA00002E000BFFCF70AFEFBE770477FB5054661
:103BB0000C4601210846FDF7B1FB0020ADF80A00D4
:103BC000ADF80600ADF80850ADF8044001208DF8BE
:103BD0000C0001A98007FDF75FFF01221146900745
:103BE000FDF7D9FE01218807FDF729FE1C208DF87D
:103BF000000001208DF8030002208DF801008DF8EF
:103C000002006846FDF746FB7FBD000010B586B098
:103C1000044601214804FDF781FB01210420FDF742
:103C20008DFB0420ADF8140018208DF81700032038
:103C30008DF8160005A91C48FCF760FF0820ADF8B8
:103C4000140004208DF8170005A91748FCF756FF4B
:103C500026208DF8000001208DF8030003208DF848
:103C600001008DF802006846FDF714FB0194002066
:103C7000ADF80800ADF80C00ADF80A00ADF8100082
:103C80000C20ADF80E0001A90848FEF737F8012214
:103C900040F225510548FEF70BF801210348FDF7D6
:103CA000D1FF06B010BD00000008014000440040F4
:103CB00010B586B0044601218804FDF72FFB0121D1
:103CC0000420FDF73BFB4FF48060ADF81400182092
:103CD0008DF8170003208DF8160005A91C48FCF785
:103CE0000DFF4FF40060ADF8140004208DF81700AC
:103CF00005A91748FCF702FF27208DF800000120D6
:103D00008DF8030003208DF801008DF8020068464D
:103D1000FDF7C0FA01940020ADF80800ADF80C00E2
:103D2000ADF80A00ADF810000C20ADF80E0001A9A6
:103D30000848FDF7E3FF012240F225510548FDF751
:103D4000B7FF01210348FDF77DFF06B010BD00005D
:103D5000000C0140004800402DE9F84305460E469E
:103D60000024A046374695F85C01B84202D10020F5
:103D7000BDE8F883002288212846FEF7BDFB0446F3
:103D800014B14FF0010825E06A46C0212846FEF72D
:103D9000C6FA044614B14FF002081BE0BDF800005B
:103DA0004EF6AA61884214D139462846FEF7CDFA6C
:103DB000044614B14FF003080CE085F85C716A46C4
:103DC000C0212846FEF7ABFA044614B14FF00408B0
:103DD00000E000BF14B12046FFF788FEB8F1000FE5
:103DE00003D0414602A0FCF71DFA2046C0E70000C0
:103DF0007374613A307825780D0A000070B5044676
:103E0000002526462F48806940F004002D4988612E
:103E10002D48006820F470202B490860084600688F
:103E200040F44030086028480C30006840F0100032
:103E300025490C310860522086F85C01012086F883
:103E40005D014FF4C870A6F85E0100201F490860AC
:103E50001E20FFF70FFC01201D49C1F890011E2014
:103E6000FFF708FC54213046FFF776FF05B120E04C
:103E70003046FDF7B7FF054605B11AE00220FFF70F
:103E8000F9FB14493046FEF783F8054605B110E00A
:103E9000182211490020FCF751FC0F480078AA288D
:103EA00003D101200D49087002E000200B49087081
:103EB00000BF25B12846FFF719FE284670BD2846E9
:103EC000FCE7000000100240000801409001214280
:103ED00000002142F00200205303002022000020B5
:103EE000B0FA80F310FA03F2C3F19D030AD0D905AA
:103EF00001EB1220530638BF704700F1010008BFE4
:103F000020F00100704730313233343536373839DC
:103F10004142434445464030580030313233343515
:103F20003637383961626364656640307800040072
:103F30000008000000000000000200010000100066
:103F4000603F000800000020980000006C0100089D
:103F5000F83F000898000020180A000088010008B7
:103F60000000000000000000000000000000000051
:103F70000000010203040102030406070809020409
:103F80000608000040000000001200E88000000E5B
:103F90000A0040000000001200400D03000E0A99C4
:103FA00019000000003C00E8800000120E004000F4
:103FB0000000002000204E00000E0A00000000005B
:103FC00000000000000100000000000000000000F0
:103FD00000000001020304050602010506030403B4
:103FE0000401020604040602010403050306050198
:083FF0000206040403020100B3
:04000005080001E10D
:00000001FF
