:020000040800F2
:1000000030080020D1010008CD0400089904000840
:100010009D0400087D030008231100080000000073
:100020000000000000000000000000006D06000855
:100030008103000800000000550500088107000842
:10004000EB010008EB010008EB010008EB010008E0
:10005000EB010008EB010008EB010008EB010008D0
:10006000EB010008EB010008EB010008EB010008C0
:10007000EB010008EB010008EB010008EB010008B0
:10008000EB010008EB010008EB010008EB010008A0
:10009000EB010008EB010008EB010008EB01000890
:1000A000EB010008EB010008EB010008EB01000880
:1000B000250A0008EB010008EB010008EB0100082D
:1000C000EB010008EB010008EB010008EB01000860
:1000D000EB010008010F0008EB010008EB0100082C
:1000E000EB010008EB010008EB010008EB01000840
:1000F000EB010008EB010008EB010008EB01000830
:10010000EB010008EB010008EB010008EB0100081F
:10011000EB010008EB010008EB010008EB0100080F
:10012000EB010008EB010008EB010008EB010008FF
:1001300000F002F800F03CF80AA090E8000C8244BD
:100140008344AAF10107DA4501D100F031F8AFF29A
:10015000090EBAE80F0013F0010F18BFFB1A43F0A5
:1001600001031847842D0000A42D0000103A24BF7D
:1001700078C878C1FAD8520724BF30C830C144BF0C
:1001800004680C607047000000230024002500264E
:10019000103A28BF78C1FBD8520728BF30C148BFEA
:1001A0000B607047002070471FB51FBD10B510BD14
:1001B00000F0B6F81146FFF7F7FF01F0CDFD00F0B3
:1001C000D4F803B4FFF7F2FF03BC01F0E1FA00003A
:1001D0000948804709480047FEE7FEE7FEE7FEE7DB
:1001E000FEE7FEE7FEE7FEE7FEE7FEE70448054917
:1001F000054A064B704700008507000831010008DA
:10020000300200203008002030040020300400209C
:10021000704700000FB4044910B503AA029800F01B
:1002200049F810BC5DF814FB180000202DE9F041DE
:100230000E460446002020622046E168884730B31D
:10024000252805D0D4E901219047206A401CF2E717
:10025000E168204600278847050018D0A5F1410035
:10026000192802D820354FF4006732462946204627
:100270002760FFF797FF40B1012804D0F61D26F054
:1002800007060836D8E7361DD6E72846DAE7206A9B
:10029000BDE8F081704770477047704710B500F0B7
:1002A0001BF8006810BD10B5044600F015F8046096
:1002B00010BD0000074B70B50D467B4400F015F8EB
:1002C0000446284600F024F810B14FF0FF3070BD0E
:1002D000204670BD7F1A000000487047CC01002006
:1002E00001694A1C02610878704700B58FB0CDE9FA
:1002F00001310021059105497944CDE903101146EA
:100300006846FFF793FF0FB000BD0000E5FFFFFF59
:10031000007B00F08000704700487047CC0100204F
:100320007546FFF7F9FFAE4605006946534620F0D3
:100330000700854618B020B5FFF758FFBDE82040FC
:100340004FF000064FF000074FF000084FF0000B91
:1003500021F00701AC46ACE8C009ACE8C009ACE844
:10036000C009ACE8C0098D46704710B50446AFF32C
:1003700000802046BDE81040FFF723BF00BFFEE726
:1003800070472DE9F0410246002500260020002399
:100390000024002791F803C00CF00F0591F803C06A
:1003A0000CF0100CBCF1000F03D091F802C04CEA25
:1003B000050591F800C0BCF1000F31D01468002091
:1003C0002BE04FF0010C0CFA00F3B1F800C00CEA7E
:1003D00003069E4220D183004FF00F0C0CFA03F766
:1003E000BC4305FA03FC4CEA040491F803C0BCF1D9
:1003F000280F06D14FF0010C0CFA00FCC2F814C013
:100400000AE091F803C0BCF1480F05D14FF0010C90
:100410000CFA00FCC2F810C0401C0828D1D31460AC
:10042000B1F800C0BCF1FF0F34DD546800202EE0AD
:1004300000F1080C4FF0010808FA0CF3B1F800C005
:100440000CEA03069E4221D183004FF00F0C0CFAF8
:1004500003F7BC4305FA03FC4CEA040491F803C01B
:10046000BCF1280F05D100F1080C08FA0CF8C2F80D
:10047000148091F803C0BCF1480F07D100F1080CBB
:100480004FF0010808FA0CF8C2F81080401C082848
:10049000CED35460BDE8F08100BFFEE700BFFEE7A9
:1004A00008B50121402000F067F84FF47C40ADF81A
:1004B000000010208DF8030003208DF8020069462B
:1004C0000148FFF75EFF08BD0018014070470000BB
:1004D00070B5002100230F22C47804B3154C2468A2
:1004E00004F4E064C4F5E064210AC1F10403CA40E5
:1004F000447804FA03F184781440214309010E4C36
:100500000678A155047804F01F050124AC40057855
:100510006D11AD0005F1E025C5F8004109E0047852
:1005200004F01F050124AC40044D0678761145F80F
:10053000264070BD0CED00E000E400E080E100E04A
:1005400002490143024A1160704700000000FA05A9
:100550000CED00E07047000029B1064AD269024361
:10056000044BDA6104E0034AD2698243014BDA6149
:10057000704700000010024029B1064A9269024308
:10058000044B9A6104E0034A92698243014B9A61E9
:10059000704700000010024030B500210022002406
:1005A00000232D4D6D6805F00C0121B1042905D003
:1005B000082923D105E0294D056022E0274D05607B
:1005C0001FE0254D6D6805F47012234D6D6805F42C
:1005D0008034022505EB92421CB9214D554305603C
:1005E0000BE01D4D6D6805F400351DB11C4D5543E4
:1005F000056002E0194D5543056002E0174D0560A6
:1006000000BF00BF144D6D6805F0F0010909154DDC
:100610006B5C0568DD4045600F4D6D6805F4E06179
:10062000090A104D6B5C4568DD4085600A4D6D68B8
:1006300005F46051C90A0B4D6B5C4568DD40C5602F
:10064000054D6D6805F44041890B074D6B5CC5682D
:10065000B5FBF3F5056130BD0010024000127A00D1
:1006600000093D001E0000202E000020704710B53C
:1006700000F002F810BD00000CB5002001900090C1
:100680003348006840F480303149086000BF30488A
:10069000006800F4003000900198401C0190009820
:1006A00018B90198B0F5A06FF1D12948006800F49D
:1006B000003010B10120009001E00020009000986F
:1006C000012843D12348006840F010002149086008
:1006D0000846006820F0030008600846006840F003
:1006E000020008601A484068194948600846406896
:1006F00048600846406840F48060486008464068AA
:1007000020F47C1048600846406840F4E8104860D7
:100710000846006840F08070086000BF0C48006820
:1007200000F000700028F9D00948406820F003006C
:10073000074948600846406840F00200486000BF32
:100740000348406800F00C000828F9D10CBD0000F7
:100750000010024000200240042808D14FF0E021A0
:10076000096941F004014FF0E022116107E04FF008
:10077000E021096921F004014FF0E0221161704786
:100780007047000010B51348006840F0010011499F
:10079000086008464068104908400E49486008460D
:1007A00000680E4908400B4908600846006820F4BC
:1007B000802008600846406820F4FE0048604FF43E
:1007C0001F008860FFF753FF4FF000600449086086
:1007D00010BD0000001002400000FFF8FFFFF6FE11
:1007E00008ED00E0F0B50C46154600220021068C0D
:1007F0004FF6FE773E400684028B018C4FF60C7656
:1008000032407E1C06EA03162E433243104EB0429D
:100810000ED0104EB0420BD0B0F1804F08D00E4E2B
:10082000B04205D00D4EB04202D00D4EB04206D1BE
:100830004FF6FD76314044F00106314305E04FF6B6
:10084000F576314044F00106314302830184F0BD66
:10085000002C01400034014000040040000800402A
:10086000000C0040F0B50C46154600220021002681
:10087000078C4FF6EF7C07EA0C070784028B018C8C
:100880004FF6FF7707EA041640F6FF473A404FF667
:10089000FF7707EA03373A434FF6FF7707EA052762
:1008A0003A43114FB8420ED0104FB8420BD0B0F1BE
:1008B000804F08D00E4FB84205D00E4FB84202D03C
:1008C0000D4FB84206D14FF6DF77394046F010079A
:1008D000394305E04FF65F77394044F0100739435C
:1008E00002830184F0BD0000002C0140003401406F
:1008F0000004004000080040000C0040F0B50C4629
:100900001546002200210026078C4FF6FF6C07EAEF
:100910000C070784828B018C4FF6FF7707EA0426C9
:100920004FF60C773A404FF6FF7707EA03172F434D
:100930003A43114FB8420ED0104FB8420BD0B0F12D
:10094000804F08D00E4FB84205D00E4FB84202D0AB
:100950000D4FB84206D14FF6FF57394046F4807725
:10096000394305E04FF2FF57394044F4807739436B
:1009700082830184F0BD0000002C0140003401405E
:100980000004004000080040000C0040F0B50C4698
:100990001546002200210026078C4EF6FF7C07EA50
:1009A0000C070784828B018C4FF6FF7707EA043629
:1009B00040F6FF473A404FF6FF7707EA05273A43EC
:1009C0004FF6FF7707EA03373A43114FB8420ED08C
:1009D000104FB8420BD0B0F1804F08D00E4FB84244
:1009E00005D00E4FB84202D00D4FB84206D14DF699
:1009F000FF77394046F48057394305E047F6FF5703
:100A0000394044F48057394382830184F0BD0000AB
:100A1000002C014000340140000400400008004068
:100A2000000C004010B50121880700F05DF8012896
:100A300004D105480088401C03490880012188072B
:100A400000F013F810BD00003A00002021B1028828
:100A500042F08002028004E002884FF67F731A4061
:100A600002807047CA4302827047CA4302827047BD
:100A700021B1028842F00102028004E002884FF6B0
:100A8000FE731A400280704731B1B0F8442042F43E
:100A90000042A0F8442005E0B0F84420C2F30E0262
:100AA000A0F844207047F0B50C4615461E460021BC
:100AB000002200230189028B038C4FF6F87739401E
:100AC00021434FF6FC473A4040F201173A434FF6B4
:100AD000DD773B404FF6FF7707EA06172F433B438E
:100AE000018102830384F0BD02460020138A0B407B
:100AF0000BB1012000E000207047000070B50546F2
:100B00000C46244885420ED0234885420BD0B5F1CF
:100B1000804F08D02148854205D02148854202D027
:100B20002048854200D100E000BF208850B92389C9
:100B3000A28861882846FFF755FEE188284600F024
:100B400056F925E0208804280AD12389A2886188E3
:100B50002846FFF787FEE188284600F051F917E0A4
:100B6000208808280AD12389A28861882846FFF7AF
:100B7000C5FEE188284600F050F909E02389A288E3
:100B800061882846FFF702FFE188284600F04EF909
:100B900070BD0000002C0140003401400004004002
:100BA00000080040000C004000210180418001212C
:100BB00081800021C180018170471AB183890B4374
:100BC000838102E083898B438381704770B5002461
:100BD00000220023058C4FF6FE7635400584028CFA
:100BE0008388048B4FF68F752C40B51E2C400D88E2
:100BF0002C43751E2A400D892A434D882A43144DE3
:100C0000A8420BD0134DA84208D0134DA84205D0DE
:100C1000124DA84202D0124DA84213D14FF6F775DB
:100C20002A404D892A434FF6FB752A408D882A4376
:100C30004FF6FF652B404FF6FF552B408D892B4318
:100C4000CD892B4383800483CD888586028470BD43
:100C5000002C0140003401400040014000440140AC
:100C6000004801400A460021018B4FF6F7731940F6
:100C7000114301837047000070B500240022002357
:100C8000058C4FF6EF7635400584028C8388048B03
:100C900048F6FF752C404FF6FF452C400D884FF667
:100CA000FF7606EA05252C434FF6DF752A400D89AD
:100CB00006EA05152A434D8806EA05152A43154D0F
:100CC000A84202D0144DA8421DD14FF67F752A408C
:100CD0004D894FF6FF7606EA05152A434FF6BF7594
:100CE0002A408D8806EA05152A434FF6FF352B402A
:100CF0004FF2FF752B408D8906EA85052B43CD8980
:100D000006EA85052B4383800483CD88058702840A
:100D100070BD0000002C0140003401400A46002153
:100D2000018B4FF2FF7319404FF6FF7303EA022362
:100D3000194301837047000070B50024002200238E
:100D4000058C4FF6FF6635400584028C8388848BC2
:100D50004FF68F752C404FF6FC752C400D882C43B8
:100D60004FF6FF552A400D894FF6FF7606EA052516
:100D70002A434D8806EA05252A43154DA84202D08C
:100D8000144DA8421DD14FF2FF752A404D894FF6F0
:100D9000FF7606EA05252A434FF6FF352A408D885F
:100DA00006EA05252A434EF6FF752B404DF6FF75E2
:100DB0002B408D8906EA05152B43CD8906EA0515DA
:100DC0002B4383808483CD888587028470BD000097
:100DD000002C0140003401400A460021818B4FF66F
:100DE000F773194011438183704781847047028BE8
:100DF0004FF6F3731A400283028B0A430283704753
:100E0000028B4FF2FF331A400283028B4FF6FF73BF
:100E100003EA01231A4302837047828B4FF6F37370
:100E20001A408283828B0A4382837047828B4FF2FF
:100E3000FF331A408283828B4FF6FF7303EA01234C
:100E40001A43828370470000002202881D4B98429B
:100E50000ED01D4B98420BD0B0F1804F08D01B4BE9
:100E6000984205D01A4B984202D01A4B984204D1AE
:100E70004FF68F731A404B881A43174B984207D08E
:100E8000164B984204D04FF6FF431A40CB881A43C2
:100E900002808B8883850B8803850A4B98420BD090
:100EA000094B984208D00E4B984205D00D4B984202
:100EB00002D00D4B984201D10B7A03860123838225
:100EC00070470000002C0140003401400004004045
:100ED00000080040000C00400010004000140040DA
:100EE0000040014000440140004801404FF6FF71BE
:100EF000818000210180C180418001727047000023
:100F000010B540F225511D4800F04AF810B31B48B7
:100F100000F002F9C4B21A48008800F40040C8B9D1
:100F20001748008800F4804060B10A2C03D00020EC
:100F30001349088020E01248008840F4004010491E
:100F4000088019E00D2C06D10D48008840F480403F
:100F50000B49088010E00A480088C0F30D000949D9
:100F60000C5407480088401C054908800846008842
:100F7000C72801DD0020088010BD000000380140B6
:100F80001C0000205000002021B1828942F4005250
:100F9000828104E082894DF6FF731A408281704796
:100FA00070B50246002400230025002040F66A1692
:100FB000B14200D100BFC1F3421501F01F03012669
:100FC00006FA03F3012D02D19689334006E0022D83
:100FD00002D1168A334001E0968A33400C12012672
:100FE00006FA04F41688344013B10CB1012000E075
:100FF000002070BDF0B50346002400260025002027
:1010000040F66A17B94200D100BF1846C1F3421436
:1010100001F01F06012707FA06F5012C01D10C305B
:1010200004E0022C01D1103000E014301AB107683E
:101030002F43076002E00768AF430760F0BD000080
:101040002DE9F04786B005460E460024A24600BFB3
:10105000A1460027B08900B100BF2F462C8A4CF66C
:10106000FF700440F08804432C82AC894EF6F310E4
:101070000440B08831890843718908430443AC8136
:10108000AC8A4FF6FF400440B0890443AC8201A80B
:10109000FFF782FA1F48874202D1DDF810A001E075
:1010A000DDF80CA0A88900F4004040B10AEBCA00AA
:1010B00000EB0A1031684900B0FBF1F807E00AEBD9
:1010C000CA0000EB0A1031688900B0FBF1F8642017
:1010D000B8FBF0F004012009642101FB1089A88904
:1010E00000F4004040B1322000EBC900B0FBF1F049
:1010F00000F00700044308E0322000EB09106421EF
:10110000B0FBF1F000F00F0004432C8106B0BDE805
:10111000F08700000038014001468888C0F30800CD
:10112000704700BFFEE7490050EAC12018BF042005
:101130004A0D18BF40F0010040F2FF72B2EB515F60
:1011400008BF40F00200012808BF052070470000DA
:101150002DE9F74F144694B00021C4E90211159906
:10116000079121F00045C9498D4206DC1599C4E973
:10117000000117B00020BDE8F08FC549DFF814A3C7
:10118000A9423CDD0799C44E0029C44FC44A1599B1
:10119000534619DD01F0E6FA554506D0C14AC24B67
:1011A00001F0E0FAC4E900010AE04FF0D352BE4B6F
:1011B00001F0D8FA32463B4601F0D4FAC4E9000106
:1011C00017B00120BDE8F08F00F060FF554506D054
:1011D000B44AB54B00F05AFFC4E900010AE04FF0F1
:1011E000D352B14B00F052FF32463B4600F04EFF67
:1011F000C4E9000117B04FF0FF30BDE8F08FAB49F4
:10120000A942159978DB21F0004183468846A84A17
:10121000A84B01F09DF90022A74B00F037FF01F029
:101220003DF9099001F069F906460F469C4A53467C
:1012300001F08EF943465A4601F088FA80468A4604
:10124000984A994B3046394601F082F92A0D01251A
:101250000B924246534601F079FA032DC4E900018E
:1012600039D00B98C1F30A51401A05EB45111139D9
:10127000814230DA9148C346784400EB0510CDF83E
:101280000CA00C90D0E900233046394601F060F9FB
:1012900002460B46049106905846039901F062FA03
:1012A00080468A4602460B465846039901F05AFA90
:1012B000049B069A01F056FA83460C98039139462E
:1012C000D0E90223304601F043F95A46039B01F06E
:1012D00049FA6D1CBDE707980028A2BF099817B00E
:1012E000BDE8F08F616881F000416160099817B036
:1012F0004042BDE8F08FFFE784461598C1F3130123
:10130000C0F30A50A0F2F5304FEA601800F01F0653
:10131000C6F12000139000200690079041F4801E33
:1013200005206D4676B1664A08EB00017A4452F812
:10133000213002EB8101B3404A68139922FA01F18E
:10134000194305E05F4908EB0002794451F8221087
:10135000A1FB0E27A1FB0C131A449A4234BF0123B0
:10136000002303EB070A05EB8003D3E901B70F4421
:101370008F4234BF0121002193448B4411B1934526
:1013800002D903E0934501D2012100E00021C3E925
:1013900001B7514445F82010011EA0F10100C1DC45
:1013A0000298059F00F10050800F12900298DDE92D
:1013B0000356800001F0A1F8834628460D9101F004
:1013C000B3F86FF01D0201F0B8FCCDE90E01304614
:1013D00001F0AAF86FF03D0201F0AFFC80468A46AA
:1013E000384601F0A1F86FF05D0201F0A6FC074657
:1013F00042465346119100F049FEDDE90E2300F00C
:1014000045FE5A460D9B00F041FE00250E465A4609
:1014100028460D9B01F0A6F9DDE90E2301F0A2F9A3
:101420004246534601F09EF93A46119B01F08EF96F
:10143000DFF898A0244A534601F08AF80746884608
:10144000234A244B3146284601F082F83A46434667
:1014500000F01CFE074688464FF0A842534631462E
:10146000284601F075F83A46434600F00FFE159AFB
:1014700012F0004F04D0129A81F0004152421292B1
:10148000C4E90001129817B0BDE8F08FFB21E93FD5
:101490007CD90240FB21F93F7370032E8A19A33BCC
:1014A000000040543163621A61B4D03DFB213941E0
:1014B00083C8C96D305FE43F0000E03F7C1B000043
:1014C000F81A0000DA1A0000182D4454FB21F93DE7
:1014D0003326A611460B113C2DE9FF4D21F00048A3
:1014E00007460C46B8F1795F08DA00F0D7FF00280C
:1014F00001BF0020324904B0BDE8F08D3A462346D2
:101500001046194601F024F8054602462D480E46BD
:101510000B460621784400F05DF82A46334601F078
:1015200017F8DDE9022382468B463846214601F052
:101530000FF804460F4652465B462846314601F0F6
:1015400007F822463B4601F00DF907468A464FF060
:10155000FF322846314601F0F0FB1B4A90450ADA7B
:101560003A46534601F0FEF804B00022BDE8F04DC3
:10157000134B01F0EBB8154A4245A8BFA8F500157A
:101580004FF00004B8BF124D22462B4601F0EAF896
:101590000646884622462B460020094901F0E2F81B
:1015A00004460D463A4653463046414601F0DAF8C5
:1015B00004B022462B46BDE8F04D01F0C7B800004C
:1015C0000000F03FB01800003333D33F0000E93F84
:1015D0000000D23F2DE9F0414F1E00EBC701044649
:1015E000D1E9000115461E4637F006020DD02A4605
:1015F000334600F0ADFF7F1E04EBC703D3E90023A1
:1016000000F044FD37F00602F1D1022F25D0042F5F
:1016100013D0062F18BFBDE8F0812A46334600F0EC
:1016200097FFD4E90A2300F031FD2A46334600F043
:101630008FFFD4E9082300F029FD2A46334600F045
:1016400087FFD4E9062300F021FD2A46334600F047
:101650007FFFD4E9042300F019FD2A46334600F049
:1016600077FFD4E9022300F011FD2A46334600F04B
:101670006FFFD4E90023BDE8F04100F007BD000092
:101680002DE9FF4D054621F0004084B00C46B0F135
:10169000795F0BDA2846FFF746FD042808BF00F003
:1016A0006FF8284608B02146BDE8F08D2A460B4663
:1016B000104600F04DFF06460F462A46234600F02E
:1016C00047FF804626488A4632463B4605217844F5
:1016D000FFF780FF83461098029160B3214A224BA6
:1016E0004046514600F034FFCDE900015A464046DD
:1016F0005146029B00F02CFF82468846DDE9060138
:101700004FF0FF3201F019FB5246434601F02AF830
:1017100032463B4600F01CFFDDE9062301F022F8CB
:10172000DDE9002301F01EF808B02A462346BDE893
:10173000F04D01F00BB80B465A463046394600F0E2
:1017400007FF084A084B00F0A1FC4246534600F050
:10175000FFFE08B02A462346BDE8F04D00F096BCD7
:10176000EE170000495555555555C5BF012201F0EA
:10177000E4BA002213461046114600F037BD0000BF
:10178000024A0020110701F0D8BA000001FDFFFF56
:10179000014600BF704700000EB514481449154AB1
:1017A000154BCDE900210290144A1549154800F067
:1017B000FDFA0E4814490F4A144BCDE9002102905E
:1017C0004FF07E520E490F48343000F0EFFA0748D0
:1017D0000749084A0E4BCDE9002102900D4A0B49FA
:1017E0000848683000F0E2FA0EBD00000000204119
:1017F00000002F4400C05A450000A0419A99193FAB
:10180000000020423001002000007A440000F04136
:101810000000C841CDCC4C3E2DE9F04F8BB082A0EA
:10182000FEF7F8FC83480078012808D18248406818
:10183000814908607F480078401C7E4908707E4AD4
:101840001168506801F0D2F9824601F075F88046BF
:101850007A4A7B4B00F07CFE06460022794B00F072
:10186000C5FC044600F0E0FB774908607248016956
:10187000764801F0EFF8044601F05EF8CDE9080182
:101880006D49C86801F058F804460D466E48006876
:1018900001F052F8064600F0F7FA804622462B4641
:1018A00000F056FECDE904016349886801F044F870
:1018B000804689466448006801F03EF8064600F01C
:1018C000CFF881F00041044642464B4600F040FE0E
:1018D000CDE90201DDE9042300F044FFCDE9060172
:1018E000DDE9082300F0D2FB824600F09DFB584959
:1018F000C86051480169554801F0ACF8044601F050
:101900001BF8CDE906014C49C86801F015F80446FA
:101910000D464D48006801F00FF882464D4A4E4B87
:1019200000F0B4FB804600F0AFFA064622462B4694
:1019300000F00EFECDE902013F49886800F0FCFF8F
:1019400004460D464048006800F0F6FF8246414AD2
:10195000414B00F09BFB064600F082F88046224691
:101960002B4600F0F5FDCDE90001DDE9022300F092
:101970008DFBCDE90401DDE9062300F087FBCDE90D
:10198000080100F051FB324908612B4801692F48DA
:1019900001F060F8044600F0CFFFCDE906012649CA
:1019A000C86800F0C9FF04460D462748006800F0EB
:1019B000C3FF8246274A294B00F068FB064600F029
:1019C00063FA804622462B4600F0C2FDCDE90201B3
:1019D0001949886800F0B0FF04460D461A480068AF
:1019E00000F0AAFF80461B4A1C4B00F04FFB064646
:1019F00000F036F8824622462B4600F0A9FDCDE9DC
:101A00000001DDE9022300F041FBCDE90401DDE93D
:101A1000062300F03BFBCDE9080100F005FB0C4973
:101A200048610BB0BDE8F08FC4BFB1EACBD9B6C8EE
:101A300000000000380000203C0000204417415402
:101A4000FB21094000806640340000200000204156
:101A500018010020D8642B3852C1F03F52C1F0BFAA
:101A600000B5244B21F0004287B09A42DCBF00222F
:101A7000134629DD204B9A4208D140B94FF00100AE
:101A8000FEF711FCFFF775FE07B000BD03DBFFF7A3
:101A90006DFE07B000BD02AAFFF75AFB10F003016C
:101AA00004BF0DF1080C9CE80F000DD001200129A6
:101AB0000ED0022914D00DF1080C00909CE80F0004
:101AC000FFF7DEFD07B000BDFFF706FD07B000BD64
:101AD0000DF1080C00909CE80F00FFF7D1FD05E028
:101AE0000DF1080C9CE80F00FFF7F6FC07B081F041
:101AF000004100BDFB21E93F0000F07F10B56FF011
:101B00000400FEF729FE0A4800680A49B0FBF1F01C
:101B1000094908700846007800EB4001C1EBC0108D
:101B20004FF6FF7101EAC0000449088010BD0000B3
:101B30000000002000127A0014000020160000208F
:101B400010B500F005F800F055F800F0A5F810BD4C
:101B500000B587B001210220FEF7FEFC0121042020
:101B6000FEF70AFDC020ADF8000004208DF8030048
:101B700003208DF8020069461C48FEF702FC04A809
:101B8000FFF7B4F90020ADF81600ADF812004FF6DB
:101B9000FF70ADF814000020ADF8100004A914483F
:101BA000FFF752F900231A4603211148FEF77BFF85
:101BB00001A8FEF7F9FF0A20ADF80C0001A90C48B6
:101BC000FEF79CFF01210A48FEF74CFF0122114657
:101BD0000748FEF7F2FF40F6FF710548FFF705F9E9
:101BE00001210348FEF744FF07B000BD0008014093
:101BF0000004004000B587B001210420FEF7ACFCD2
:101C000001210820FEF7B8FCC020ADF80000042038
:101C10008DF8030003208DF8020069461C48FEF78A
:101C2000B0FB04A8FFF762F90020ADF81600ADF88C
:101C300012004FF6FF70ADF814000020ADF8100050
:101C400004A91448FFF700F900231A46032111489C
:101C5000FEF729FF01A8FEF7A7FF0A20ADF80C0048
:101C600001A90C48FEF74AFF01210A48FEF7FAFED7
:101C7000012211460748FEF7A0FF40F6FF71054814
:101C8000FFF7B3F801210348FEF7F2FE07B000BDED
:101C9000000C01400008004000B587B00121082079
:101CA000FEF75AFC01210420FEF766FC0320ADF884
:101CB000000004208DF8030003208DF8020069461F
:101CC0001C48FEF75EFB04A8FFF710F90020ADF8F2
:101CD0001600ADF812004FF6FF70ADF814000020AA
:101CE000ADF8100004A91448FFF7AEF800231A4617
:101CF00003211148FEF7D7FE01A8FEF755FF0A2081
:101D0000ADF80C0001A90C48FEF7F8FE01210A48C5
:101D1000FEF7A8FE012211460748FEF74EFF40F6E7
:101D2000FF710548FFF761F801210348FEF7A0FEA7
:101D300007B000BD00080140000C004000BF054A8C
:101D4000128802F04002002AF9D0C2B2014B1B1DDA
:101D50001A8070470038014010B5FFF7CFFE4FF4EE
:101D6000A060FEF7EDFB4FF4E13000F00DF9FFF756
:101D7000E7FE132148F69F4000F0D6F8002140F618
:101D80000F6000F023F8FEF78BFBFFF705FD054819
:101D9000054988600020C8600861FFF73DFD00200C
:101DA00010BD00000000F0413C000020F0B505AC83
:101DB00070CC0160426083608662456204620027E5
:101DC0008761C761C76007614761F0BD30B589B001
:101DD00005460C4601214803FEF7CEFB01211020E9
:101DE000FEF7CAFB4FF4E070ADF8200003208DF839
:101DF000220018208DF8230008A92148FEF7C1FA17
:101E00000020ADF81A00ADF81600ADF81850ADF886
:101E100014408DF81C0005A91A48FFF715F860203A
:101E2000ADF804000020ADF80E00ADF80A00012066
:101E3000ADF8060001A91348FEF7C8FE01A9114834
:101E4000FEF71AFF01A90F48FEF776FF01210D48A2
:101E5000FEF71AFE08210B48FEF704FF0821094887
:101E6000FEF75CFF08210748FEF7B6FF0121054891
:101E7000FEF7ECFD01210348FEF7FAFD09B030BD85
:101E8000001001400034014000B5254B21F0004214
:101E900087B09A4203DC0022134600922BE0214BCC
:101EA0009A4208D140B94FF00100FEF7FCF9FFF764
:101EB00060FC07B000BD03DBFFF758FC07B000BDB6
:101EC00002AAFFF745F910F003014FF001000DD011
:101ED000012914D002291AD00DF1080C9CE80F003A
:101EE000FFF7FAFA07B081F0004100BD0DF1080CD0
:101EF00000909CE80F00FFF7C3FB07B000BD0DF199
:101F0000080C9CE80F00FFF7E7FA07B000BD0DF1E1
:101F1000080C00909CE80F00FFF7B2FBE2E700001E
:101F2000FB21E93F0000F07F7FB505460C4601210B
:101F30000846FEF711FB0020ADF80A00ADF80600D8
:101F4000ADF80850ADF8044001208DF80C0001A94F
:101F50008007FEF779FF012211469007FEF72DFE5C
:101F60001C208DF8000001208DF8030002208DF860
:101F700001008DF802006846FEF7AAFA01218807E1
:101F8000FEF776FD7FBD000010B586B00446012146
:101F900044F20400FEF7F0FA4FF40070ADF81400BC
:101FA00003208DF8160018208DF8170005A91C488D
:101FB000FEF7E7F94FF48060ADF8140004208DF8C7
:101FC000170005A91648FEF7DCF925208DF800005A
:101FD00003208DF801008DF8020001208DF8030028
:101FE0006846FEF775FA01940020ADF80800ADF8D8
:101FF0000A00ADF80C00ADF810000C20ADF80E0092
:1020000001A90848FFF71CF8012240F225510548B4
:10201000FEF7F0FF01210348FEF7B6FF06B010BD42
:10202000000801400038014021F00042A2F1605256
:10203000B2F5801F01F0004328BFD2F17F6C0BD9AD
:102040005FEA001C43EAC20242EB507018BF7047BF
:1020500028BF20F001007047B2F5801FBCBF1846B2
:1020600070474FEA410C1CF5001F02D2084600F0F1
:10207000B8BD70B500F016FB00000089FFF7F6BF91
:102080004FF00040A0F580007047000010B591EAC5
:10209000030F48BF83F0004300F16C83841A71EB97
:1020A000030C05D2121943EB0C03001B61EB0C016E
:1020B000DFF824E14FEA1154A4EB135C1EEA430F4E
:1020C00018BF9EEA445F73D023EA0E03DCF1200EB2
:1020D00021EA045143F4801332D322FA0CFE10EBB0
:1020E0000E0023FA0CFE41EB0E01CCF1200E03FA98
:1020F0000EFE10EB0E0051F10001B1F5801FCCF186
:10210000200E32D201EB045112FA0EF2BDE810405B
:1021100058BF7047401C38BF5FEA420218BF704783
:10212000002814BF20F0010041F100014FEA4103F3
:1021300013F5001F38BF7047A1F1C04100F000BB8C
:10214000012A43EB0302ACF1200CDCF11F0E32BF7D
:102150004FF0000E23FA0CF310EB030041EB045197
:10216000B4EB115FD0D0A1EB045101F58011490807
:102170005FEA300001EB04510ED350F1000038BF8C
:1021800012FA0EFE08D1BDE81040C9E7401C38BF66
:102190005FEA4202CAD1C3E7BDE810404FEA4103FB
:1021A00013F5001F38BF7047A1F1C04100F0C8BA55
:1021B0009EEA445F08D011EA5E0FBDE8104004BFFC
:1021C00001F0004100207047BDE8104070B500F0FC
:1021D00069FA00BF64FBBE3E0000E0FF02494FF019
:1021E000000000F078BD00BF0000F87F2DE9C0417D
:1021F00030B4DFF8A0C23CEA111418BF3CEA131453
:1022000000F0EC8081EA03051CEA111444EAD5745D
:1022100018BF1CEA131500F0C780A4EB05044FF0AB
:10222000004545EAC12145EAC32341EA505143EA4A
:10223000525304F17F74994204F500344FEAC020F0
:102240004FEAC22208BF904200F09C804FEA13651B
:102250000FF24016765D4FEA134506FB05F7C7F10E
:10226000807706FB07F74FEAD737A7FB036876426C
:10227000C8F58038A7FB06CE38BFA8F1010807FBD8
:1022800008E64FF0000EA6FB028CE6FB03CEDCF165
:10229000000CCEF1004E38BFAEF1010EA6FB0C587B
:1022A0004FF000074FF00005E6FB0E87A1FB08C6C4
:1022B000A0FB07CE16EB0E0645F10005E1FB076516
:1022C00015F1E04E7EBFA4F580345FEA46066D410D
:1022D00016F1800745F100054FEA17274FEA066619
:1022E00047EA0567A6F1DE46B6F1805F4FEA15259D
:1022F0001FD9384624F0010C05EBC471BCF1FE6F08
:1023000001EB0C1102D8F0BCBDE8008124425CBF97
:1023100001F5801E9EEAC47F02D4F0BCBDE80081B6
:10232000244238D4F0BCA1F1C041BDE8004100F026
:1023300007BA4FEAD22242EA43524FEAD323A7FB1D
:1023400002864FEAD02040EA415007FB03661EEAAE
:102350000E0F4FEAD12105FB026658BFA6EB0056CF
:10236000B6EB00564FEA520E4EEAC37E18EB0E0E45
:1023700056EB530EBDD518EB02085E417F1C55F19C
:102380000005B6E74FF480154FF000074FF0000648
:102390004FF00008ADE7F0BC4FF0000001F1C04184
:1023A00001F00041BDE8008111EA0C1F0CEA131591
:1023B00000D00CE013EA0C1F00F025804FF0000065
:1023C000F0BC81EA030101F00041BDE80081F0BCEE
:1023D000BDE8004181EA030100F0B2B9F0BCBDE8FC
:1023E000004170B500F05EF9097EFC3E00F007B8D0
:1023F00081EA03014FF0000001F00041704781EADB
:10240000030100F09DB9F0BCBDE800414FF00000B1
:1024100021497047FFFDFBF9F7F5F4F2F0EEEDEB23
:10242000E9E8E6E4E3E1E0DEDDDBDAD8D7D5D4D3D2
:10243000D1D0CFCDCCCBCAC8C7C6C5C4C2C1C0BF1E
:10244000BEBDBCBBBAB9B8B7B6B5B4B3B2B1B0AF24
:10245000AEADACABAAA9A8A8A7A6A5A4A3A3A2A108
:10246000A09F9F9E9D9C9C9B9A99999897979695C3
:1024700095949393929191908F8F8E8E8D8C8C8B5F
:102480008B8A8989888887878685858484838382E7
:10249000828181800000FF070000F87F4FEA41033E
:1024A0004FEA5353A3F58063D3F11E03C8BFD3F1A2
:1024B000210C0CDD4FF0004242EAC12242EA5052A8
:1024C00032FA03FC8CEAE17CACEBE1707047102B34
:1024D000C4BF0020704703F5787CBCF1FF3F04D0F7
:1024E0006FF0004282EA2100704770B500F0DAF820
:1024F0004992248000207047F2E710F0004248BF64
:102500004042B0FA80F310FA03F10AD0C3F11D0380
:1025100003F580634FEA415002EB035202EBD121F5
:1025200070474FF000007047B0FA80F310FA03F1E3
:102530000AD0C3F11D0303F580634FEA41504FEA0F
:10254000035202EBD12170474FF0000070470000AA
:10255000DFF848C170B51CEA111E1EBF1CEA131536
:102560009EEA0C0F95EA0C0F00F06F8081EA0304DD
:1025700023EA4C134EEAD47E21EA4C1141F4801137
:1025800043F48013AE44A1FB024CA0FB0365AEF103
:102590007F7E361955EB0C05A1FB034C4CF1000373
:1025A000A0FB021C16EB0C06654153F10003094227
:1025B00018BF46F0010613F4007F0BD14FEA033138
:1025C0004FEA0530340341EA155140EA16506FF0E6
:1025D00003020AE04FEAC3214FEAC520F40241EAB0
:1025E000555140EA56506FF0020202EB2E4201EBC9
:1025F000025585EACE710AD05FEA440C18BF24F078
:10260000004450F1000041F1000120EAD47040F292
:10261000FE7C624500D270BDA84214BF4FF08044DA
:102620004FF04044002E08BF0024BEF1806FA8BFC9
:10263000A1F1C041BDE8704080F282804FF00000FF
:1026400001F1C04101F0004170479EEA0C0F0CEA15
:10265000131518BF95EA0C0F06D04FF0000081EA61
:10266000030E0EF0004170BD00F01CF88900013E21
:1026700000F007B800F009B84FEA430C5FEA5C5C71
:1026800008D081EA030100F05BB84FEA410C5FEA31
:102690005C5CF6D14FF00000014970470000FF0775
:1026A0000000F87F0EF1020E2EF0030E5EF8046BB0
:1026B000364205D4012A43EB030515F5001F12D855
:1026C000012841EB010C1CF5001F0CD80ED14FEA7C
:1026D000D17C15F5001F0CEB4C0C0CF1020C08BF63
:1026E0004CEBD37C04E04FF0080C01E04FEAD37CC4
:1026F0000CEB4C0526FA05F606F00706B6F1040CBD
:1027000006D20EEB860CBDE870404CF0010C604721
:10271000DFE80CF0090B02024FF000414FF000001F
:10272000A1F5002170BD19461046012851EB0104A6
:1027300018BFD4F5001484BF002001F0004170BD23
:102740000808A0F500114FEA3101704791EA030F24
:1027500010B581F000413FF5A1AC83F0004300F0DB
:1027600009B8000010B591EA030F48BF83F0004399
:102770003FF594AC841A71EB030C07D212198CF05C
:10278000004C43EB0C03001B61EB0C01DFF8A4E1F0
:102790004FEA1154A4EB135C1EEA430F18BF9EEAE4
:1027A000445F00F0B08023EA6E03524221EA0451F4
:1027B000C3EB6E0338BF5B1EDCF1200E25D322FA7B
:1027C0000CFE10EB0E0043FA0CFE41EB0E01CCF1B7
:1027D000200E03FA0EFE10EB0E0051F10001CCF1B9
:1027E000200E29D412FA0EF201EB0451BDE810407C
:1027F00058BF7047401C1CBFB2F1004F7047002803
:102800000CBF491C20F00100704712EB020E43EB95
:10281000030218BF4FF0010E4EEA4202ACF1200C49
:10282000DCF11E0E54D943FA0CFE10EB0E0051F1F0
:10283000FF31CCF11E0ED5D50EF1010E12FA0EFEAF
:10284000404141EB010101EB445C5FEA5C5C10D963
:1028500010EBDE7001EB045138BFBEF1004FBDE854
:10286000104018BF704700280CBF491C20F0010021
:10287000704730D24FEAD42C11F5001124F40064D3
:102880001BD0B1FA81F20B3AA41AA41ED2F1200394
:10289000914030FA03F31943904001EBCC71002CC6
:1028A00001EB0451BDE81040A8BF704701F1C041E1
:1028B0004FF0000001F000417047B0FA80F310FAC9
:1028C00003F100D110BDE41A173C4805C90AE4E73A
:1028D00001EB045110BD491001EB0451BDE810405B
:1028E0004FEA300002E04FF0000170474A0008BF95
:1028F0000042F8D0B2F5001F28BF704701F0004138
:102900004FF0000070479EEA445F07D011EA5E0F67
:10291000BDE8104004BF002100207047BDE8104012
:1029200070B5FFF7BFFE00BF40DFF63E83F0004109
:10293000104670470000E0FF43004FEAD30C4FEA17
:102940003C0C43401FBF40070CF1605113F0FE4F99
:1029500070471CF0006F03D100200CF0004170475D
:102960000CF0004343EA507010B540EACC0000F090
:10297000F2F800BF000000924FEA0001FFF7E0BE4E
:102980004FF000414FF00000A1F50021704700001A
:1029900090EA010F48BF81F0004100F12E81421AF8
:1029A0003CBF801A89184FEAD0524FF07F4C1CEA86
:1029B000410FA2EBD15318BF9CEA026F00F03B809D
:1029C0004FF0004C4CEA00204CEA012121FA03FCB4
:1029D00010EB0C0C1ED202F1FF325FEA1C2040EB20
:1029E000C25038BF70471CF07F0F4FEA400C18BF31
:1029F000BCF17F4F38BF7047C3F12003994008BF37
:102A000020F00100BCF17F4F38BF7047A0F1C040FB
:102A100000F0E7B84FEA3C00000A40EBC25028BF84
:102A20001CF0FF0F4FEA400CE6D018BFBCF17F4FFF
:102A300038BF7047EAE79CEA026F05D010EA5C0FE6
:102A400008BF00F00040704710B500F084F800BFE8
:102A500064FBBE3E4FF47F0C1CEAD0121EBF1CEA82
:102A6000D11392EA0C0F93EA0C0F00F0478090EA22
:102A7000010F48BF42F480724FF0004C4CEA002036
:102A80004CEA012102EB0302A0FB0113A2F50002B4
:102A9000002918BF43F001035B0028BF4FEA33034E
:102AA00042EB22425FEA132C4CEBC2502EBFBCEB30
:102AB000436FB2F57C0F70474FEA036CBCF1004FD7
:102AC00008BF20F00100B2F57C0F38BF70470BD56E
:102AD00082F0FF0212F5803FC8BF704700F1C0408E
:102AE000D8BF00F00040704700F5000C5FEA4C0CC6
:102AF00048BF7047B0F1C04000F073B890EA010FD2
:102B00000CEAD11348BF42F48072624538BF634576
:102B100004D280EA010000F00040704710B500F0D8
:102B20001AF800BF8900013E00F007B800F009B8AC
:102B30005FEA410C5FEA1C6C08D080EA010000F0FB
:102B400050B85FEA400C5FEA1C6CF6D14FF00040D1
:102B5000A0F5800070470EF1020E2EF0030E5EF815
:102B6000044B244204D44FEA4102B2F17F4F11D802
:102B70004FEA4003B3F17F4F0CD80ED14FEAD07C1F
:102B8000B2F17F4F0CEB4C0C0CF1020C08BF4CEB7C
:102B9000D17C04E04FF0080C01E04FEAD17C0CEB53
:102BA0004C0324FA03F404F00704B4F1040C06D235
:102BB0000EEB840CBDE810404CF0010C6047DFE8E0
:102BC0000CF0070802024FF00040A0F5800010BD95
:102BD0000846420018BFD2F1807288BF00F0004062
:102BE00010BDFF2141EAD050C005704790EA010FA7
:102BF00048BF81F000413FF5D2AE421A04D882F0BE
:102C00000042A0EB020011444FEAD0524FF07F4C3B
:102C10001CEA410FA2EBD15318BF9CEA026F4AD0C5
:102C20004FF0004C4CEA00204CEA012121FA03FC51
:102C3000B0EB0C0C0FD412F0FE0F36D05FEA4C0054
:102C40001DD5001240EBC25038BF70471CF03F0F3B
:102C500018BF70470BE0A2F101025FEA1C2040EBB5
:102C6000C25038BF70471CF07F0F18BF7047C3F1C8
:102C70002003994014BF401E20F0010070478008D7
:102C80004FEA122308BF7047B0FA80FCA2EB0C0297
:102C9000CCF1280C60FA0CF093EA122F04BF00EB81
:102CA000C25070474FEAC3707047130A5FEADC10E6
:102CB00008BF7047F6E79CEA026F04D010EA5C0F89
:102CC00008BF0020704710B5FFF745FF40DFF63E14
:102CD00081F0004070470CF00F03092B08BF08205B
:102CE00000F059800A2B0BD0082B18BF704708BF83
:102CF0001CF0400F0AD04FF000004FF00001704769
:102D00001CF0400F18BF4FF0004070471CF0100F30
:102D100008D020F0704300F07F4242EAD3014FEA2E
:102D20004370704700F0604021F07F4242EA0002A9
:102D300001F07F4040EA727070474FF0FF0C4CF496
:102D4000E06C1CEA11531CBF9CEA030C9445C2BF03
:102D5000DA4201EB02517047002B0DD0BCF1000F9D
:102D60000FD0002A01F00041A4BF41F0E04141F042
:102D70007F614FF00000704701F000414FF000000C
:102D8000704750EA01334FF09B0C18BF4CF0806C39
:102D90007FF424AA70471CF4801F11D01CF4E02F8C
:102DA00003D06FEACC31490070474FF04050EFF349
:102DB000008222F0704242EA000282F300887047EB
:102DC0004FF00000704700004C5555555555A53F34
:102DD0007751C1166CC156BF9015CB19A001FA3EB0
:102DE000AD529C804F7E92BEC4B1B4BD9EEE213EDA
:102DF000D43888BEE9FAA8BD00004054FB21F93F51
:102E00003163621A61B4D03D0000601A61B4D03DF4
:102E10007370032E8A19A33B0000002E8A19A33B6E
:102E2000C14920259A837B39000000000000000082
:102E30006E83F9A22915444ED15727FCC0DD34F525
:102E4000999562DB4190433CAB6351FE61C5BBDEAB
:102E50003A6E24B7E0D24D42EA2E49061C92D109BF
:102E60001CEB1DFE3EA729B1F53582E88444BB2E3C
:102E700026709CE9417E5FB439D69139F439538389
:102E80008B5F849C3B28F9BDFF97F81F0F9805DEE8
:102E90008B112FEF1F6D0A5ACF7E366DB709CB27E6
:102EA000663F464F2DEA5F9EC7BA27757BF1E5EB7B
:102EB000F739073DEA92528AB15FFB6B085D8D1FBF
:102EC000A6F810111111813FD561C119A0012ABFC7
:102ED0007DFEB157E31DC73EEB9C2B8AE6E55ABE4B
:102EE0007CD5CF5A3AD9E53D082F000800000020D4
:102EF0003C0000006C010008442F00083C0000204A
:102F0000F40700008801000800A24A040000000045
:102F10000000000001020304060708090000000089
:102F20000000000000000000000001020304010294
:102F30000304060708090204060800000000000058
:042F4000010000008C
:04000005080001D11D
:00000001FF
