:020000040800F2
:1000000030080020E5010008911300085D13000886
:1000100061130008B5110008E71F00080000000088
:100020000000000000000000000000003115000882
:1000300045120008000000001914000845160008C9
:10004000FF010008FF010008FF010008FF01000890
:10005000FF010008FF010008FF010008FF01000880
:10006000FF010008FF010008FF010008FF01000870
:10007000FF010008FF010008FF010008FF01000860
:10008000FF010008FF010008FF010008FF01000850
:10009000FF010008FF010008FF010008FF01000840
:1000A000FF010008FF010008FF010008FF01000830
:1000B000E9180008FF010008FF010008FF0100081F
:1000C000FF010008FF010008FF010008FF01000810
:1000D000FF010008C51D0008FF010008FF0100081E
:1000E000FF010008FF010008FF010008FF010008F0
:1000F000FF010008FF010008FF010008FF010008E0
:10010000FF010008FF010008FF010008FF010008CF
:10011000FF010008FF010008FF010008FF010008BF
:10012000FF010008FF010008FF010008FF010008AF
:1001300000F002F800F047F80AA090E8000C8244B2
:100140008344AAF10107DA4501D100F03CF8AFF28F
:10015000090EBAE80F0013F0010F18BFFB1A43F0A5
:10016000010318470044000020440000103A24BF57
:1001700078C878C1FAD8520724BF30C830C144BF0C
:1001800004680C607047000000230024002500264E
:10019000103A28BF78C1FBD8520728BF30C148BFEA
:1001A0000B607047662904F02C80002070471FB553
:1001B00000F0AAFA04000020002103F0BBF8E06080
:1001C0001FBD10B510BD00F0BFFB1146FFF7EFFFDC
:1001D00002F08AFD00F0DDFB03B4FFF7F2FF03BC81
:1001E00002F038FA0948804709480047FEE7FEE771
:1001F000FEE7FEE7FEE7FEE7FEE7FEE7FEE7FEE7D7
:1002000004480549054A064B704700004916000896
:1002100031010008300200203008002030040020A6
:1002200030040020704700000FB4044910B503AA41
:10023000029800F057FA10BC5DF814FB180000207B
:100240002DE9F0410E460446002020622046E16878
:10025000884730B3252805D0D4E901219047206A8A
:10026000401CF2E7E168204600278847050018D0C7
:10027000A5F14100192802D820354FF40067324615
:10028000294620462760FFF78DFF40B1012804D0A2
:10029000F61D26F007060836D8E7361DD6E72846AD
:1002A000DAE7206ABDE8F081704770477047704711
:1002B00010B500F02DFA006810BD10B5044600F02E
:1002C00027FA046010BD70472DE9FF4F0C461E460B
:1002D0004FF0FF378BB0D2E90001DDF860800A9063
:1002E0008A46C1F30A5505B93D46002108464FF03C
:1002F0000000BAF1000F00F4400005DA00EB8000C6
:100300004FF4400101EA50004FEA9059B9F1010F52
:1003100000DDB9460A9850EA4A000ED044F6105063
:10032000A5F2FF3545432F14B8F1000F1ED07542DA
:10033000291E1EDDC9F100021CE0B8F1010F4FF0CB
:10034000000001D0302103E0F24305E02154401CBD
:10035000B042FBDB30460022002121540B99C1F84A
:100360000880C1E900200FB0BDE8F08FBD1B6D1CF7
:10037000DEE74A4600DA694206A800F06BFA06ABEF
:1003800093E8070003AB83E8070050460A9900F0A2
:1003900049FB8DE80700A0F500501F380090039836
:1003A000002D0ADD42F21F014A460844002303A93A
:1003B0000390684600F0B2FD09E0A0F500504A46FF
:1003C0001F38002303A90390684600F0BCFD8DE8A8
:1003D00007000004000C03D04FF0FF30410800E09C
:1003E0001046B8F1000F03D00022009215461EE01F
:1003F000751E05D400F090F9303262556D1EF9D5A6
:10040000B3460122084302D000227F1C04E020787A
:10041000302801D100227F1E002A099784D01DE0D8
:10042000112D07DA00F078F9303262556D1C50EA70
:100430000102F5D1084302D00098C8B10EE00021B6
:10044000681E05E0235C625C63542254401E491C14
:100450008142F7DBAB46A81B401E0990002004F840
:100460000B000B98099AC0F80880C0E9002B7AE7C6
:1004700011264FF0000857E72DE9F04F8846044653
:10048000D21D22F0070191B0D1E90001CDE90A01A6
:1004900001F0ABFD02460B98C00F01D02D2007E004
:1004A0002068810701D52B2002E0202101EAC0004D
:1004B000032A099001D0072A05DB0346414620465E
:1004C00000F088F90BE12078800601D5E06900E0B2
:1004D0000620B8F1650F814606D0B8F1660F18D036
:1004E000B8F1670F70D131E00020B9F1110F009021
:1004F00001DB112301E009F101030AAA01A90CA8FB
:10050000FFF7E2FEDDE90C70002609F101058346E4
:1005100047E001204B4600904FF000470AAA01A98E
:100520000CA8FFF7D1FEDDE90DB00C995D46002661
:1005300010B909F101000D18B9EB050003D4C0F1A1
:10054000FF3609F10105A5EB09002BE0B9F1010F18
:1005500001DA4FF001090020B9F1110F009048466F
:1005600001DD112300E003460AAA01A90CA8FFF748
:10057000ABFEDDE90C704D4600268346207800076F
:100580000AD4AB4500DA5D4601A8012D04DD41190E
:1005900011F8011C302907D04F4502DA17F1040F7A
:1005A00004DA012082460FE06D1EEEE7002F02DC28
:1005B000ED1B3E4403E0781CA84200DD7D1CB81B07
:1005C00000F1010A4FF000472078000703D4AA4544
:1005D00001DB4FF0FF3A0021B7F1004F0DF1430866
:1005E0008DF8431024D002202B23002F01DA7F4204
:1005F0002D230A21021EA0F1010000DC5FB197FB50
:10060000F1FC97FBF1F201FB1C7C17460CF1300C5E
:1006100008F801CDEEE7A8F1010003702188090573
:1006200001D5452100E06521A0F1010800F8011C79
:1006300009980FA9A1EB0807FF1D00B1012041197E
:1006400001EBEA70A1693844081A401EA0612078C5
:10065000C00602D42046AFF30080099828B1D4E93F
:1006600001219047206A401C20622078C00622D5D4
:100670002046AFF300801EE0002E04DBB34502DD10
:1006800001A8805D00E03020D4E901219047206A74
:10069000401C2062761CAAF101005FEA000A0AD120
:1006A00000F032F8C0680168405CD4E9012190474D
:1006B000206A401C2062281EA5F10105DCDC07E051
:1006C000D4E9012118F8010B9047206A401C2062F0
:1006D000381EA7F10107F3DC2046AFF300800320AA
:1006E00011B041E6074B70B50D467B4400F05FF852
:1006F0000446284600F020F910B14FF0FF3070BDDD
:10070000204670BDB325000000487047EC01002072
:1007100000487047CC01002030B5B0F10A024FEA22
:10072000900E71F100034EEA817EB0EB0E0061EB9A
:1007300091014FEA101E4EEA017E10EB0E0041EBD4
:1007400011114FEA102E4EEA016E10EB0E0041EB34
:1007500011214FEA104E4EEA014E10EB0E0041EB14
:100760001141401841F100014FEAD00040EA4170C8
:100770004FEAD10110EB80054FEA810444EA9074FE
:1007800044EB01046D1944EB0404521BA3414FF0E8
:10079000000348BF0A3200D530BD401C41F10001C2
:1007A00030BD000001694A1C02610878704700B53D
:1007B0008FB0CDE901310021059105497944CDE99A
:1007C000031011466846FFF73BFD0FB000BD000067
:1007D000E5FFFFFF2DE9F0411F46044603260168AF
:1007E000072A01F4006004DB08B116A505E016A590
:1007F00003E008B115A500E015A521F01000206068
:10080000A069C01EA0610FB1401EA0612046AFF3D9
:1008100000804FB1D4E9012138469047206A401C3E
:100820002062C01C206206E0206AFAE7D4E90121B8
:1008300015F8010B9047761EF8D22046AFF30080E2
:10084000BDE8F0814E414E006E616E00494E46009B
:10085000696E66002DE9F047814616468AB0354834
:1008600078440DC88DE80D0032487844801C03ACF4
:100870000DC884E80D0041F69B300844372190FBF9
:10088000F1F290FBF1F5A5F1800501FB12041B3C90
:1008900002D56442012000E00020DFF898A08046E5
:1008A0000027FA44AAF1BE0A0EE0E0070AD0324659
:1008B000684607EB470101230AEB810100F043FB87
:1008C0008DE8070064107F1C002CEED1194F7F4487
:1008D000AE3F19E0E80715D007EB04100DF1180A38
:1008E00090E80E008AE80E00C068F04201D1981925
:1008F00008903246012306A903A800F024FB03ABAD
:1009000083E807006D10641C002DE3D14FF0010354
:1009100032466946B8F1000F03A802D000F0FEFA93
:1009200001E000F010FBC9E90001C9F808200AB095
:10093000BDE8F087303C0000007B00F0800070478D
:1009400000487047CC0100207546FFF7F9FFAE461E
:1009500005006946534620F00700854618B020B5CB
:10096000FFF74EFCBDE820404FF000064FF00007B7
:100970004FF000084FF0000B21F00701AC46ACE847
:10098000C009ACE8C009ACE8C009ACE8C0098D46B4
:10099000704710B50446AFF300802046BDE8104014
:1009A000FFF71ABC4FF0013C50F8042B51F8043B00
:1009B0009A4221D1A2EB0C03934313EACC1317D133
:1009C00050F8042B51F8043B9A4215D1A2EB0C03CA
:1009D000934313EACC130BD150F8042B51F8043B8A
:1009E0009A4209D1A2EB0C03934313EACC13DBD058
:1009F0004FF00000704700BFD01A01BAB1FA81F180
:100A000001F0180122FA01F0CB40C1F12001DBB264
:100A1000C0B2C01A2CFA01F3D11A914311EAC311E2
:100A2000E6D170475FEA400C08BF91F0000F4FEA33
:100A30008C234FEAC12243EA51514FEA1C5018BFA0
:100A400000F5F0404FEA300018BF41F000415FEA86
:100A50006C5C00F02980BCF1FF3F08BF40F0804093
:100A60007047130C06BF12044FF0100C4FF0000C2F
:100A7000130E04BF12020CF1080C130F04BF120175
:100A80000CF1040C930F04BF92000CF1020CD30F75
:100A900004BF52000CF1010C11464FF00002A0F10E
:100AA0001F00A0EB0C00704711F0004F08BF70470B
:100AB00031F000413FF4D5AF0B0C06BF09044FF0F5
:100AC000100C4FF0000C0B0E04BF09020CF1080CC7
:100AD0000B0F04BF09010CF1040C8B0F04BF89003C
:100AE0000CF1020CCB0F04BF49000CF1010CCCF14E
:100AF0002003A0EB0C0022FA03F302FA0CF241EA05
:100B0000030100F10100704720F07F4C80EA0300F0
:100B100023F07F47ACEB070303F57C5300F0004064
:100B200003F1FF032DE980494FEA154B09B44FEA61
:100B3000144325EA0B4E24EA03480FF2042606EB81
:100B4000132749083E785FEA320203FB0667C7F5C0
:100B5000000707FB06F64FEA54374FEAD64606F180
:100B6000020607FB066CCCF1005C4FEA1C472CEA3E
:100B7000074C07FB06F40CFB06F504EB15464FEAA1
:100B8000961634BF00204FF000404FEAD13706FBE5
:100B900007FC4FEA1C4C0CFB0BF7D21B03FB0CF7BA
:100BA00061EB07010CFB0EF7B0EB074072EB17424D
:100BB0000CFB08F734BFA2EB0742B2EB074261EB34
:100BC00017414FEA0C444FEA910706FB07FC4FEA36
:100BD0001C4C0CFB0BF7B0EBC74072EB573203FB1E
:100BE0000CF734BFA2EBC742B2EBC74261EB5731FF
:100BF0000CFB0EF7B0EBC70072EB57720CFB08F75B
:100C000034BFA2EBC702B2EBC70261EB5771039F7F
:100C10004FEA816141EA921104EBCC044FEAD137EB
:100C20004FEA826206FB07FC42EA90124FEA8060BC
:100C30004FEA1C4C0CFB0BF7D21B03FB0CF761EBD0
:100C400007010CFB0EF7B0EB074072EB17420CFBF1
:100C500008F734BFA2EB0742B2EB074261EB174142
:100C60004FEA8C554FEA910704EB9C2406FB07FCE6
:100C70004FEA1C4C0CFB0BF7B0EBC74072EB573242
:100C800003FB0CF734BFA2EBC742B2EBC74261EBE8
:100C900057310CFB0EF7B0EBC70072EB57720CFB31
:100CA00008F734BFA2EBC702B2EBC70261EB577182
:100CB00015EB4C254FEA816141EA92114FEA8262BD
:100CC0004FEAD13742EA901206FB07FC44F10004D8
:100CD0004FEA80604FEA1C4C0CFB0BF7D21B03FB66
:100CE0000CF761EB07010CFB0EF7B0EB074072EB62
:100CF00017420CFB08F734BFA2EB0742B2EB0742E6
:100D000061EB174115EB1C154FEA813141EA924125
:100D10004FEA823242EA90424FEA80304FEA0C7644
:100D200044F1000448EA03434EEA0B484FF0000E3A
:100D3000B2EB080C71EB030724BF624639464EEB59
:100D40000E0E4FF0000B0018524149414BEB0B0BBC
:100D5000B2EB080C71EB03077BF1000B24BF62467A
:100D600039464EEB0E0E4FF0000B00185241494130
:100D70004BEB0B0BB2EB080C71EB03077BF1000B99
:100D800024BF624639464EEB0E0E51EA020718BFE9
:100D900046F0010616EB0E7655F1000254F1000103
:100DA00003D5BDE88901BDE80088BDE88901BDE83B
:100DB0000048B619524141EB0101A3F1010370470C
:100DC00080807F7E7D7C7B7A797877767675747388
:100DD000727171706F6E6E6D6C6C6B6A6A69686847
:100DE000676666656464636362616160605F5F5EDD
:100DF0005E5D5D5C5C5B5B5A5A5959585857575653
:100E000056555555545453535252525151505050B7
:100E10004F4F4F4E4E4D4D4D4C4C4C4B4B4B4A4A09
:100E20004A4949494848484747474746464645454D
:100E30004544444444434343434242424241414186
:100E4000002B9C4630D477002BD01CB54FEA3707D7
:100E500003B44FF010004FF01001BAF1000F06D0AC
:100E6000BCF1000FDCBF40F0080040F008014FF07B
:100E700000000FBCBDE810400BF1010BBBF1010FEE
:100E800008BF5FEA170722BF12F1010211F1010149
:100E90004FF0004143F1000300F0004043EA00003E
:100EA0007047F9D35708D0E746EA064613F1400FDA
:100EB0004FEA16461FDD13F1200FDFBF16430A4627
:100EC000002120335B42BED0C3F1200746EA06462C
:100ED00002FA07F74FEA164646EA0706C3F120076B
:100EE00022FA03F201FA07F721FA03F14FF00003A7
:100EF00042EA0702A7E746EA020646EA06464FEA42
:100F0000164646EA0106BCBF46EA0646360C4FF0D6
:100F100000034FF000024FF0000194E72DE9804CF0
:100F20009A46934670B491E8380007C831EA400CFD
:100F300048BF34EA430C03D5FFF7E6FDFFF780FF17
:100F4000F0BCBDE8008C2DE9804C9A46934670B405
:100F500091E8380007C810F0804F08BF13F0804FA9
:100F600003D100F005F8FFF76BFFF0BCBDE8008C83
:100F700020F07F4780EA030023F07F4C07EB0C034F
:100F8000A3F57C5300F00040A3F1FE0392F0000FA4
:100F900000F0B38095F0000F00F077802DE9014953
:100FA0004FEA11404FEA144621EA004800FB06FCD4
:100FB00024EA064708FB06F607FB08F800FB07F7DC
:100FC00018EB06484CEB164C4FEA124B18EB07484F
:100FD0004FEA15464CEB174022EA0B4E0BFB06FC82
:100FE00025EA06470EFB06F607FB0EFE0BFB07F78E
:100FF0001EEB064E4CEB164C4FF000061EEB074E58
:101000004CEB174B18EB0B0840F1000018EB0E0BE4
:1010100058EB000840F100008F1A4FF000013CBF70
:10102000C943661B14BFB5EB040C00213CBFC94388
:10103000F61B4FEA17444EEA8E0E27EA04454FEAA4
:101040001C4704FB07622CEA074C05FB07F70CFB67
:1010500005F604FB0CFC16EB074642EB174216EBB9
:101060000C4642EB1C421BEB060658EB02024141C8
:1010700046EA9E0601D5BDE80189B619524141EB09
:101080000101A3F10103BDE801894FEA14454FEACC
:10109000114724EA054621EA074C05FB07F406FB45
:1010A00007F70CFB06F105FB0CFC11EB074144EBC9
:1010B00017444FEA124711EB0C4144EB1C4422EA5F
:1010C000074C05FB07F206FB07F70CFB06F605FBD2
:1010D0000CFC16EB074642EB174216EB0C4642EBB4
:1010E0001C456A1854F1000148BF7047B6195241B7
:1010F00041EB0101A3F10103704795F0000F37D0D8
:101100004FEA11424FEA144721EA024624EA074C0B
:1011100002FB07F106FB07F70CFB06F402FB0CFCD5
:1011200014EB074441EB17414FEA154714EB0C440D
:1011300041EB1C4125EA074C02FB07F506FB07F7CC
:101140000CFB06F602FB0CFC16EB074645EB1745BD
:1011500016EB0C4645EB1C42121951F1000148BF39
:101160007047B619524141EB0101A3F101037047E9
:101170004FEA14454FEA114724EA054621EA074C95
:1011800005FB07F106FB07F70CFB06F24FF0000624
:1011900005FB0CFC12EB074241EB174112EB0C4232
:1011A00051EB1C4148BF7047921841EB0101A3F17C
:1011B0000103704700BFFEE72DE9F04F8FB01F49D4
:1011C000486902F055FD04460D461C49086902F0C5
:1011D0004FFD06460F461949C86802F049FD804692
:1011E00089461649886802F043FD82468B461349BA
:1011F000486802F03DFDCDE90C011049086802F095
:1012000037FDCDE902ABCDE90489CDE90667CDE92B
:101210000845CDE90A01DDE90C01CDE900010848E6
:10122000DDE90A23FFF700F801F0A8FA01F024FA3B
:1012300001F086FD0FB0BDE8F08F0000180100201E
:10124000AC44000870472DE9F04102460025002615
:10125000002000230024002791F803C00CF00F05A4
:1012600091F803C00CF0100CBCF1000F03D091F802
:1012700002C04CEA050591F800C0BCF1000F31D066
:10128000146800202BE04FF0010C0CFA00F3B1F8C9
:1012900000C00CEA03069E4220D183004FF00F0CE1
:1012A0000CFA03F7BC4305FA03FC4CEA040491F87A
:1012B00003C0BCF1280F06D14FF0010C0CFA00FC62
:1012C000C2F814C00AE091F803C0BCF1480F05D180
:1012D0004FF0010C0CFA00FCC2F810C0401C0828AA
:1012E000D1D31460B1F800C0BCF1FF0F34DD5468F5
:1012F00000202EE000F1080C4FF0010808FA0CF372
:10130000B1F800C00CEA03069E4221D183004FF0E1
:101310000F0C0CFA03F7BC4305FA03FC4CEA040477
:1013200091F803C0BCF1280F05D100F1080C08FAB0
:101330000CF8C2F8148091F803C0BCF1480F07D133
:1013400000F1080C4FF0010808FA0CF8C2F8108000
:10135000401C0828CED35460BDE8F08100BFFEE7F2
:1013600000BFFEE708B50121402000F067F84FF408
:101370007C40ADF8000010208DF8030003208DF8AC
:10138000020069460148FFF75EFF08BD00180140F2
:101390007047000070B5002100230F22C47804B309
:1013A000154C246804F4E064C4F5E064210AC1F13A
:1013B0000403CA40447804FA03F1847814402143BA
:1013C00009010E4C0678A155047804F01F0501248C
:1013D000AC4005786D11AD0005F1E025C5F8004180
:1013E00009E0047804F01F050124AC40044D0678A0
:1013F000761145F8264070BD0CED00E000E400E0F9
:1014000080E100E002490143024A11607047000098
:101410000000FA050CED00E07047000029B1064A13
:10142000D2690243044BDA6104E0034AD269824381
:10143000014BDA61704700000010024029B1064AF2
:1014400092690243044B9A6104E0034A9269824321
:10145000014B9A61704700000010024030B5002136
:101460000022002400232D4D6D6805F00C0121B1F0
:10147000042905D0082923D105E0294D056022E083
:10148000274D05601FE0254D6D6805F47012234D52
:101490006D6805F48034022505EB92421CB9214D9C
:1014A000554305600BE01D4D6D6805F400351DB119
:1014B0001C4D5543056002E0194D5543056002E09F
:1014C000174D056000BF00BF144D6D6805F0F001B9
:1014D0000909154D6B5C0568DD4045600F4D6D6871
:1014E00005F4E061090A104D6B5C4568DD408560DC
:1014F0000A4D6D6805F46051C90A0B4D6B5C456877
:10150000DD40C560054D6D6805F44041890B074D10
:101510006B5CC568B5FBF3F5056130BD001002409A
:1015200000127A0000093D001E0000202E0000205D
:10153000704710B500F002F810BD00000CB5002097
:10154000019000903348006840F4803031490860D1
:1015500000BF3048006800F4003000900198401C43
:101560000190009818B90198B0F5A06FF1D1294801
:10157000006800F4003010B10120009001E000206C
:1015800000900098012843D12348006840F01000E3
:10159000214908600846006820F0030008600846FA
:1015A000006840F0020008601A4840681949486025
:1015B0000846406848600846406840F480604860DB
:1015C0000846406820F47C1048600846406840F4B3
:1015D000E81048600846006840F08070086000BF6E
:1015E0000C48006800F000700028F9D009484068F5
:1015F00020F00300074948600846406840F00200B8
:10160000486000BF0348406800F00C000828F9D18A
:101610000CBD00000010024000200240042808D148
:101620004FF0E021096941F004014FF0E02211611F
:1016300007E04FF0E021096921F004014FF0E022BA
:10164000116170477047000010B51348006840F002
:1016500001001149086008464068104908400E49D9
:101660004860084600680E4908400B490860084673
:10167000006820F4802008600846406820F4FE00DE
:1016800048604FF41F008860FFF753FF4FF0006081
:101690000449086010BD0000001002400000FFF87F
:1016A000FFFFF6FE08ED00E0F0B50C4615460022FF
:1016B0000021068C4FF6FE773E400684028B018C9B
:1016C0004FF60C7632407E1C06EA03162E43324358
:1016D000104EB0420ED0104EB0420BD0B0F1804F41
:1016E00008D00E4EB04205D00D4EB04202D00D4E85
:1016F000B04206D14FF6FD76314044F00106314349
:1017000005E04FF6F576314044F00106314302839F
:101710000184F0BD002C0140003401400004004071
:1017200000080040000C0040F0B50C4615460022B1
:1017300000210026078C4FF6EF7C07EA0C07078490
:10174000028B018C4FF6FF7707EA041640F6FF473D
:101750003A404FF6FF7707EA03373A434FF6FF77F1
:1017600007EA05273A43114FB8420ED0104FB8424E
:101770000BD0B0F1804F08D00E4FB84205D00E4FBD
:10178000B84202D00D4FB84206D14FF6DF7739404C
:1017900046F01007394305E04FF65F77394044F0D3
:1017A0001007394302830184F0BD0000002C014082
:1017B000003401400004004000080040000C0040DC
:1017C000F0B50C461546002200210026078C4FF686
:1017D000FF6C07EA0C070784828B018C4FF6FF77BA
:1017E00007EA04264FF60C773A404FF6FF7707EAF0
:1017F00003172F433A43114FB8420ED0104FB8424F
:101800000BD0B0F1804F08D00E4FB84205D00E4F2C
:10181000B84202D00D4FB84206D14FF6FF573940BB
:1018200046F48077394305E04FF2FF57394044F4DE
:101830008077394382830184F0BD0000002C014091
:10184000003401400004004000080040000C00404B
:10185000F0B50C461546002200210026078C4EF6F6
:10186000FF7C07EA0C070784828B018C4FF6FF7719
:1018700007EA043640F6FF473A404FF6FF7707EA9B
:1018800005273A434FF6FF7707EA03373A43114FEC
:10189000B8420ED0104FB8420BD0B0F1804F08D0F4
:1018A0000E4FB84205D00E4FB84202D00D4FB8428D
:1018B00006D14DF6FF77394046F48057394305E0AD
:1018C00047F6FF57394044F48057394382830184F7
:1018D000F0BD0000002C0140003401400004004035
:1018E00000080040000C004010B50121880700F0FE
:1018F0005DF8012804D105480088401C0349088090
:101900000121880700F013F810BD00003A00002004
:1019100021B1028842F08002028004E002884FF682
:101920007F731A4002807047CA4302827047CA43DD
:101930000282704721B1028842F00102028004E075
:1019400002884FF6FE731A400280704731B1B0F83A
:10195000442042F40042A0F8442005E0B0F84420BE
:10196000C2F30E02A0F844207047F0B50C461546AD
:101970001E460021002200230189028B038C4FF6B2
:10198000F877394021434FF6FC473A4040F20117BF
:101990003A434FF6DD773B404FF6FF7707EA0617ED
:1019A0002F433B43018102830384F0BD02460020A4
:1019B000138A0B400BB1012000E0002070470000AB
:1019C00070B505460C46244885420ED02348854212
:1019D0000BD0B5F1804F08D02148854205D0214871
:1019E000854202D02048854200D100E000BF208817
:1019F00050B92389A28861882846FFF755FEE188FF
:101A0000284600F056F925E0208804280AD12389C9
:101A1000A28861882846FFF787FEE188284600F003
:101A200051F917E0208808280AD12389A288618803
:101A30002846FFF7C5FEE188284600F050F909E086
:101A40002389A28861882846FFF702FFE18828469B
:101A500000F04EF970BD0000002C01400034014040
:101A60000004004000080040000C004000210180FC
:101A70004180012181800021C180018170471AB11C
:101A800083890B43838102E083898B438381704781
:101A900070B5002400220023058C4FF6FE763540F9
:101AA0000584028C8388048B4FF68F752C40B51EFD
:101AB0002C400D882C43751E2A400D892A434D88E1
:101AC0002A43144DA8420BD0134DA84208D0134D01
:101AD000A84205D0124DA84202D0124DA84213D1FF
:101AE0004FF6F7752A404D892A434FF6FB752A4079
:101AF0008D882A434FF6FF652B404FF6FF552B404C
:101B00008D892B43CD892B4383800483CD888586A3
:101B1000028470BD002C01400034014000400140AF
:101B200000440140004801400A460021018B4FF665
:101B3000F7731940114301837047000070B500240A
:101B400000220023058C4FF6EF7635400584028C89
:101B50008388048B48F6FF752C404FF6FF452C40D8
:101B60000D884FF6FF7606EA05252C434FF6DF7504
:101B70002A400D8906EA05152A434D8806EA05150F
:101B80002A43154DA84202D0144DA8421DD14FF64C
:101B90007F752A404D894FF6FF7606EA05152A43E0
:101BA0004FF6BF752A408D8806EA05152A434FF681
:101BB000FF352B404FF2FF752B408D8906EA8505D6
:101BC0002B43CD8906EA85052B4383800483CD888A
:101BD0000587028470BD0000002C014000340140E4
:101BE0000A460021018B4FF2FF7319404FF6FF7335
:101BF00003EA0223194301837047000070B50024F3
:101C000000220023058C4FF6FF6635400584028CC8
:101C10008388848B4FF68F752C404FF6FC752C40D3
:101C20000D882C434FF6FF552A400D894FF6FF765D
:101C300006EA05252A434D8806EA05252A43154D5F
:101C4000A84202D0144DA8421DD14FF2FF752A4080
:101C50004D894FF6FF7606EA05252A434FF6FF35F4
:101C60002A408D8806EA05252A434EF6FF752B404B
:101C70004DF6FF752B408D8906EA05152B43CD895E
:101C800006EA05152B4383808483CD8885870284EB
:101C900070BD0000002C0140003401400A460021C4
:101CA000818B4FF6F773194011438183704781840C
:101CB0007047028B4FF6F3731A400283028B0A437C
:101CC00002837047028B4FF2FF331A400283028B6C
:101CD0004FF6FF7303EA01231A4302837047828B96
:101CE0004FF6F3731A408283828B0A4382837047D4
:101CF000828B4FF2FF331A408283828B4FF6FF7341
:101D000003EA01231A4382837047000000220288FD
:101D10001D4B98420ED01D4B98420BD0B0F1804F16
:101D200008D01B4B984205D01A4B984202D01A4B50
:101D3000984204D14FF68F731A404B881A43174BC1
:101D4000984207D0164B984204D04FF6FF431A40F2
:101D5000CB881A4302808B8883850B8803850A4BC6
:101D600098420BD0094B984208D00E4B984205D0B0
:101D70000D4B984202D00D4B984201D10B7A03864D
:101D80000123838270470000002C01400034014091
:101D90000004004000080040000C0040001000401B
:101DA0000014004000400140004401400048014050
:101DB0004FF6FF71818000210180C1804180017256
:101DC0007047000010B540F225511D4800F04AF858
:101DD00010B31B4800F002F9C4B21A48008800F49E
:101DE0000040C8B91748008800F4804060B10A2C50
:101DF00003D000201349088020E01248008840F4F6
:101E000000401049088019E00D2C06D10D480088CB
:101E100040F480400B49088010E00A480088C0F375
:101E20000D0009490C5407480088401C05490880EA
:101E300008460088C72801DD0020088010BD00008A
:101E4000003801401C0000205000002021B1828990
:101E500042F40052828104E082894DF6FF731A40F9
:101E60008281704770B502460024002300250020BF
:101E700040F66A16B14200D100BFC1F3421501F02D
:101E80001F03012606FA03F3012D02D19689334080
:101E900006E0022D02D1168A334001E0968A3340D3
:101EA0000C12012606FA04F41688344013B10CB162
:101EB000012000E0002070BDF0B50346002400269C
:101EC0000025002040F66A17B94200D100BF18462D
:101ED000C1F3421401F01F06012707FA06F5012C91
:101EE00001D10C3004E0022C01D1103000E014309C
:101EF0001AB107682F43076002E00768AF43076025
:101F0000F0BD00002DE9F04786B005460E460024DE
:101F1000A24600BFA1460027B08900B100BF2F46EE
:101F20002C8A4CF6FF700440F08804432C82AC8964
:101F30004EF6F3100440B088318908437189084394
:101F40000443AC81AC8A4FF6FF400440B08904439F
:101F5000AC8201A8FFF782FA1F48874202D1DDF860
:101F600010A001E0DDF80CA0A88900F4004040B109
:101F70000AEBCA0000EB0A1031684900B0FBF1F827
:101F800007E00AEBCA0000EB0A1031688900B0FBD9
:101F9000F1F86420B8FBF0F004012009642101FB92
:101FA0001089A88900F4004040B1322000EBC9003C
:101FB000B0FBF1F000F00700044308E0322000EB32
:101FC00009106421B0FBF1F000F00F0004432C81F4
:101FD00006B0BDE8F087000000380140014688885F
:101FE000C0F30800704700BFFEE7490050EAC12077
:101FF00018BF04204A0D18BF40F0010040F2FF72E4
:10200000B2EB515F08BF40F00200012808BF052075
:10201000704700002DE9F74F144694B00021C4E941
:1020200002111599079121F00045C9498D4206DC3E
:102030001599C4E9000117B00020BDE8F08FC5492B
:10204000DFF814A3A9423CDD0799C44E0029C44F10
:10205000C44A1599534619DD01F020FD554506D0B7
:10206000C14AC24B01F01AFDC4E900010AE04FF079
:10207000D352BE4B01F012FD32463B4601F00EFD3D
:10208000C4E9000117B00120BDE8F08F01F09AF912
:10209000554506D0B44AB54B01F094F9C4E90001A6
:1020A0000AE04FF0D352B14B01F08CF932463B4677
:1020B00001F088F9C4E9000117B04FF0FF30BDE826
:1020C000F08FAB49A942159978DB21F00041834696
:1020D0008846A84AA84B01F0D7FB0022A74B01F085
:1020E00071F901F077FB099001F0A3FB06460F465A
:1020F0009C4A534601F0C8FB43465A4601F0C2FCD5
:1021000080468A46984A994B3046394601F0BCFBD6
:102110002A0D01250B924246534601F0B3FC032DD4
:10212000C4E9000139D00B98C1F30A51401A05EBFC
:1021300045111139814230DA9148C346784400EBA9
:102140000510CDF80CA00C90D0E90023304639469C
:1021500001F09AFB02460B460491069058460399FB
:1021600001F09CFC80468A4602460B46584603997D
:1021700001F094FC049B069A01F090FC83460C98B5
:1021800003913946D0E90223304601F07DFB5A46DF
:10219000039B01F083FC6D1CBDE707980028A2BFDC
:1021A000099817B0BDE8F08F616881F00041616067
:1021B000099817B04042BDE8F08FFFE784461598B4
:1021C000C1F31301C0F30A50A0F2F5304FEA6018D2
:1021D00000F01F06C6F12000139000200690079023
:1021E00041F4801E05206D4676B1664A08EB000179
:1021F0007A4452F8213002EB8101B3404A681399C6
:1022000022FA01F1194305E05F4908EB0002794425
:1022100051F82210A1FB0E27A1FB0C131A449A427D
:1022200034BF0123002303EB070A05EB8003D3E946
:1022300001B70F448F4234BF0121002193448B44E6
:1022400011B1934502D903E0934501D2012100E089
:102250000021C3E901B7514445F82010011EA0F147
:102260000100C1DC0298059F00F10050800F129020
:102270000298DDE90356800001F0DBFA8346284628
:102280000D9101F0EDFA6FF01D0201F0EEFFCDE9C6
:102290000E01304601F0E4FA6FF03D0201F0E5FF77
:1022A00080468A46384601F0DBFA6FF05D0201F0A5
:1022B000DCFF074642465346119101F083F8DDE901
:1022C0000E2301F07FF85A460D9B01F07BF80025A4
:1022D0000E465A4628460D9B01F0E0FBDDE90E2331
:1022E00001F0DCFB4246534601F0D8FB3A46119B15
:1022F00001F0C8FBDFF898A0244A534601F0C4FA65
:1023000007468846234A244B3146284601F0BCFA4A
:102310003A46434601F056F8074688464FF0A84231
:1023200053463146284601F0AFFA3A46434601F09B
:1023300049F8159A12F0004F04D0129A81F000412A
:1023400052421292C4E90001129817B0BDE8F08F12
:10235000FB21E93F7CD90240FB21F93F7370032E3A
:102360008A19A33B000040543163621A61B4D03D26
:10237000FB21394183C8C96D305FE43F0000E03F75
:10238000E82100006421000046210000182D44547B
:10239000FB21F93D3326A611460B113C2DE9FF4DDB
:1023A00021F0004807460C46B8F1795F08DA01F0E1
:1023B00011FA002801BF0020324904B0BDE8F08DB9
:1023C0003A4623461046194601F05EFA0546024693
:1023D0002D480E460B460621784400F05DF82A464B
:1023E000334601F051FADDE9022382468B46384636
:1023F000214601F049FA04460F4652465B462846FC
:10240000314601F041FA22463B4601F047FB0746C0
:102410008A464FF0FF322846314601F026FF1B4A1C
:1024200090450ADA3A46534601F038FB04B00022E0
:10243000BDE8F04D134B01F025BB154A4245A8BF3E
:10244000A8F500154FF00004B8BF124D22462B46E8
:1024500001F024FB0646884622462B460020094907
:1024600001F01CFB04460D463A46534630464146B1
:1024700001F014FB04B022462B46BDE8F04D01F0FC
:1024800001BB00000000F03F1C1F00003333D33FAE
:102490000000E93F0000D23F2DE9F0414F1E00EB64
:1024A000C7010446D1E9000115461E4637F0060271
:1024B0000DD02A46334601F0E7F97F1E04EBC7032F
:1024C000D3E9002300F07EFF37F00602F1D1022F9E
:1024D00025D0042F13D0062F18BFBDE8F0812A465F
:1024E000334601F0D1F9D4E90A2300F06BFF2A4604
:1024F000334601F0C9F9D4E9082300F063FF2A4606
:10250000334601F0C1F9D4E9062300F05BFF2A4607
:10251000334601F0B9F9D4E9042300F053FF2A4609
:10252000334601F0B1F9D4E9022300F04BFF2A460B
:10253000334601F0A9F9D4E90023BDE8F04100F0E9
:1025400041BF00002DE9FF4D054621F0004084B059
:102550000C46B0F1795F0BDA2846FFF746FD0428F8
:1025600008BF00F06FF8284608B02146BDE8F08D9E
:102570002A460B46104601F087F906460F462A46C2
:10258000234601F081F9804626488A4632463B467A
:1025900005217844FFF780FF83461098029160B3CD
:1025A000214A224B4046514601F06EF9CDE9000127
:1025B0005A4640465146029B01F066F982468846DB
:1025C000DDE906014FF0FF3201F04FFE524643466F
:1025D00001F064FA32463B4601F056F9DDE9062384
:1025E00001F05CFADDE9002301F058FA08B02A4650
:1025F0002346BDE8F04D01F045BA0B465A46304639
:10260000394601F041F9084A084B00F0DBFE42462A
:10261000534601F039F908B02A462346BDE8F04D8B
:1026200000F0D0BE5A1E0000495555555555C5BF3E
:10263000012201F01ABE002213461046114600F096
:1026400071BF0000024A0020110701F00EBE000019
:1026500001FDFFFF014600BF704710B50446002191
:10266000204601F027FD00D201E084F0004420461E
:1026700001F0E8FB80B210BD2DE9F04724A0FDF782
:10268000D3FD032000F05CFCA0F6FF7A504601F079
:10269000D0F88046214A224B01F0F6F80646002287
:1026A000204B01F0F1F8044600F05AFE1E49086084
:1026B000042000F045FCA0F6FF7A504601F0B9F87E
:1026C0000646164A164B01F0DFF880460022154BED
:1026D00001F0DAF8044600F043FE13494860052093
:1026E00000F02EFCA0F6FF7A504601F0A2F8064654
:1026F0000A4A0B4B01F0C8F804460022094B01F0CE
:10270000C3F8804600F02CFE07498860BDE8F087DA
:10271000B1E0C2EBC6F7CBD9B6C80000B263231054
:10272000AFEB873F00005940180100203EB5002460
:1027300013E00B480B490C4ACDE90021029004EB51
:10274000840101EBC401094A02EB8100084B094AEC
:10275000094900F087FB601CC4B2032CE9DB3EBDD5
:102760000000204100002F4400C05A4530010020E5
:102770000000A0419A99193F000020422DE9F04F36
:102780008BB082A0FDF750FD83480078012808D166
:1027900082484068814908607F480078401C7E4933
:1027A00008707E4A1168506801F0B6FC824601F05C
:1027B0005FFA80467A4A7B4B01F066F806460022B3
:1027C000794B00F0AFFE044600F0CAFD774908607F
:1027D00072480169764801F0A1FB044601F048FA0D
:1027E000CDE908016D49C86801F042FA04460D467A
:1027F0006E48006801F03CFA064600F06DFC804629
:1028000022462B4601F040F8CDE90401634988686F
:1028100001F02EFA804689466448006801F028FAE3
:10282000064600F0CFF881F00041044642464B4690
:1028300001F02AF8CDE90201DDE9042301F02EF9C7
:10284000CDE90601DDE9082300F0BCFD824600F079
:1028500087FD5849C86051480169554801F05EFB41
:10286000044601F005FACDE906014C49C86801F0BB
:10287000FFF904460D464D48006801F0F9F982461B
:102880004D4A4E4B00F09EFD804600F025FC06466A
:1028900022462B4600F0F8FFCDE902013F49886847
:1028A00001F0E6F904460D464048006801F0E0F901
:1028B0008246414A414B00F085FD064600F082F811
:1028C000804622462B4600F0DFFFCDE90001DDE91E
:1028D000022300F077FDCDE90401DDE9062300F0D5
:1028E00071FDCDE9080100F03BFD324908612B483C
:1028F00001692F4801F012FB044601F0B9F9CDE956
:1029000006012649C86801F0B3F904460D46274878
:10291000006801F0ADF98246274A294B00F052FDCC
:10292000064600F0D9FB804622462B4600F0ACFF5D
:10293000CDE902011949886801F09AF904460D466B
:102940001A48006801F094F980461B4A1C4B00F0BD
:1029500039FD064600F036F8824622462B4600F046
:1029600093FFCDE90001DDE9022300F02BFDCDE965
:102970000401DDE9062300F025FDCDE9080100F0A2
:10298000EFFC0C4948610BB0BDE8F08FC4BFB1EA61
:10299000CBD9B6C800000000380000203C00002061
:1029A00044174154FB210940008066403400002058
:1029B0000000204118010020D8642B3852C1F03F9C
:1029C00052C1F0BF00B5244B21F0004287B09A42BB
:1029D000DCBF0022134629DD204B9A4208D140B9C2
:1029E0004FF00100FDF769FCFFF725FE07B000BDC1
:1029F00003DBFFF71DFE07B000BD02AAFFF70AFBCD
:102A000010F0030104BF0DF1080C9CE80F000DD07D
:102A1000012001290ED0022914D00DF1080C0090DC
:102A20009CE80F00FFF78EFD07B000BDFFF7B6FC76
:102A300007B000BD0DF1080C00909CE80F00FFF7F7
:102A400081FD05E00DF1080C9CE80F00FFF7A6FCE6
:102A500007B081F0004100BDFB21E93F0000F07F9D
:102A600010B56FF00400FEF7D9FD0A4800680A4966
:102A7000B0FBF1F0094908700846007800EB40010E
:102A8000C1EBC0104FF6FF7101EAC0000449088095
:102A900010BD00000000002000127A001400002089
:102AA0001600002010B500F005F800F055F800F011
:102AB000A5F810BD00B587B001210220FEF7AEFCDD
:102AC00001210420FEF7BAFCC020ADF8000004206C
:102AD0008DF8030003208DF8020069461C48FEF7BC
:102AE000B2FB04A8FFF764F90020ADF81600ADF8BA
:102AF00012004FF6FF70ADF814000020ADF8100082
:102B000004A91448FFF702F900231A4603211148CB
:102B1000FEF72BFF01A8FEF7A9FF0A20ADF80C0075
:102B200001A90C48FEF74CFF01210A48FEF7FCFE04
:102B3000012211460748FEF7A2FF40F6FF71054843
:102B4000FFF7B5F801210348FEF7F4FE07B000BD1A
:102B5000000801400004004000B587B001210420B6
:102B6000FEF75CFC01210820FEF768FCC020ADF8F0
:102B7000000004208DF8030003208DF80200694650
:102B80001C48FEF760FB04A8FFF712F90020ADF81F
:102B90001600ADF812004FF6FF70ADF814000020DB
:102BA000ADF8100004A91448FFF7B0F800231A4646
:102BB00003211148FEF7D9FE01A8FEF757FF0A20AE
:102BC000ADF80C0001A90C48FEF7FAFE01210A48F5
:102BD000FEF7AAFE012211460748FEF750FF40F615
:102BE000FF710548FFF763F801210348FEF7A2FED5
:102BF00007B000BD000C01400008004000B587B0E0
:102C000001210820FEF70AFC01210420FEF716FC32
:102C10000320ADF8000004208DF8030003208DF898
:102C2000020069461C48FEF70EFB04A8FFF7C0F837
:102C30000020ADF81600ADF812004FF6FF70ADF8A9
:102C400014000020ADF8100004A91448FFF75EF846
:102C500000231A4603211148FEF787FE01A8FEF75C
:102C600005FF0A20ADF80C0001A90C48FEF7A8FEEC
:102C700001210A48FEF758FE012211460748FEF7D7
:102C8000FEFE40F6FF710548FFF711F801210348E9
:102C9000FEF750FE07B000BD00080140000C0040E8
:102CA00000BF054A128802F04002002AF9D0C2B2E1
:102CB000014B1B1D1A8070470038014070B5054656
:102CC0000C462146284601F0F5F901D2254608E0D8
:102CD00084F000462946304601F0ECF901D284F038
:102CE0000045284670BD000010B5FFF7B9FE4FF44F
:102CF000A060FEF787FB4FF4E13000F0CBFAFFF75E
:102D0000D1FE132148F69F4000F094FA002140F6CE
:102D10000F6000F0B7F8FEF725FBFFF707FD064848
:102D2000064988600020C8600861FFF727FD00F0B1
:102D300023FA002010BD0000000020413C000020CC
:102D400070B5002424E0144951F8240001F05EF825
:102D5000054611490C3951F8240001F057F8064690
:102D600004EB840101EBC4010C4A02EB81002A460A
:102D7000314600F015F804EB840202EBC402074B65
:102D800003EB8201E21CD0B200F006F9601CC4B271
:102D9000032CD8DB70BD000024010020300100208E
:102DA0002DE9F05F04460D4616462CA0FDF73CFACF
:102DB0004FF07E51E06A00F0F5FF0AD1701B01F080
:102DC00061F8E0604FF07E51E06A00F07DFFE06264
:102DD00001E02069E060701B01F054F82061D4E943
:102DE000041000F071FF6061D4E9031001F094F960
:102DF0008146A16801F092F807466169606801F0B8
:102E00008DF88346616AFFF759FF81462169206882
:102E100001F084F88246494600F056FF8046394664
:102E200000F052FF2063A16A206B01F043F809D241
:102E3000A06A80F000473846216B01F03BF801D2D0
:102E400000202063216BE06900F03EFFE061D4E9DF
:102E50000701FFF733FFE061BDE8F09F7069640D83
:102E60000A000000F0B505AC70CC016042608360E0
:102E700086624562046200278761C761C760076197
:102E80004761F0BD30B589B005460C4601214803C5
:102E9000FEF7D4FA01211020FEF7D0FA4FF4E070CB
:102EA000ADF8200003208DF8220018208DF82300B3
:102EB00008A92148FEF7C7F90020ADF81A00ADF8BF
:102EC0001600ADF81850ADF814408DF81C0005A997
:102ED0001A48FEF71BFF6020ADF804000020ADF893
:102EE0000E00ADF80A000120ADF8060001A9134854
:102EF000FEF7CEFD01A91148FEF720FE01A90F48FB
:102F0000FEF77CFE01210D48FEF720FD08210B484D
:102F1000FEF70AFE08210948FEF762FE082107486D
:102F2000FEF7BCFE01210548FEF7F2FC0121034833
:102F3000FEF700FD09B030BD001001400034014033
:102F4000014603290CD0042902D0052918D10FE02D
:102F50000E4A128890B240F6FF720C4B1A8012E0B3
:102F60000B4A128890B240F6FF72094B1A800AE0B1
:102F7000084A128890B240F6FF72064B1A8002E0AF
:102F800040F6FF7000BF00BF7047000024080040FB
:102F900024040040240C004070B505460C4648A0AF
:102FA000FDF742F9032D04D0042D2BD0052D28D197
:102FB00056E00021E06901F07DF80BD20120434981
:102FC00008600020091D0860E06900F03BFF4049EF
:102FD000088016E00021E06900F06CFF0BD20020B1
:102FE0003A4908600120091D0860E069FFF735FBD8
:102FF0003749088005E00120344908603549C1F8A7
:10300000AC015BE00021E06901F054F80DD2012031
:103010002E49083108600020091D0860E06900F0B1
:1030200011FF2B49091D088019E00021E06900F01B
:1030300041FF0DD200202549083108600120091DFB
:103040000860E069FFF709FB2149091D088006E0D7
:1030500001201E49083108601E49C1F8B4012DE065
:103060000021E06901F026F80DD201201749103146
:1030700008600020091D0860E06900F0E3FE1449C3
:103080000831088019E00021E06900F013FF0DD23B
:1030900000200E49103108600120091D0860E06918
:1030A000FFF7DBFA0A490831088006E001200749EA
:1030B000103108600749C1F8BC0100BF00BF70BDF6
:1030C000B2D9BFD8B5E7BBFA00000000A80123427F
:1030D000343401400000234200B5254B21F000426A
:1030E00087B09A4203DC0022134600922BE0214B6A
:1030F0009A4208D140B94FF00100FDF7DEF8FFF722
:103100009AFA07B000BD03DBFFF792FA07B000BDE3
:1031100002AAFEF77FFF10F003014FF001000DD06F
:10312000012914D002291AD00DF1080C9CE80F00D7
:10313000FFF734F907B081F0004100BD0DF1080C34
:1031400000909CE80F00FFF7FDF907B000BD0DF1FE
:10315000080C9CE80F00FFF721F907B000BD0DF146
:10316000080C00909CE80F00FFF7ECF9E2E7000084
:10317000FB21E93F0000F07F50E000BFFEF71CF8A4
:10318000274800884FF4FA7190FBF1F201FB12001E
:1031900028B92448244988600020C8600861204874
:1031A00000884FF47A7190FBF1F201FB120030B904
:1031B00000201D4988601D48C8600020086118482B
:1031C000008840F2DC5190FBF1F201FB120030B9B3
:1031D0000020154988601348C86000200861104825
:1031E00000884FF4FA6190FBF1F201FB120030B954
:1031F00000200D498860C8604FF07E500861084883
:10320000008840F6C41190FBF1F201FB120028B9CE
:10321000002005498860C86005480861ADE70000E6
:103220003A000020000020C13C00002000002041A6
:10323000000080BF7FB505460C4601210846FEF719
:10324000EDF80020ADF80A00ADF80600ADF8085022
:10325000ADF8044001208DF80C0001A98007FEF7AD
:1032600055FD012211469007FEF709FC1C208DF840
:10327000000001208DF8030002208DF801008DF878
:1032800002006846FEF786F801218807FEF752FB28
:103290007FBD000010B586B00446012144F2040051
:1032A000FEF7CCF84FF40070ADF8140003208DF851
:1032B000160018208DF8170005A91C48FDF7C3FF5C
:1032C0004FF48060ADF8140004208DF8170005A9B4
:1032D0001648FDF7B8FF25208DF8000003208DF873
:1032E00001008DF8020001208DF803006846FEF70A
:1032F00051F801940020ADF80800ADF80A00ADF8CF
:103300000C00ADF810000C20ADF80E0001A9084823
:10331000FEF7F8FD012240F225510548FEF7CCFDED
:1033200001210348FEF792FD06B010BD00080140E0
:103330000038014010B500290AD00878002807D0CD
:1033400005487844FDF72EFB002801D0002010BD71
:103350000248784410BD0000421200003A120000FA
:1033600021F00042A2F16052B2F5801F01F000434B
:1033700028BFD2F17F6C0BD95FEA001C43EAC2027E
:1033800042EB507018BF704728BF20F00100704713
:10339000B2F5801FBCBF184670474FEA410C1CF5C0
:1033A000001F02D2084600F080BE70B500F016FB88
:1033B00000000089FFF7F6BF4FF00040A0F5800045
:1033C0007047000010B591EA030F48BF83F0004337
:1033D00000F16C83841A71EB030C05D2121943EBD4
:1033E0000C03001B61EB0C01DFF824E14FEA1154E0
:1033F000A4EB135C1EEA430F18BF9EEA445F73D030
:1034000023EA0E03DCF1200E21EA045143F4801379
:1034100032D322FA0CFE10EB0E0023FA0CFE41EB25
:103420000E01CCF1200E03FA0EFE10EB0E0051F14E
:103430000001B1F5801FCCF1200E32D201EB045116
:1034400012FA0EF2BDE8104058BF7047401C38BF5A
:103450005FEA420218BF7047002814BF20F0010045
:1034600041F100014FEA410313F5001F38BF7047D7
:10347000A1F1C04100F000BB012A43EB0302ACF113
:10348000200CDCF11F0E32BF4FF0000E23FA0CF3BC
:1034900010EB030041EB0451B4EB115FD0D0A1EB72
:1034A000045101F5801149085FEA300001EB045135
:1034B0000ED350F1000038BF12FA0EFE08D1BDE85D
:1034C0001040C9E7401C38BF5FEA4202CAD1C3E7D7
:1034D000BDE810404FEA410313F5001F38BF7047A5
:1034E000A1F1C04100F0C8BA9EEA445F08D011EAD9
:1034F0005E0FBDE8104004BF01F00041002070479E
:10350000BDE8104070B500F069FA00BF64FBBE3E34
:103510000000E0FF02494FF0000000F074BE00BF61
:103520000000F87F2DE9C04130B4DFF8A0C23CEACA
:10353000111418BF3CEA131400F0EC8081EA030573
:103540001CEA111444EAD57418BF1CEA131500F0E4
:10355000C780A4EB05044FF0004545EAC12145EAC8
:10356000C32341EA505143EA525304F17F74994214
:1035700004F500344FEAC0204FEAC22208BF90424F
:1035800000F09C804FEA13650FF24016765D4FEA1B
:10359000134506FB05F7C7F1807706FB07F74FEAEF
:1035A000D737A7FB03687642C8F58038A7FB06CE5D
:1035B00038BFA8F1010807FB08E64FF0000EA6FB94
:1035C000028CE6FB03CEDCF1000CCEF1004E38BFDE
:1035D000AEF1010EA6FB0C584FF000074FF00005AE
:1035E000E6FB0E87A1FB08C6A0FB07CE16EB0E0676
:1035F00045F10005E1FB076515F1E04E7EBFA4F53E
:1036000080345FEA46066D4116F1800745F10005FA
:103610004FEA17274FEA066647EA0567A6F1DE4636
:10362000B6F1805F4FEA15251FD9384624F0010C0A
:1036300005EBC471BCF1FE6F01EB0C1102D8F0BCBC
:10364000BDE8008124425CBF01F5801E9EEAC47F74
:1036500002D4F0BCBDE80081244238D4F0BCA1F112
:10366000C041BDE8004100F007BA4FEAD22242EA69
:1036700043524FEAD323A7FB02864FEAD02040EA09
:10368000415007FB03661EEA0E0F4FEAD12105FBEE
:10369000026658BFA6EB0056B6EB00564FEA520E34
:1036A0004EEAC37E18EB0E0E56EB530EBDD518EB4B
:1036B00002085E417F1C55F10005B6E74FF4801506
:1036C0004FF000074FF000064FF00008ADE7F0BCE8
:1036D0004FF0000001F1C04101F00041BDE8008160
:1036E00011EA0C1F0CEA131500D00CE013EA0C1FB2
:1036F00000F025804FF00000F0BC81EA030101F0EA
:103700000041BDE80081F0BCBDE8004181EA030151
:1037100000F0B2B9F0BCBDE8004170B500F05EF950
:10372000097EFC3E00F007B881EA03014FF000007B
:1037300001F00041704781EA030100F09DB9F0BC3F
:10374000BDE800414FF0000021497047FFFDFBF943
:10375000F7F5F4F2F0EEEDEBE9E8E6E4E3E1E0DEC4
:10376000DDDBDAD8D7D5D4D3D1D0CFCDCCCBCAC836
:10377000C7C6C5C4C2C1C0BFBEBDBCBBBAB9B8B75D
:10378000B6B5B4B3B2B1B0AFAEADACABAAA9A8A850
:10379000A7A6A5A4A3A3A2A1A09F9F9E9D9C9C9B1E
:1037A0009A999998979796959594939392919190C9
:1037B0008F8F8E8E8D8C8C8B8B8A8989888887875A
:1037C0008685858484838382828181800000FF07CF
:1037D0000000F87F4FEA41034FEA5353A3F580639B
:1037E000D3F11E03C8BFD3F1210C0CDD4FF0004212
:1037F00042EAC12242EA505232FA03FC8CEAE17CEE
:10380000ACEBE1707047102BC4BF0020704703F58C
:10381000787CBCF1FF3F04D06FF0004282EA2100C7
:10382000704770B500F0DAF84992248000207047A4
:10383000F2E710F0004248BF4042B0FA80F310FABD
:1038400003F10AD0C3F11D0303F580634FEA415031
:1038500002EB035202EBD12170474FF0000070479A
:10386000B0FA80F310FA03F10AD0C3F11D0303F597
:1038700080634FEA41504FEA035202EBD121704777
:103880004FF0000070470000DFF848C170B51CEA37
:10389000111E1EBF1CEA13159EEA0C0F95EA0C0FB1
:1038A00000F06F8081EA030423EA4C134EEAD47ED1
:1038B00021EA4C1141F4801143F48013AE44A1FB82
:1038C000024CA0FB0365AEF17F7E361955EB0C056B
:1038D000A1FB034C4CF10003A0FB021C16EB0C06F1
:1038E000654153F10003094218BF46F0010613F485
:1038F000007F0BD14FEA03314FEA0530340341EA30
:10390000155140EA16506FF003020AE04FEAC32156
:103910004FEAC520F40241EA555140EA56506FF093
:10392000020202EB2E4201EB025585EACE710AD06B
:103930005FEA440C18BF24F0004450F1000041F14C
:10394000000120EAD47040F2FE7C624500D270BDD6
:10395000A84214BF4FF080444FF04044002E08BFEF
:103960000024BEF1806FA8BFA1F1C041BDE8704046
:1039700080F282804FF0000001F1C04101F000416F
:1039800070479EEA0C0F0CEA131518BF95EA0C0F4E
:1039900006D04FF0000081EA030E0EF0004170BD2A
:1039A00000F01CF88900013E00F007B800F009B8EB
:1039B0004FEA430C5FEA5C5C08D081EA030100F047
:1039C0005BB84FEA410C5FEA5C5CF6D14FF0000057
:1039D000014970470000FF070000F87F0EF1020E5A
:1039E0002EF0030E5EF8046B364205D4012A43EB39
:1039F000030515F5001F12D8012841EB010C1CF539
:103A0000001F0CD80ED14FEAD17C15F5001F0CEB2E
:103A10004C0C0CF1020C08BF4CEBD37C04E04FF0D3
:103A2000080C01E04FEAD37C0CEB4C0526FA05F6B6
:103A300006F00706B6F1040C06D20EEB860CBDE8C4
:103A400070404CF0010C6047DFE80CF0090B0202FB
:103A50004FF000414FF00000A1F5002170BD194664
:103A60001046012851EB010418BFD4F5001484BF9F
:103A7000002001F0004170BD0808A0F500114FEAD8
:103A80003101704791EA030F10B581F000413FF515
:103A9000A1AC83F0004300F009B8000010B591EA32
:103AA000030F48BF83F000433FF594AC841A71EBD9
:103AB000030C07D212198CF0004C43EB0C03001BD3
:103AC00061EB0C01DFF8A4E14FEA1154A4EB135CA5
:103AD0001EEA430F18BF9EEA445F00F0B08023EA5D
:103AE0006E03524221EA0451C3EB6E0338BF5B1EE2
:103AF000DCF1200E25D322FA0CFE10EB0E0043FA67
:103B00000CFE41EB0E01CCF1200E03FA0EFE10EB81
:103B10000E0051F10001CCF1200E29D412FA0EF260
:103B200001EB0451BDE8104058BF7047401C1CBF5A
:103B3000B2F1004F704700280CBF491C20F0010073
:103B4000704712EB020E43EB030218BF4FF0010E59
:103B50004EEA4202ACF1200CDCF11E0E54D943FABD
:103B60000CFE10EB0E0051F1FF31CCF11E0ED5D53D
:103B70000EF1010E12FA0EFE404141EB010101EB84
:103B8000445C5FEA5C5C10D910EBDE7001EB045121
:103B900038BFBEF1004FBDE8104018BF7047002885
:103BA0000CBF491C20F00100704730D24FEAD42CE2
:103BB00011F5001124F400641BD0B1FA81F20B3A24
:103BC000A41AA41ED2F12003914030FA03F3194342
:103BD000904001EBCC71002C01EB0451BDE810408A
:103BE000A8BF704701F1C0414FF0000001F0004153
:103BF0007047B0FA80F310FA03F100D110BDE41A57
:103C0000173C4805C90AE4E701EB045110BD49100F
:103C100001EB0451BDE810404FEA300002E04FF0E4
:103C2000000170474A0008BF0042F8D0B2F5001FFB
:103C300028BF704701F000414FF0000070479EEA36
:103C4000445F07D011EA5E0FBDE8104004BF0021B9
:103C500000207047BDE8104070B5FFF7BFFE00BF01
:103C600040DFF63E83F00041104670470000E0FF61
:103C700043004FEAD30C4FEA3C0C43401FBF4007C0
:103C80000CF1605113F0FE4F70471CF0006F03D130
:103C900000200CF0004170470CF0004343EA5070E4
:103CA00010B540EACC0000F0BAF900BF0000009265
:103CB0004FEA0001FFF7E0BE4FF000414FF0000077
:103CC000A1F500217047000090EA010F48BF81F084
:103CD000004100F12882421A3CBF801A89184FEA3D
:103CE000D0524FF07F4C1CEA410FA2EBD15318BFCA
:103CF0009CEA026F00F03B804FF0004C4CEA002041
:103D00004CEA012121FA03FC10EB0C0C1ED202F14B
:103D1000FF325FEA1C2040EBC25038BF70471CF0F6
:103D20007F0F4FEA400C18BFBCF17F4F38BF704780
:103D3000C3F12003994008BF20F00100BCF17F4F80
:103D400038BF7047A0F1C04000F0AFB94FEA3C0067
:103D5000000A40EBC25028BF1CF0FF0F4FEA400C96
:103D6000E6D018BFBCF17F4F38BF7047EAE79CEA46
:103D7000026F05D010EA5C0F08BF00F000407047EA
:103D800010B500F04CF900BF64FBBE3E401058BFB8
:103D9000C0F14040491058BFC1F140418142EFF3AA
:103DA0000080704750EA010C00F113801CF5000FF1
:103DB00058BFBCF5000F01D48842704707D710F5F3
:103DC000000F58BF11F5000F15D488427047894283
:103DD00070471CF5000F04D5BCF5000FF7D58142E4
:103DE00070474FF0807C1CEB400F38BF1CEB410F3D
:103DF00001D28142704710B500F011F992244900B8
:103E00004FF000504FF08051FFF7C0BF41000B0E44
:103E1000D3F19E0208D950F400034FEA032323FA9A
:103E200002F048BF4042704710B500F0F8F800BFFC
:103E300049922480002070476FF0004282EA2000FF
:103E400070470000C10DD1F19E0206DB4FEA00234E
:103E500043F0004323FA02F07047004207D54FEACF
:103E60004001B1F1FE4F02D24FF00000704710B593
:103E700000F0D5F849922480002070476FEA2000B6
:103E80007047000010F0004148BF4042B0FA80F394
:103E900010FA03F2C3F19D030BD051EAC35101EBB9
:103EA0001220530638BF704700F1010008BF20F010
:103EB0000100704750EA010C00F113801CF5000F5F
:103EC00058BFBCF5000F01D48842704707D710F5E2
:103ED000000F58BF11F5000F15D488427047894272
:103EE00070471CF5000F04D5BCF5000FF7D58142D3
:103EF00070474FF0807C1CEB400F38BF1CEB410F2C
:103F000001D28142704710B500F089F8922449002F
:103F10004FF000504FF08051FFF738BF4FF47F0C47
:103F20001CEAD0121EBF1CEAD11392EA0C0F93EACE
:103F30000C0F00F0478090EA010F48BF42F48072F6
:103F40004FF0004C4CEA00204CEA012102EB030246
:103F5000A0FB0113A2F50002002918BF43F00103E2
:103F60005B0028BF4FEA330342EB22425FEA132C87
:103F70004CEBC2502EBFBCEB436FB2F57C0F7047C9
:103F80004FEA036CBCF1004F08BF20F00100B2F50E
:103F90007C0F38BF70470BD582F0FF0212F5803FCF
:103FA000C8BF704700F1C040D8BF00F00040704764
:103FB00000F5000C5FEA4C0C48BF7047B0F1C04000
:103FC00000F073B890EA010F0CEAD11348BF42F435
:103FD0008072624538BF634504D280EA010000F078
:103FE0000040704710B500F01AF800BF8900013E8C
:103FF00000F007B800F009B85FEA410C5FEA1C6CFA
:1040000008D080EA010000F050B85FEA400C5FEA97
:104010001C6CF6D14FF00040A0F5800070470EF107
:10402000020E2EF0030E5EF8044B244204D44FEA35
:104030004102B2F17F4F11D84FEA4003B3F17F4FF5
:104040000CD80ED14FEAD07CB2F17F4F0CEB4C0C68
:104050000CF1020C08BF4CEBD17C04E04FF0080CD3
:1040600001E04FEAD17C0CEB4C0324FA03F404F09A
:104070000704B4F1040C06D20EEB840CBDE810402A
:104080004CF0010C6047DFE80CF0070802024FF02B
:104090000040A0F5800010BD0846420018BFD2F1D4
:1040A000807288BF00F0004010BDFF2141EAD0506F
:1040B000C005704751EA000C00F113801CF5000F99
:1040C00058BFBCF5000F01D48142704707D711F5E6
:1040D000000F58BF10F5000F15D481427047894278
:1040E00070471CF5000F04D5BCF5000FF7D58842CA
:1040F00070474FF0807C1CEB410F38BF1CEB400F2A
:1041000001D28842704780EA010081EA000180EA1A
:104110000100FFF7F8BE000090EA010F48BF81F0F0
:1041200000413FF5D8AD421A04D882F00042A0EB1E
:10413000020011444FEAD0524FF07F4C1CEA410F6D
:10414000A2EBD15318BF9CEA026F4AD04FF0004C4B
:104150004CEA00204CEA012121FA03FCB0EB0C0CE4
:104160000FD412F0FE0F36D05FEA4C001DD50012BE
:1041700040EBC25038BF70471CF03F0F18BF70476C
:104180000BE0A2F101025FEA1C2040EBC25038BFF5
:1041900070471CF07F0F18BF7047C3F12003994090
:1041A00014BF401E20F00100704780084FEA122320
:1041B00008BF7047B0FA80FCA2EB0C02CCF1280CCF
:1041C00060FA0CF093EA122F04BF00EBC250704764
:1041D0004FEAC3707047130A5FEADC1008BF7047EC
:1041E000F6E79CEA026F04D010EA5C0F08BF0020DB
:1041F000704710B5FFF713FF40DFF63E81F0004037
:104200007047FCF739B90CF00F03092B08BF0820E1
:1042100000F059800A2B0BD0082B18BF704708BF3D
:104220001CF0400F0AD04FF000004FF00001704723
:104230001CF0400F18BF4FF0004070471CF0100FEB
:1042400008D020F0704300F07F4242EAD3014FEAE9
:104250004370704700F0604021F07F4242EA000264
:1042600001F07F4040EA727070474FF0FF0C4CF451
:10427000E06C1CEA11531CBF9CEA030C9445C2BFBE
:10428000DA4201EB02517047002B0DD0BCF1000F58
:104290000FD0002A01F00041A4BF41F0E04141F0FD
:1042A0007F614FF00000704701F000414FF00000C7
:1042B000704750EA01334FF09B0C18BF4CF0806CF4
:1042C0007FF428A970471CF4801F11D01CF4E02F44
:1042D00003D06FEACC31490070474FF04050EFF304
:1042E000008222F0704242EA000282F300887047A6
:1042F0004FF00000704700004C5555555555A53FEF
:104300007751C1166CC156BF9015CB19A001FA3E6A
:10431000AD529C804F7E92BEC4B1B4BD9EEE213E94
:10432000D43888BEE9FAA8BD00004054FB21F93F0B
:104330003163621A61B4D03D0000601A61B4D03DAF
:104340007370032E8A19A33B0000002E8A19A33B29
:10435000C14920259A837B3900000000000000003D
:104360006E83F9A22915444ED15727FCC0DD34F5E0
:10437000999562DB4190433CAB6351FE61C5BBDE66
:104380003A6E24B7E0D24D42EA2E49061C92D1097A
:104390001CEB1DFE3EA729B1F53582E88444BB2EF7
:1043A00026709CE9417E5FB439D69139F439538344
:1043B0008B5F849C3B28F9BDFF97F81F0F9805DEA3
:1043C0008B112FEF1F6D0A5ACF7E366DB709CB27A1
:1043D000663F464F2DEA5F9EC7BA27757BF1E5EB36
:1043E000F739073DEA92528AB15FFB6B085D8D1F7A
:1043F000A6F810111111813FD561C119A0012ABF82
:104400007DFEB157E31DC73EEB9C2B8AE6E55ABE05
:104410007CD5CF5A3AD9E53D02400000000000A00B
:104420000000000005400000000000C8000000007F
:104430000C4000000000409C0000000019400000FB
:104440000020BCBE0000000034400000BFC91B8E2D
:1044500000000004B5400000504BCFD06607E2CF0B
:10446000010000006C4100003E8251AADFEEA7343B
:1044700001000000D9420000DCB5A0E23A301F97ED
:10448000FFFFFFFFB4450000FD25A0C8E9A3C14F11
:10449000FFFFFFFFFF3F0000000000800000000062
:1044A000FF3F000000000080000000000D0A2065B2
:1044B0006E636F6465722E765B305D2069732025B4
:1044C00066203B0D0A20656E636F6465722E765B15
:1044D000315D206973202566203B0D0A20656E63DF
:1044E0006F6465722E765B325D20697320256620CD
:1044F0003B0D0A20656E636F6465722E746172678E
:1045000065745F76656C6F636974795B305D206993
:1045100073202566203B0D0A20656E636F6465720B
:104520002E7461726765745F76656C6F6369747908
:104530005B315D206973202566203B0D0A20656E86
:10454000636F6465722E7461726765745F76656C03
:104550006F636974795B325D206973202566203B47
:104560000D0A0000A0450008000000203C000000EB
:104570006C010008DC4500083C000020F407000046
:10458000880100081C00000043000000F8FFFFFF46
:104590000C0000000E0000000F0000002E000000C4
:1045A00000A24A0400000000000000000102030411
:1045B00006070809000000000000000000000000DD
:1045C00000000102030401020304060708090204B3
:0C45D000060800000000000001000000D0
:04000005080001E509
:00000001FF
