:020000040800F2
:10000000F0080020D5010008F90E00085D0900087D
:10001000C90E0008AD0700087316000800000000B4
:10002000000000000000000000000000991000081F
:10003000B107000800000000810F0008AD110008A2
:10004000EF010008EF010008EF010008EF010008D0
:10005000EF010008EF010008EF010008EF010008C0
:10006000EF010008EF010008EF010008EF010008B0
:10007000EF010008EF010008EF010008EF010008A0
:10008000EF010008EF010008EF010008EF01000890
:10009000EF010008EF010008EF010008EF01000880
:1000A000EF010008EF010008EF010008EF01000870
:1000B000EF010008EF010008EF010008EF01000860
:1000C000EF010008EF010008EF010008EF01000850
:1000D000EF01000851140008EF010008EF010008CB
:1000E000EF010008EF010008EF010008EF01000830
:1000F000EF010008EF010008EF010008EF01000820
:10010000EF010008EF010008EF010008EF0100080F
:10011000EF010008EF010008EF010008EF010008FF
:10012000EF010008EF010008EF010008EF010008EF
:1001300000F002F800F03FF80AA090E8000C8244BA
:100140008344AAF10107DA4501D100F034F8AFF297
:10015000090EBAE80F0013F0010F18BFFB1A43F0A5
:1001600001031847E46A0000046B0000103A24BF42
:1001700078C878C1FAD8520724BF30C830C144BF0C
:1001800004680C607047000000230024002500264E
:10019000103A28BF78C1FBD8520728BF30C148BFEA
:1001A0000B607047642900F06780002070471FB51E
:1001B0001FBD10B510BD00F0CBFA1146FFF7F7FFD9
:1001C00003F0EAF800F0E9FA03B4FFF7F2FF03BC2A
:1001D00001F0D5FA0948804709480047FEE7FEE7E5
:1001E000FEE7FEE7FEE7FEE7FEE7FEE7FEE7FEE7E7
:1001F00004480549054A064B70470000B111000844
:1002000031010008F0020020F0080020F004002076
:10021000F0040020704710B54C1084EA530404D554
:100220004042C1F1000138BF491E1B4204D5524271
:10023000C3F1000338BF5B1E00F02EF914F0804FAD
:1002400004D04042C1F1000138BF491E14F0004FF4
:1002500004D05242C3F1000338BF5B1E10BD000042
:100260000FB4044910B503AA029800F0F1F910BCCC
:100270005DF814FB340000202DE9F041064600240F
:1002800010687529314616A510D0AFF300800028FC
:1002900002DA404213A507E031688A0701D512A5AA
:1002A00002E0490704D511A5012401E0AFF3008065
:1002B00000210A2206F1240709E0B0FBF2FCB0FBA2
:1002C000F2F302FB1C00303078541846491C002819
:1002D000F3D123462A463046BDE8F04100F05EB92E
:1002E000000000002D0000002B0000002000000096
:1002F0002DE9F05F894604464FF0000ADFF824B18B
:10030000FB44C0F820A02046E168884700287DD043
:10031000252806D0D4E901219047206A401C20629C
:10032000F1E700255F462046E16888472028064619
:1003300007DB312E05D2B81910F8200C08B105439F
:10034000F1E7A80701D525F00405C4F81CA0002793
:10035000C4F818A02A2E09D0304601F009FA38B3A3
:1003600004EB8708303EC8F8186019E059F8041B00
:10037000204604EB87029161E1688847012F064619
:1003800018D1E069002820DA25F020051DE0D8F812
:10039000180000EB800006EB40003038C8F8180069
:1003A0002046E1688847064601F0E2F90028EED1D0
:1003B000012F0AD02E2E08D12046E16888477F1CE5
:1003C0000646022F45F02005C4DBA069002803DAA9
:1003D000404245F00105A061E80701D025F0100575
:1003E000A6B1A6F14100192802D8203645F40065CF
:1003F0004A463146204625604D46FFF7D3FE60B1A0
:10040000012807D0ED1D25F0070000E007E000F10E
:10041000080978E705F1040975E730467AE7206AAC
:10042000BDE8F09FEE67000040EA010310B59B07AE
:100430000FD1042A0DD310C808C9121F9C42F8D04E
:1004400020BA19BA884201D9012010BD4FF0FF30FF
:1004500010BD1AB1D30703D0521C07E0002010BD15
:1004600010F8013B11F8014B1B1B07D110F8013BA1
:1004700011F8014B1B1B01D1921EF1D1184610BD82
:1004800002F0FF0343EA032242EA024200F0F4B81A
:10049000704770477047704753EA020C00F069805C
:1004A0002DE9F04B4FF00006002B1FBFB3FA83F588
:1004B00003FA05F424FA05F65E4012BF1643B2FAB9
:1004C00082F502FA05F4C5F120051EBF22FA05FCEB
:1004D00044EA0C04203556EA044C4FEA144418BF91
:1004E000641C4FF000084FF00009904271EB030CC0
:1004F00039D3002919BFB1FA81F701FA07F6B0FA2A
:1005000080F700FA07F6C7F120071EBF20FA07FCA4
:1005100046EA0C062037B6FBF4FCA7EB0507103FB4
:1005200007F01F0BCBF120060CFA0BFB2CFA06F69A
:1005300044BFB3460026202FA4BF5E464FF0000BF9
:100540005BEA060C08BF4FF0010B19EB0B09ABFB84
:10055000027C48EB0608C01B06FB02CC0BFB03CC5D
:1005600071EB0C01C1E70B46024641464846BDE827
:10057000F08B13B54FF000004FF00001AFF3008097
:10058000BDE81C40704710B500F096F8006810BD3B
:1005900010B5044600F090F8046010BD2DE9F04756
:1005A0000D4699469246044600F1240801688806E3
:1005B00004D5E06921F01001216000E00120A8428B
:1005C00001DD471B00E00027A1697A1902EB090051
:1005D000081AA0612078C00602D42046AFF300803C
:1005E000002608E0D4E901211AF806009047206AA5
:1005F000401C761C20624E45F4DB2078C0060AD5EC
:100600002046AFF3008006E0D4E901213020904776
:10061000206A401C2062381EA7F10107F4DC07E0C5
:10062000D4E9012118F805009047206A401C206297
:10063000281EA5F10105F3DC2046AFF300802078E9
:10064000000602D50220BDE8F0870120FBE700008C
:10065000074B70B50D467B4400F037F8044628463A
:1006600000F046F810B14FF0FF3070BD204670BD6D
:100670004F2600004FF000020429C0F0128010F055
:10068000030C00F03B80CCF1040CBCF1020F18BF4E
:1006900000F8012BA8BF20F8022BA1EB0C0100F001
:1006A0002DB85FEAC17C24BF00F8012B00F8012BB4
:1006B00048BF00F8012B7047004870478C020020AB
:1006C00001694A1C02610878704700B58FB0CDE916
:1006D00001310021059105497944CDE90310114606
:1006E0006846FFF705FE0FB000BD0000E5FFFFFF05
:1006F000007B00F0800070474FF0000200B5134609
:1007000094469646203922BFA0E80C50A0E80C5031
:10071000B1F12001BFF4F7AF090728BFA0E80C50E2
:1007200048BF0CC05DF804EB890028BF40F8042BDB
:1007300008BF704748BF20F8022B11F0804F18BF48
:1007400000F8012B70470000004870478C02002021
:100750007546FFF7F9FFAE4605006946534620F09F
:100760000700854618B020B5FFF742FDBDE82040E0
:100770004FF000064FF000074FF000084FF0000B5D
:1007800021F00701AC46ACE8C009ACE8C009ACE810
:10079000C009ACE8C0098D46704710B50446AFF3F8
:1007A00000802046BDE81040FFF70EBD00BFFEE709
:1007B00070472DE9F0410246002500260020002365
:1007C0000024002791F803C00CF00F0591F803C036
:1007D0000CF0100CBCF1000F03D091F802C04CEAF1
:1007E000050591F800C0BCF1000F31D0146800205D
:1007F0002BE04FF0010C0CFA00F3B1F800C00CEA4A
:1008000003069E4220D183004FF00F0C0CFA03F731
:10081000BC4305FA03FC4CEA040491F803C0BCF1A4
:10082000280F06D14FF0010C0CFA00FCC2F814C0DE
:100830000AE091F803C0BCF1480F05D14FF0010C5C
:100840000CFA00FCC2F810C0401C0828D1D3146078
:10085000B1F800C0BCF1FF0F34DD546800202EE079
:1008600000F1080C4FF0010808FA0CF3B1F800C0D1
:100870000CEA03069E4221D183004FF00F0C0CFAC4
:1008800003F7BC4305FA03FC4CEA040491F803C0E7
:10089000BCF1280F05D100F1080C08FA0CF8C2F8D9
:1008A000148091F803C0BCF1480F07D100F1080C87
:1008B0004FF0010808FA0CF8C2F81080401C082814
:1008C000CED35460BDE8F081F0B50A460023002481
:1008D0000021002500F00046B6F1004F02D11D4E68
:1008E000F16901E01B4E7168C0F3034583B200F467
:1008F0004016B6F5401F08D121F07061154E76689C
:1009000026F07066134F7E6012E000F48016B6F594
:10091000801F06D1032606FA05F4A14341F0706159
:1009200006E0460D360103FA06F6B14341F0706168
:1009300022B1460D360103FA06F6314300F00046B7
:10094000B6F1004F02D1034EF16101E0014E71603A
:10095000F0BD0000000001400161704700BFFEE7EC
:1009600010B5002140F60F6003F0A8FF00F0AEFACA
:1009700000F0A1FA10BD000010B500200E4908607B
:100980000E48006820F470400C4908600846006872
:1009900040F44050086000200949C1F8AC0100F063
:1009A00011F801200449086000F00CF80020044907
:1009B000C1F8A80110BD0000A8812142040C01402B
:1009C0000080214210B5022001F06EFB10BD000036
:1009D00008B50121082000F0E5FA4FF44060ADF8B9
:1009E000000010208DF8030003208DF802006946F6
:1009F0000448FFF7DEFE4FF440610248FFF7ACFF0A
:100A000008BD0000000C014010B500200E49086030
:100A10000E48006820F470400C49086008460068E1
:100A200040F44050086001200949C1F8AC01FFF7CB
:100A3000C9FF012004490860FFF7C4FF00200449F2
:100A4000C1F8A80110BD0000A8812142040C01409A
:100A50000080214270B5054600241648006820F445
:100A60007040144908600846006840F4004008607F
:100A7000002614E0002010490860FFF7A3FF0120C2
:100A80000E49C1F8A8016006040E0B487C380068C6
:100A900008B1601CC4B2FFF795FF701CC6B2082EE7
:100AA000E8DB15B9FFF7B0FF01E0FFF765FF20466F
:100AB00070BD0000040C0140A88121420080214249
:100AC00070B504461248006820F470401049086070
:100AD0000846006840F44050086000200D49086056
:100AE000002512E0E0090B49091D08606006040EAC
:100AF00001200949C1F8A801FFF764FF002005495A
:100B00000860FFF75FFF681CC5B2082DEADB70BD07
:100B1000040C0140A88121420080214210B50E48FA
:100B2000006820F470400C4908600846006840F4F2
:100B3000405008600120094908600949C1F8A8012E
:100B4000FFF740FF002005490860FFF73BFF00204A
:100B50000349C1F8A80110BD040C0140AC81214239
:100B60000080214210B50E48006820F470400C4906
:100B700008600846006840F44050086000200949B9
:100B800008600949C1F8AC01FFF71CFF01200549C5
:100B900008600549C1F8AC01FFF714FF10BD000063
:100BA000040C0140A88121420080214210B500249C
:100BB0001448006820F47040124908600846006834
:100BC00040F40040086001200F490860FFF7FAFE7A
:100BD00001200E49C1F8A801FFF7F4FE07E0601CF0
:100BE000C4B2FA2C03DDFFF7BDFF012010BD06489B
:100BF000803800680028F2D10349091F086000BF4F
:100C0000F4E70000040C0140AC8121420080214245
:100C100038B50121084600F0C5F90121042000F093
:100C2000C1F94FF40040ADF8000010208DF803002A
:100C300003208DF8020069462248FFF7BAFD012122
:100C40002148FFF741FE002020490860FFF7C0FE61
:100C500080216B2000F0DDF8642001F0FFF9002115
:100C60006B2000F0D6F8032000F091F8002000F08F
:100C700086F8322000F0B0F80021382000F0C9F8E2
:100C800000216A2000F0C5F80021232000F0C1F8FF
:100C90008021372000F0BDF8752000F019F80446D7
:100CA000682C0BD101216B2000F0B3F800216C20DF
:100CB00000F0AFF8322000F08FF801E0012038BDDD
:100CC0000020FCE70008014000023000BC01214286
:100CD00070B50446FFF722FFD020FFF7F1FEFFF7C3
:100CE00065FF2046FFF7ECFEFFF760FFFFF716FFFA
:100CF000D120FFF7E5FEFFF759FF0020FFF7AAFE1E
:100D00000546FFF72FFF284670BD2DE9F041064646
:100D10000F4614461D46FFF701FF002141EA460138
:100D2000C8B2FFF7CDFEFFF741FF20B1FFF71AFF72
:100D30000120BDE8F0813846FFF7C2FEFFF736FF1D
:100D4000FFF7ECFE012101EB4601C8B2FFF7B8FE48
:100D5000FFF72CFF0DE0012C04D10020FFF77AFEF5
:100D6000287003E00120FFF775FE2870601EC4B2F2
:100D70006D1C002CEFD1FFF7F5FE0020D9E710B570
:100D80000446E006010E1C2000F043F810BD10B52B
:100D90000446E006010E1B2000F03BF810BD70B5C4
:100DA00004460025BC2C01DB012510E0622C01DB90
:100DB00002250CE02A2C01DB032508E0142C01DBC2
:100DC000042504E00A2C01DB052500E00625294660
:100DD0001A2000F01EF870BD70B50446B4F57A7F95
:100DE00001DD4FF47A74042C00DA04244FF47A7095
:100DF00090FBF4F0401EC5B22946192000F009F816
:100E00000546264604EBD671C1F34F00FFF7C7FF36
:100E100070BD70B505460C46FFF780FED020FFF789
:100E20004FFEFFF7C3FE18B1FFF79CFE012070BD17
:100E30002846FFF745FEFFF7B9FE2046FFF740FEC4
:100E4000FFF7B4FE18B1FFF78DFE0120EFE7FFF7C3
:100E500089FE0020EBE72DE9F04105460E461746D6
:100E60009846FFF75BFE002141EA4501C8B2FFF753
:100E700027FEFFF79BFE20B1FFF774FE0120BDE8BF
:100E8000F0813046FFF71CFEFFF790FE00240CE0D7
:100E900018F80400FFF714FEFFF788FE18B1FFF7FB
:100EA00061FE0120EBE7601CC4B2BC42F0DBFFF73F
:100EB00059FE0020E3E710B5FFF7AAFE00BF02F0DD
:100EC0009BFC0028FBD110BD00BFFEE708B5012147
:100ED000102000F067F80F20ADF8000010208DF80A
:100EE000030003208DF8020069460248FFF761FC09
:100EF00008BD0000001001407047000070B50021DF
:100F000000230F22C47804B3154C246804F4E06471
:100F1000C4F5E064210AC1F10403CA40447804FA2C
:100F200003F184781440214309010E4C0678A15541
:100F3000047804F01F050124AC4005786D11AD0064
:100F400005F1E025C5F8004109E0047804F01F052B
:100F50000124AC40044D0678761145F8264070BD5A
:100F60000CED00E000E400E080E100E00249014314
:100F7000024A1160704700000000FA050CED00E025
:100F80007047000029B1064AD2690243044BDA6176
:100F900004E0034AD2698243014BDA6170470000E2
:100FA0000010024029B1064A92690243044B9A613B
:100FB00004E0034A92698243014B9A617047000042
:100FC0000010024030B500210022002400232D4DE6
:100FD0006D6805F00C0121B1042905D0082923D141
:100FE00005E0294D056022E0274D05601FE0254DF5
:100FF0006D6805F47012234D6D6805F48034022588
:1010000005EB92421CB9214D554305600BE01D4D87
:101010006D6805F400351DB11C4D5543056002E0B7
:10102000194D5543056002E0174D056000BF00BF34
:10103000144D6D6805F0F0010909154D6B5C0568EC
:10104000DD4045600F4D6D6805F4E061090A104D03
:101050006B5C4568DD4085600A4D6D6805F4605144
:10106000C90A0B4D6B5C4568DD40C560054D6D6878
:1010700005F44041890B074D6B5CC568B5FBF3F582
:10108000056130BD0010024000127A0000093D00E9
:101090003A0000204A000020704710B500F002F826
:1010A00010BD00000CB5002001900090334800688E
:1010B00040F480303149086000BF3048006800F4D7
:1010C000003000900198401C0190009818B90198D8
:1010D000B0F5A06FF1D12948006800F4003010B1DC
:1010E0000120009001E0002000900098012843D1E9
:1010F0002348006840F01000214908600846006855
:1011000020F0030008600846006840F00200086014
:101110001A484068194948600846406848600846CF
:10112000406840F4806048600846406820F47C10C5
:1011300048600846406840F4E81048600846006887
:1011400040F08070086000BF0C48006800F000703C
:101150000028F9D00948406820F00300074948609A
:101160000846406840F00200486000BF03484068FD
:1011700000F00C000828F9D10CBD0000001002405E
:1011800000200240042808D14FF0E021096941F015
:1011900004014FF0E022116107E04FF0E0210969FE
:1011A00021F004014FF0E022116170477047000008
:1011B00010B51348006840F0010011490860084666
:1011C0004068104908400E494860084600680E49CA
:1011D00008400B4908600846006820F48020086039
:1011E0000846406820F4FE0048604FF41F00886005
:1011F000FFF753FF4FF000600449086010BD000086
:10120000001002400000FFF8FFFFF6FE08ED00E0CE
:1012100021B1028842F08002028004E002884FF689
:101220007F731A400280704721B1028842F00102A8
:10123000028004E002884FF6FE731A400280704775
:1012400070B5002400220023058C4FF6FE76354051
:101250000584028C8388048B4FF68F752C40B51E55
:101260002C400D882C43751E2A400D892A434D8839
:101270002A43144DA8420BD0134DA84208D0134D59
:10128000A84205D0124DA84202D0124DA84213D157
:101290004FF6F7752A404D892A434FF6FB752A40D1
:1012A0008D882A434FF6FF652B404FF6FF552B40A4
:1012B0008D892B43CD892B4383800483CD888586FC
:1012C000028470BD002C0140003401400040014008
:1012D00000440140004801400A460021018B4FF6BE
:1012E000F7731940114301837047000070B5002463
:1012F00000220023058C4FF6EF7635400584028CE2
:101300008388048B48F6FF752C404FF6FF452C4030
:101310000D884FF6FF7606EA05252C434FF6DF755C
:101320002A400D8906EA05152A434D8806EA051567
:101330002A43154DA84202D0144DA8421DD14FF6A4
:101340007F752A404D894FF6FF7606EA05152A4338
:101350004FF6BF752A408D8806EA05152A434FF6D9
:10136000FF352B404FF2FF752B408D8906EA85052E
:101370002B43CD8906EA85052B4383800483CD88E2
:101380000587028470BD0000002C0140003401403C
:101390000A460021018B4FF2FF7319404FF6FF738D
:1013A00003EA0223194301837047000000220288E8
:1013B0001D4B98420ED01D4B98420BD0B0F1804F80
:1013C00008D01B4B984205D01A4B984202D01A4BBA
:1013D000984204D14FF68F731A404B881A43174B2B
:1013E000984207D0164B984204D04FF6FF431A405C
:1013F000CB881A4302808B8883850B8803850A4B30
:1014000098420BD0094B984208D00E4B984205D019
:101410000D4B984202D00D4B984201D10B7A0386B6
:101420000123838270470000002C014000340140FA
:101430000004004000080040000C00400010004084
:1014400000140040004001400044014000480140B9
:1014500010B540F225511D4800F04AF810B31B4862
:1014600000F002F9C4B21A48008800F40040C8B97C
:101470001748008800F4804060B10A2C03D0002097
:101480001349088020E01248008840F400401049C9
:10149000088019E00D2C06D10D48008840F48040EA
:1014A0000B49088010E00A480088C0F30D00094984
:1014B0000C5407480088401C0549088008460088ED
:1014C000C72801DD0020088010BD00000038014061
:1014D00038000020FC00002021B1828942F4005233
:1014E000828104E082894DF6FF731A408281704741
:1014F00070B50246002400230025002040F66A163D
:10150000B14200D100BFC1F3421501F01F03012613
:1015100006FA03F3012D02D19689334006E0022D2D
:1015200002D1168A334001E0968A33400C1201261C
:1015300006FA04F41688344013B10CB1012000E01F
:10154000002070BDF0B503460024002600250020D1
:1015500040F66A17B94200D100BF1846C1F34214E1
:1015600001F01F06012707FA06F5012C01D10C3006
:1015700004E0022C01D1103000E014301AB10768E9
:101580002F43076002E00768AF430760F0BD00002B
:101590002DE9F04786B005460E460024A24600BF5E
:1015A000A1460027B08900B100BF2F462C8A4CF617
:1015B000FF700440F08804432C82AC894EF6F3108F
:1015C0000440B08831890843718908430443AC81E1
:1015D000AC8A4FF6FF400440B0890443AC8201A8B6
:1015E000FFF7F0FC1F48874202D1DDF810A001E0B0
:1015F000DDF80CA0A88900F4004040B10AEBCA0055
:1016000000EB0A1031684900B0FBF1F807E00AEB83
:10161000CA0000EB0A1031688900B0FBF1F86420C1
:10162000B8FBF0F004012009642101FB1089A889AE
:1016300000F4004040B1322000EBC900B0FBF1F0F3
:1016400000F00700044308E0322000EB0910642199
:10165000B0FBF1F000F00F0004432C8106B0BDE8B0
:10166000F08700000038014001468888C0F3080078
:10167000704700BFFEE7490050EAC12018BF0420B0
:101680004A0D18BF40F0010040F2FF72B2EB515F0B
:1016900008BF40F00200012808BF052070472DE96F
:1016A000F0414F1E00EBC7010446D1E90001154689
:1016B0001E4637F006020DD02A46334603F004FDDD
:1016C0007F1E04EBC703D3E9002303F0F5FA37F0DC
:1016D0000602F1D1022F25D0042F13D0062F18BFF8
:1016E000BDE8F0812A46334603F0EEFCD4E90A2334
:1016F00003F0E2FA2A46334603F0E6FCD4E9082375
:1017000003F0DAFA2A46334603F0DEFCD4E9062376
:1017100003F0D2FA2A46334603F0D6FCD4E9042378
:1017200003F0CAFA2A46334603F0CEFCD4E902237A
:1017300003F0C2FA2A46334603F0C6FCD4E900237C
:10174000BDE8F04103F0B8BA012204F068BB03F031
:10175000B3BA002213461046114603F05DBB0000E9
:10176000024A0020110704F05ABB000001FDFFFFF0
:1017700030380A2801D20120704700207047014606
:1017800000BF704710B504460021204604F06EFAF1
:1017900000D201E084F00044204604F01BF980B23E
:1017A00010BD00002DE9FE4F06460F460025684695
:1017B00001F088FA002442E056F8240057F824107B
:1017C000A0EB010ABAF1000F01DB514601E0CAF1BA
:1017D0000001084604F01EF983464FF08F4103F0E4
:1017E000E7FF80465DF82400002104F0A3F816D03E
:1017F0005DF82410404603F0DBFF82464FF07E5137
:1018000004F066FA814629F0004A0F48416A5046C2
:1018100004F02CFA12D20120A04005430EE00A4841
:10182000C169404604F022F905D30748016A4046E1
:1018300004F01CFA02D20120A0400543641C032CD2
:10184000BADB2846BDE8FE8FD45E00082DE9F04DD6
:101850008D4F21F0004A86B005460C46BA452ADB7A
:10186000AAEB070028430AD08848824501DC1AD138
:10187000CDB106B02846BDE8F04DFFF765BF844AFC
:10188000844B284603F020FC07460E46824A834BD1
:101890002846214603F018FC06B03A463346BDE818
:1018A000F04D03F009BA0120FEF772FE06B0BDE864
:1018B000F04DFFF74EBF7A48824542DABAF1795FC0
:1018C0000BDA2846FFF7D7FE042808BFFFF748FFCA
:1018D000284606B02146BDE8F08D2A460B46104644
:1018E00003F0F2FB834602466E480E460B46062185
:1018F0007844FFF7D4FE5A46334603F0E5FB8046B2
:1019000069488A465A46334604217844FFF7C7FEA1
:101910005A46334603F0D8FB00223B4603F0CCF98D
:1019200002460B464046514603F076FA2A462346C5
:1019300003F0CAFB06B02A462346BDE8F04D03F08B
:10194000BBB9284624F0004100223D463B4603F047
:10195000B9FC4FF0FF3204F062FA064602465348E3
:101960000F460B4606217844FFF799FE32463B4668
:1019700003F0AAFBCDE900014D4832463B46042165
:101980007844FFF78CFE32463B4603F09DFB002275
:101990002B4603F091F9834602913046394603F015
:1019A000E3F8804643480D46504517DCDDE9000169
:1019B0005A46029B03F030FA42462B4603F084FB62
:1019C00042462B4603F078F9012204F028FA304A07
:1019D000304B03F069FD304A304B4CE04FF0000AC9
:1019E00052460B46404603F067F9CDE903105246D4
:1019F0002B461046194603F067FB32463B4603F080
:101A000061FCDDE9033203F007FA06460F46DDE923
:101A100000015A46029B03F0FFF983460091012220
:101A20003046394604F0FBF9194A1A4B03F04AFCD8
:101A300006460F4601224046294604F0F0F95A4670
:101A4000009B03F041FB32463B4603F02DFD06466A
:101A50000F4601225046294604F0E1F90E4DDFF809
:101A600058802A46434603F02DFC32463B4603F09D
:101A700029FC2A46434603F025FC002CD8BF81F000
:101A8000004106B0BDE8F08D0000F03F0000F07F9F
:101A9000075C143326A6913C182D4454FB21F93FD2
:101AA0000000E03F145200002A5200009E51000046
:101AB000B45100003333EF3FFB21E93F2DE9F84FEC
:101AC00004460D4621F0004000917349814211DC2B
:101AD0007249884201DC06D12CB120462946BDE876
:101AE000F84FFFF731BE6E48002DCCBF6D496E49EF
:101AF000BDE8F88F6D49814211DD6D498142D8BF43
:101B00004FF0FF366DDD20462946FFF7B4FD04286F
:101B100008BFFFF725FE20462946BDE8F88F654936
:101B2000654F25F00045814233DD6449814219DD6E
:101B3000002632464FF080432046294603F0BCF889
:101B400080468A4601222046294604F068F9002290
:101B50003B4603F0A9FC4246534603F05DF90446B8
:101B60000D463EE001260022BA463B462046294665
:101B700003F0A2F880460F4600225346204629462D
:101B800003F092FC42463B4603F046F904460D46FC
:101B900027E04B4981421BDDDFF828A10226002205
:101BA00053462046294603F08FFA00223B4603F0B5
:101BB00083F880460F46002253462046294603F00C
:101BC00073FC42463B4603F027F904460D4608E005
:101BD000032622462B4600203B4903F01DF904460C
:101BE0000D4622462B461046194603F06DFA8B46E9
:101BF000824602460B4603F067FA07460246334820
:101C000088460B4606217844FFF749FD52465B465D
:101C100003F05AFA82462E488B463A46434605213F
:101C20007844FFF73CFD3A46434603F04DFA02463E
:101C30000B46002E504659460CDA03F03DF822467A
:101C40002B4603F041FA01B022462B46BDE8F04F87
:101C500003F038BB03F030F822462B4603F034FA89
:101C60001C4A7A4402EBC603D3E9002303F01CFCB0
:101C700022462B4603F018FC174A7A4402EBC603AF
:101C8000D3E9002303F01EFB009A002AB8BF81F0BD
:101C90000041BDE8F88F0000000010440000F07F14
:101CA000182D4454FB21F93FFB21F9BF0000DC3F14
:101CB0000000203E0000F33F0000F03F0000E63F40
:101CC000008003400000F83F0000F0BFB64F000066
:101CD000744F0000124F0000DA4E00002DE9F04D65
:101CE0009446CCF1000423F000464CEA0404524F21
:101CF00046EAD4749A46884621F00042BC4206D88F
:101D0000454240EA050442EAD474BC4204D9BDE825
:101D1000F04D6246FFF71BBDAAF14055A5F17F6566
:101D200055EA0C040BD0022404EAAA74434DDFF8F0
:101D300010E144EAD87452EA000B04D00CE0BDE88C
:101D4000F04DFFF7BBBE002C14BF012CBDE8F08D99
:101D5000022C30D0032C32D056EA0C0B0AD0BE42F3
:101D600020D1BA4209D126F0804622F08042334683
:101D7000114617E000291ADB25E0DFF8C8B0FB4464
:101D8000002C04BFDBE90001BDE8F08D012C02BF8F
:101D9000DBE9000181F00041BDE8F08D022C0AD0A2
:101DA000032C0CD0BA4212D1B8F1000F0BDA234841
:101DB0002549BDE8F08D28462449BDE8F08D284628
:101DC0007146BDE8F08D1D482149BDE8F08D921B9C
:101DD00012153C2AC4BF19481D490EDCBAF1000F88
:101DE000BEBF12F13C0F0020014606DB624603F045
:101DF00013F821F00041FFF761FE002C08BFBDE899
:101E0000F08D012C04BF81F00041BDE8F08D114A36
:101E1000114B022C07D003F047FB2A46BDE8F04DDA
:101E20000A4B03F041BB03F03FFB2A46BDE8F04DEF
:101E3000064B03F047BA00000000F07F182D445411
:101E4000FB2109C06E4E0000FB21F9BFFB210940B8
:101E5000FB21F93F075C143326A6A13C2DE9F04194
:101E600004464A4801684A48006803F031FF0546C5
:101E7000002103F0FBFD12D2464908694449096874
:101E800003F026FF0546002103F0F0FE07D240488C
:101E90000068414908600120404908701CE03B4847
:101EA00001683B48006803F013FF0546002103F07A
:101EB000DDFE11D2374908693549096803F008FF8A
:101EC0000546002103F0D2FD06D2314800683449AE
:101ED00008600120334908703048007800284BD052
:101EE00030480078002847D000202E4908702B4940
:101EF00008702B4801682848006803F0EBFB054692
:101F00004FF0804103F054FC2749086027480168DE
:101F10002548006803F0DCFE0546214603F0A6FED6
:101F20002AD2224801682048006803F09FFE0ED2A2
:101F30001E48006803F0A2FB054600221C4B03F07C
:101F4000B3FA074602F086FE1849086014E0174805
:101F500001681548006803F089FD0DD21348006838
:101F600003F08CFB05460022114B02F0A5FE07464C
:101F700002F070FE0D4908600648006904490860D7
:101F80000846006801490860BDE8F08108000020AB
:101F900004000020600200200C0000201800002037
:101FA0001000002019000020140000200000002074
:101FB0000000E03F2DE9F0410446E07800F0C00663
:101FC000E07800F03F05607800F0010098B1EF1074
:101FD0002846E91705EB5171C910A5EBC101491C51
:101FE00001F0FF080B48006820B10A48414602682A
:101FF0003846904700BF607800F0080030B10548CF
:10200000406818B1B011034A516888470020BDE804
:10201000F08100007C02002010B56FF00400FFF793
:10202000B1F80A4800680A49B0FBF1F009490870A4
:102030000846007800EB4001C1EBC0104FF6FF717D
:1020400001EAC0000449088010BD00001C00002007
:1020500000127A0030000020320000200146114AB0
:1020600012884A434FF0E0235A6100229A611A46CF
:10207000126942F001021A6100BF4FF0E0221069BC
:1020800000F001021AB100F48032002AF5D04FF0BE
:10209000E022126922F001024FF0E0231A610022CF
:1020A0009A617047320000200146114A12784A4373
:1020B0004FF0E0235A6100229A611A46126942F0F9
:1020C00001021A6100BF4FF0E022106900F0010226
:1020D0001AB100F48032002AF5D04FF0E0221269E4
:1020E00022F001024FF0E0231A6100229A6170474A
:1020F0003000002038B5044664B120208DF800007F
:1021000028208DF8010030208DF8020038208DF84D
:10211000030004E0A32204216846FEF7B1F96A46F1
:10212000042140F69E2002F009FB01F0F3FE38BDC9
:102130003EB5044602208DF80000CA208DF801004B
:10214000E3208DF8020009208DF803006A4604217F
:10215000682002F0F3FAA3208DF8000004F040009C
:1021600048B1C0208DF80100C8208DF80200C220BF
:102170008DF8030006E0A3208DF801008DF8020021
:102180008DF8030004F4C07048B1C4208DF8040039
:10219000CC208DF80500C6208DF8060006E0A320AF
:1021A0008DF804008DF805008DF80600A3208DF849
:1021B00007008DF808008DF809006A460A2140F6EC
:1021C000A72002F0BBFA04F0030018B120208DF81C
:1021D000000002E0D8208DF800006A46012140F698
:1021E000B62002F0ABFA04F0200018B1012000F094
:1021F000ADF802E0002000F0A9F804F4C07008B3C4
:1022000004F4807060B1B2208DF800008B208DF84E
:102210000100B6208DF802009B208DF803000BE032
:10222000B0208DF8000080208DF80100B4208DF8DA
:10223000020090208DF803006A46042140F6A22097
:1022400002F07CFA04F0010020B3F8208DF80000C1
:102250006A4601214FF40B6002F070FAFA21072060
:1022600000F02CFC072000F0F3FB012000F013FC31
:10227000642000F0F3FC4FF4FA7000F002FDC82176
:10228000304800F0A3FB282000F0BCFB0A2000F03F
:10229000CCFB08E0D8208DF800006A4601214FF4FD
:1022A0000B6002F04BFA04F0020018B1D9208DF84F
:1022B000000002E0D8208DF800006A46012140F2BB
:1022C0003D7002F03BFA04F0040018B1012000F068
:1022D00069F802E0002000F065F804F0100018B181
:1022E0000120FFF707FF02E00020FFF703FF44F0A3
:1022F00008001549488101F00DFE0020124988733D
:1023000004F0400018B10846807B801D887304F4F7
:10231000C07020B10C48807B801D0B49887304F08D
:10232000140020B10848807B10300749887304F0FE
:10233000030020B10448807B001D034988730020FE
:102340003EBD000009E3CA027C0200203EB50446FF
:102350006CB10EA1D1E900208968CDE9002002917D
:102360006A4609214FF4976002F0E8F93EBD0AA2DF
:10237000D2E900109268CDE9010200916A46092174
:102380004FF4976002F0DAF9F0E70000B8AAB38DD5
:10239000B4980D355D000000B8AAAAAAB088C3C5DC
:1023A000C700000038B5044664B1C0208DF80000B5
:1023B000C2208DF80100C4208DF80200C6208DF8DF
:1023C000030004E08B2204216846FEF759F86A46B0
:1023D000042140F6982002F0B1F901F09BFD38BDD0
:1023E00010B5C8234FF48062024940F6F63001F080
:1023F00025FC10BDFC5E00082DE9F04F8DB00746AE
:10240000884615469946DDE9166B00240020308089
:102410006B49887B5A4605A901F0DCFC18B1601EA7
:102420000DB0BDE8F08F6648807A00F014000028F7
:1024300067D09DF8140000069DF8151040EA014091
:102440009DF8161040EA01209DF8171008432860F7
:102450009DF8180000069DF8191040EA01409DF80B
:102460001A1040EA01209DF81B10084368609DF88F
:102470001C0000069DF81D1040EA01409DF81E104A
:1024800040EA01209DF81F100843A8609DF8200035
:1024900000069DF8211040EA01409DF8221040EA14
:1024A00001209DF823100843E86004F11000C4B235
:1024B000286800140190686800140290A86800144D
:1024C0000390E8680014049001984043029901FBCE
:1024D0000100039901FB0100049901FB010ABAF113
:1024E000706F02DBBAF1885F05DD01F013FD00209B
:1024F0003080401E94E7B6F9000040F480703080D0
:1025000000BF2F48807A00F0400020B305A9601C6E
:10251000085C095D40EA012000B2A8F8000005A9A6
:10252000E01C095C05AAA01C105C41EA002000B276
:10253000A8F8020005A9601D095C201D105C41EA95
:10254000002000B2A8F80400A01DC4B2B6F9000033
:1025500040F0080030801A48408900F4C07008B389
:1025600005A9601C085C095D40EA012000B23880C2
:1025700005A9E01C095C05AAA01C105C41EA00202A
:1025800000B2788005A9601D095C201D105C41EA3D
:10259000002000B2B880A01DC4B2B6F9000040F01F
:1025A000700030800648807A00F0030018B105A959
:1025B0000819FFF7FFFC484600F0D2FF00202FE784
:1025C0007C02002070B588B0064601A801F08AF9A7
:1025D000BDF804000021C90341EA5045C403444842
:1025E000007A00F0030056F8200005904048007A79
:1025F00000F0040010B10598404205903C48007A74
:10260000C0F3C10056F8200006903948007A00F067
:10261000200010B10698404206903548007AC0F379
:10262000811056F8200007903148008900F480702E
:1026300010B10798404207900598C117A0FB0423EA
:1026400001FB043100FB0510810041EA9270059006
:102650000698C117A0FB042301FB043100FB051001
:10266000810041EA927006900798C117A0FB0423ED
:1026700001FB043100FB0510810041EA92700790D4
:102680000598000E8DF808000598000C8DF80900DB
:102690000598000A8DF80A000598C0B28DF80B0065
:1026A0000698000E8DF80C000698000C8DF80D00B1
:1026B0000698000A8DF80E000698C0B28DF80F003B
:1026C0000798000E8DF810000798000C8DF8110087
:1026D0000798000A8DF812000798C0B28DF8130011
:1026E00002AA0C214FF4257002F028F808B070BD42
:1026F0007C02002030B585B0044616A207CA02ABA2
:1027000007C3C82C03DD4FF0FF3005B030BDC82033
:1027100090FBF4F0401E85B2280A8DF80000E8B264
:102720008DF801006A46022140F2162002F006F8F8
:1027300010B14FF0FF30E8E702AA0C2140F6C120AB
:1027400001F0FCFF10B14FF0FF30DEE70448848158
:102750000020DAE7FEF2ABC4AAF1DFDFBBAFDFDFB8
:102760007C0200201FB504464848007A00F00300B0
:1027700054F8200001904548007A00F0040010B1A0
:102780000198404201904148007AC0F3C10054F8DA
:10279000200002903D48007A00F0200010B102981D
:1027A000404202903948007AC0F3811054F820006A
:1027B00003903648008900F4807010B103984042BD
:1027C00003903349019880FB0101800F40EA8100AA
:1027D00001902F49029880FB0110820042EA91701B
:1027E00002902B49039880FB0110820042EA91700D
:1027F00003900198000E8DF800000198000C8DF8F0
:1028000001000198000A8DF802000198C0B28DF80D
:1028100003006A4604214FF4747001F08FFF18B171
:102820004FF0FF3004B010BD0298000E8DF800008C
:102830000298000C8DF801000298000A8DF8020041
:102840000298C0B28DF803006A4604214FF47570F7
:1028500001F074FF10B14FF0FF30E3E70398000E72
:102860008DF800000398000C8DF801000398000A11
:102870008DF802000398C0B28DF803006A46042167
:102880004FF4767001F05AFFCCE700007C02002084
:1028900009E3CA0210B586B0044647A00068039059
:1028A00046A00068029046A00068019045A000681C
:1028B000009004F0030003A9085C8DF8140003A83D
:1028C000C4F3C101405C8DF8150003A8C4F3811165
:1028D000405C8DF8160004F0030002A9085C8DF836
:1028E000100002A8C4F3C101405C8DF8110002A8D9
:1028F000C4F38111405C8DF8120005AA032140F257
:10290000264001F01BFF18B14FF0FF3006B010BD9C
:1029100004AA032140F22A4001F010FF10B14FF049
:10292000FF30F3E7019805900098049004F004004C
:1029300058B19DF8140040F001008DF814009DF886
:10294000100040F001008DF8100004F0200058B194
:102950009DF8150040F001008DF815009DF811005C
:1029600040F001008DF8110004F4807058B19DF81A
:10297000160040F001008DF816009DF8120040F09E
:1029800001008DF8120005AA03214FF4886001F0C0
:10299000D5FE10B14FF0FF30B8E704AA032140F292
:1029A000314001F0CBFE10B14FF0FF30AEE70648EA
:1029B00004810020AAE700004CCD6C000CC92C005B
:1029C00036567600264666007C020020F8B505469D
:1029D0000E464FF47A7095FBF0F000FB06F4200EE3
:1029E0008DF80000200C8DF80100200A8DF80200FF
:1029F000E0B28DF803006A4604214FF4AE7001F096
:102A00009DFEF8BD38B50446052094FBF0F084B275
:102A100020128DF80000E0B28DF801006A46022114
:102A20004FF4AD7001F08AFE38BD38B5044605207C
:102A300094FBF0F084B220128DF80000E0B28DF823
:102A400001006A4602214FF4AC7001F077FE38BDF8
:102A500038B504460020009004F0010020B19DF834
:102A6000000040F03000009004F0020020B19DF81A
:102A7000000040F00C00009004F0040020B19DF82C
:102A8000000040F0030000906A4601214FF4A4705A
:102A900001F054FE38BD38B50446012C01DA01249A
:102AA00002E0042C00DD0424601EC0B200906A46DF
:102AB000012140F24F1001F041FE38BD2DE9FC47E5
:102AC00006460F4606F0070010B1B7F5C86F03DDE4
:102AD0004FF0FF30BDE8FC87384602F0B3FF814677
:102AE000594902F065FE8046684600F0D5FE9DF823
:102AF0000000022806D0042816D0082826D0102866
:102B000048D135E04FF08D41404602F0E3FF814669
:102B100002F060FF84B24D49404602F0DBFF81467F
:102B200002F058FF85B238E04FF08C41404602F089
:102B3000D1FF814602F04EFF84B24549404602F083
:102B4000C9FF814602F046FF85B226E04FF08B4177
:102B5000404602F0BFFF814602F03CFF84B23D498F
:102B6000404602F0B7FF814602F034FF85B214E020
:102B70004FF08A41404602F0ADFF814602F02AFF45
:102B800084B23549404602F0A5FF814602F022FF9B
:102B900085B202E04FF0FF309CE700BF20128DF8B5
:102BA0000400E0B28DF8050028128DF80600E8B2A6
:102BB0008DF8070006F00100A0B101AA02214FF430
:102BC000EA7001F0BBFD10B14FF0FF3082E70DF16C
:102BD000060202214FF4927001F0B0FD10B14FF0E7
:102BE000FF3077E706F00200A0B101AA02214FF4FE
:102BF000EC7001F0A3FD10B14FF0FF306AE70DF16A
:102C0000060202214FF4947001F098FD10B14FF0CC
:102C1000FF305FE706F00400A0B101AA02214FF4E3
:102C2000EE7001F08BFD10B14FF0FF3052E70DF167
:102C3000060202214FF4967001F080FD10B14FF0B2
:102C4000FF3047E7002045E70000484300004046CA
:102C50000000C045000040450000C04438B50446AF
:102C6000052094FBF0F085B228128DF80000E8B240
:102C70008DF801006A4602214FF4EF7001F05EFD0D
:102C800038BD38B50446052094FBF0F085B2281213
:102C90008DF80000E8B28DF801006A4602214FF479
:102CA000ED7001F04BFD38BD00BF054A128802F0FF
:102CB0004002002AF9D0C2B2014B1B1D1A80704796
:102CC000003801407CB5054628494968087801ABC1
:102CD00004220D21FEF719F808B107207CBD9DF8EC
:102CE0000700C0F301109DF8041001F0E00140EA74
:102CF000E1008DF800009DF80700C0F381009DF809
:102D0000051001F0E00140EAE1008DF801009DF8B6
:102D1000070000F003009DF8061001F0E00140EA12
:102D2000E1008DF8020000241CE01DF8040018B931
:102D3000002045F8240013E00D4845F8240006E083
:102D400055F824000B4902F0C5FE45F824001DF893
:102D50000400401EC0B20DF804000028F0D100BFEE
:102D6000601CC4B2032CE0DB0020B7E75C0000204D
:102D70007B14AE3E1D5A843F2DE9F04F87B00546C7
:102D80000C46914601208DF8100000208DF81100AE
:102D9000FE4A1268917CFD4A5268107804AB022208
:102DA000FEF759F820B14FF0FF3007B0BDE8F08FC3
:102DB000C820FFF753F900208DF81000F34A12687D
:102DC000D17BF24A5268107804AB0122FEF743F837
:102DD00010B14FF0FF30E8E7EC4A12685179EB4A46
:102DE0005268107804AB0122FEF735F810B14FF0AD
:102DF000FF30DAE7E54A1268917CE44A52681078BD
:102E000004AB0122FEF727F810B14FF0FF30CCE7FA
:102E1000DE4A1268D17DDD4A5268107804AB012287
:102E2000FEF719F810B14FF0FF30BEE7D74A12682D
:102E30001179D64A5268107804AB0122FEF70BF8DC
:102E400010B14FF0FF30B0E70C208DF81000CF4AE2
:102E500012681179CD4A5268107804AB0122FDF74F
:102E6000FAFF10B14FF0FF309FE70F20FFF7F6F8A1
:102E7000C648806A407A8DF81000C44A126891787A
:102E8000C24A5268107804AB0122FDF7E4FF10B18A
:102E90004FF0FF3089E7BD48806A007A8DF8100056
:102EA000BA4A12685178B94A5268107804AB0122C4
:102EB000FDF7D1FF10B14FF0FF3076E7B9F1000F09
:102EC00007D0B248806A807A40F0E0008DF81000A8
:102ED00004E0AE48806A807A8DF81000AB4A126830
:102EE0009179AA4A5268107804AB0122FDF7B3FF2A
:102EF00010B14FF0FF3058E7B9F1000F07D0A348E9
:102F0000806AC07A40F0E0008DF8100003E0A0482D
:102F1000C07A8DF810009D4A1268D1799B4A526898
:102F2000107804AB0122FDF796FF10B14FF0FF308F
:102F30003BE7B9F1000F02D0C820FFF78FF840201F
:102F40008DF81000914A12681179904A52681078F1
:102F500004AB0122FDF77FFF10B14FF0FF3024E7F3
:102F600078208DF81000894A12685179874A526892
:102F7000107804AB0122FDF76EFF10B14FF0FF3067
:102F800013E783498889FFF769F800208DF810005E
:102F90007E4A126851797D4A5268107804AB01224A
:102FA000FDF759FF10B14FF0FF30FEE6774A126887
:102FB000917A764A5268107804AB0222FDF7A5FE9A
:102FC00010B14FF0FF30F0E69DF811009DF81010A1
:102FD00040EA012B0C209BFBF0F0C6B20020A86059
:102FE00068602860A06060602060824665E0674A93
:102FF0001268D17A654A5268107804AB0C22FDF74A
:1030000084FE10B14FF0FF30CFE69DF811009DF81F
:10301000101040EA012000B2ADF808009DF813003E
:103020009DF8121040EA012000B2ADF80A009DF8A8
:1030300015009DF8141040EA012000B2ADF80C0014
:10304000BDF90810206808442060BDF90A106068C6
:1030500008446060BDF90C10A0680844A0609DF8A9
:1030600017009DF8161040EA012000B2ADF80000EC
:103070009DF819009DF8181040EA012000B2ADF843
:1030800002009DF81B009DF81A1040EA012000B2D2
:10309000ADF80400BDF90010286808442860BDF9A7
:1030A0000210686808446860BDF90410A868084404
:1030B000A8600AF1010000F0FF0AB24597DB34482E
:1030C000D0F800C02868C117090441EA104107047C
:1030D000624600233846FDF79EF832460023CDE9CC
:1030E0000201FDF798F828602948D0F800C0686808
:1030F000C117090441EA104107046246002338461B
:10310000FDF789F832460023CDE90201FDF783F887
:1031100068601F48D0F800C0A868C117090441EAD8
:1031200010410704624600233846FDF774F8324622
:103130000023CDE90201FDF76EF8A8601448D0F82D
:1031400004C02168C817000440EA11480F04624611
:10315000002338464146FDF75EF832460023CDE9AC
:103160000201FDF758F820600948D0F804C06068F3
:10317000C117090441EA104107046246002338469A
:10318000FDF749F83246002304E000005C0000200F
:10319000D45E0008CDE90201FDF73DF860601148FA
:1031A000D0F804C0A068C117090441EA104107041F
:1031B000624600233846FDF72EF832460023CDE95B
:1031C0000201FDF728F8A060A068002804DDA068CF
:1031D000A0F58030A06003E0A06800F58030A0601A
:1031E0000020E2E5D45E00082DE9FC5F06460F46AC
:1031F00000253D494968087801AB03220D21FDF700
:1032000084FD10B10720BDE8FC9F9DF8040000F08C
:103210001F008DF804009DF8050000F01F008DF8D8
:1032200005009DF8060000F01F008DF80600002440
:1032300056E056F8240057F82410A0EB010BBBF120
:10324000000F01DB594601E0CBF10001084602F016
:10325000E1FB4FF08F41009002F0AAFA814601A8ED
:10326000005D68B32149086802F0ECFB83465946CB
:103270001F4802F09DFA804604E01E49404602F0D5
:1032800029FC804601A8005D401EC0B201A9085576
:103290000028F2D14146484602F08AFA83464FF0B0
:1032A0007E5102F015FD82462AF0004B0F488169DD
:1032B000584602F0DBFC12D20120A04005430EE08C
:1032C0000A480169484602F0D1FB05D30748416925
:1032D000484602F0CBFC02D20120A0400543641C0A
:1032E000032CA6DB28468EE75C000020D45E000895
:1032F00000B04C4554E3853F10B50446204600F02D
:103300000FF80346E01C00F00BF843EAC00083B25C
:10331000A01D00F005F843EA801083B2184610BDE6
:10332000014691F90020002A01DD00201EE091F9FC
:103330000020002A01DA042018E091F90120002A77
:1033400001DD012012E091F90120002A01DA0520B7
:103350000CE091F90220002A01DD022006E091F93B
:103360000220002A01DA062000E00720704770B52D
:1033700005460C462146284602F078FC01D2254637
:1033800008E084F000462946304602F06FFC01D286
:1033900084F00045284670BD86B00020049005905A
:1033A0004FF4A060FDF7E2FDFEF736FE4FF4E1308A
:1033B00001F000FCFDF7D4FA5C4800215C4A0B46A2
:1033C000CDE9002102900A465A495B4801F063FAB0
:1033D000002427E059485A49554ACDE90021029076
:1033E00004EB840101EBC401564A02EB8100002387
:1033F000554A504901F04FFA50485449544ACDE9D2
:103400000021029004EB840101EBC401514A02EB5C
:10341000810000234FF07C524FF07E5101F03BFAC7
:10342000601CC4B2022CD5DB7EE001F097FA4A485A
:10343000006802F0B3FA05464849086902F0AEFA9E
:1034400006462A4631463C4801F0CDF94FF080400F
:10345000FEF704FD002428E03749C86902F09EFA0F
:1034600005463E4951F8240002F098FA064604EB5E
:10347000840101EBC401334A02EB81002A46314644
:1034800001F0B1F9354951F8240002F087FA0546F8
:1034900004EB840101EBC4012E4A02EB81000022FF
:1034A000294601F0A0F9601CC4B2022CD4DB002430
:1034B00035E004EB840202EBC402224B03EB8202F0
:1034C000D16904AA52F8240002F004F904A941F8D1
:1034D000240004EB840202EBC4021E4B03EB8202C5
:1034E000D16904AA52F8240002F0F4F804A941F8C2
:1034F000240051F824000E4901F060F904A941F8B4
:10350000240004EB840202EBC4020E4B03EB8202A4
:10351000D169E21CD0B201F0C7FA601CC4B2022C1F
:10352000C7DB0520FEF79AFD7FE700000000A04101
:1035300000401C4500002041C40100200000C8429A
:103540000000FA43F80100203333734000007A444E
:103550000000FA44940000200000002060020020D7
:103560007047000070B50446002624F00104184896
:1035700090F8240008B1002070BD1548807A10B979
:103580004FF0FF30F8E71248057C807A2040104960
:1035900008740846007CA04202D04FF0FF3600E0DD
:1035A000002614B90A48007D18B1012001F034FA50
:1035B00002E0002001F030FA3CB100F0ABFC20B199
:1035C000034805744FF0FF30D6E73046D4E70000DB
:1035D0005C0000202DE9F04F99B004460D461646D8
:1035E0004FF07E574FF000084FF000094FF0000AEF
:1035F00012A813A918AB0EAACDE9001014A916A899
:10360000FEF7FAFE18B1012019B0BDE8F08FBDF841
:103610004C0000F4807000287ED00E9802F0FAF979
:1036200083464FF09D4102F0C3F807460F9802F021
:10363000F1F983464FF09D4102F0BAF880461098A8
:1036400002F0E8F983464FF09D4102F0B1F881465F
:10365000119802F0DFF983464FF09D4102F0A8F87F
:10366000824639464FF0804002F034FA49460590D0
:1036700002F030FA414607904FF0404002F02AFA3B
:103680005146059002F026FA0690079902F022F8BA
:10369000834601F0F3FFCDE90801FEF7D7F84FF0BC
:1036A0006632544BCDE90A0101F00EFDCDE90C0163
:1036B00001F0D0FA206049464FF0804002F00AFA4B
:1036C0004946029002F006FA414604904FF040400D
:1036D00002F000FA4146029002F0FCF903900499CE
:1036E00002F0F6FA83464FF07E5101F0F3FF0590A9
:1036F00001F0C4FFCDE9080139464FF0804002F0E7
:10370000E9F94146039002F0E5F9494604904FF08B
:10371000804002F0DFF900E068E05146039002F0DB
:10372000D9F98346049901F0D5FF059001F0A6FF71
:10373000CDE90601DDE90823FEF7D0FA4FF0663245
:103740002C4BCDE90A0101F0BFFCCDE90C0101F0E1
:1037500081FA28605146504602F0BCF9494604906F
:10376000484602F0B7F941460390404602F0B2F9EC
:1037700039460190384602F0ADF90090019901F008
:10378000A9FF0290039902F0A3FA8346049902F07C
:103790009FFA059001F072FFCDE9080151463846C5
:1037A00002F098F949460490404602F093F90390DC
:1037B000049901F08FFF4FF08041059002F08AF9E3
:1037C000834601F05BFFCDE90601DDE90823FEF742
:1037D00085FA4FF06632074BCDE90A0101F074FC1F
:1037E000CDE90C0101F036FA306001E002200BE770
:1037F000002009E766A64C4070B50024FDF7E8F804
:1038000000F024F9002840D1782000F02FFFC4B246
:103810000CB1012070BD7820FFF7A4FEC4B20CB13A
:103820000220F7E7642000F0D3FEC4B20CB10320FD
:10383000F0E7FEF7D5FDC4B20CB10420EAE7154865
:10384000FFF75AFD0546FFF725F8C4B20CB1052075
:10385000E0E740F27310FEF76BFCC4B20CB1062037
:10386000D8E76420FEF746FFC4B20CB10720D1E7C9
:1038700001F088F804460CB10820CBE7012000F0E5
:10388000A3FDC4B21CB10920C4E70A20C2E700208E
:10389000C0E700008800002001461148407A30B19E
:1038A000012807D0022808D003280CD108E0022004
:1038B00008700BE00420087008E00820087005E09C
:1038C0001020087002E04FF0FF30704700BF04483E
:1038D000C07C18B108784006000E08700020F4E79C
:1038E0005C00002001461348407A30B1012808D01E
:1038F00002280AD0032810D10BE04FF48040088042
:103900000EE041F69C7008800AE04FF48050088079
:1039100006E04FF40060088002E04FF0FF3070478F
:1039200000BF0448C07C10B1088840100880002007
:10393000F5E700005C00002001460248007C0870AA
:10394000002070475C00002001460F48007A30B12B
:10395000012807D0022809D003280FD10AE0FA2055
:1039600008800EE04FF4FA7008800AE04FF47A7095
:10397000088006E04FF4FA60088002E0002008802A
:1039800000BF00BF002070475C00002001460E48C9
:10399000007A30B1012807D0022808D003280CD1C2
:1039A00008E00A4808600BE00948086008E0094898
:1039B000086005E00848086002E04FF0FF307047FB
:1039C00000BF0020FBE700005C0000200000034374
:1039D00000008342333303423333834101461248AC
:1039E000C07A082817D2DFE800F01704070A0D1084
:1039F0001318BC20088013E06220088010E02A2001
:103A000008800DE0142008800AE00A20088007E002
:103A10000520088004E000BF00BF0020088000BF30
:103A200000BF0020704700005C00002001460648EF
:103A300090F8240010B14FF0FF3070470248C08961
:103A400008800020F9E700005C0000201CB5802001
:103A50008DF80000654A1268917C644A52681078BB
:103A60006B460122FDF7F7F910B14FF0FF301CBD96
:103A70006420FEF7F3FA00208DF800005B4A12681C
:103A8000917C5A4A526810786B460122FDF7E3F99F
:103A900010B14FF0FF30EAE7544A1268917D534A63
:103AA000526810786B460622FDF72FF910B14FF0DF
:103AB000FF30DCE79DF80500C007400F9DF80310BC
:103AC00001F0010140EA41009DF8011001F00101FF
:103AD00040EA010494B1012C03D101214348C1748F
:103AE00031E0022C03D100214048C1742BE0214673
:103AF0003FA0FCF7B5FB4FF0FF30B8E73B4A126838
:103B0000D1783A4A526810786B460122FDF7FDF8E9
:103B100010B14FF0FF30AAE79DF8000000F00F044D
:103B20002CB93D48FCF79CFB4FF0FF309FE7042C7D
:103B300006D13AA0FCF794FB01212C48C17402E0A5
:103B400000212A48C174FF2128488172FF2027499B
:103B50000872FF2125484172C1724FF6FF71C18181
:103B6000FF21017481740121017380F8221000216A
:103B700080F8231041750175163001604160816045
:103B8000163880F8241080F82510C1844FF4FA60AC
:103B900000F062FC10B14FF0FF3068E7022000F047
:103BA0002BFB10B14FF0FF3061E72A2000F0CEFC74
:103BB00010B14FF0FF305AE7322000F009FD10B18C
:103BC0004FF0FF3053E70020FFF7CCFC10B14FF06F
:103BD000FF304CE7002000F051FB10B14FF0FF30F8
:103BE00045E7002000F042FD002040E75C00002097
:103BF000556E737570706F7274656420736F667440
:103C0000776172652070726F647563742072657677
:103C10002025642E0A000000F86B000848616C66DD
:103C20002073656E73697469766974792070617246
:103C30007420666F756E642E0A0000002DE9F04353
:103C400085B005460E4690469946294890F82500CD
:103C500020B14FF0FF3005B0BDE8F08316B94FF04A
:103C6000FF30F8E7002423E0281B102801DD102096
:103C700000E0281B87B232193946204600F05EFD6D
:103C800010B14FF0FF30E6E701AA3946204600F0B8
:103C900001F910B14FF0FF30DDE730193A4601A9C4
:103CA000FCF7C2FB10B16FF00100D4E7E01984B259
:103CB000AC42D9DB4FEA28208DF8000008F0FF0065
:103CC0008DF801000A4A1268917E094A52681078FC
:103CD0006B460222FDF7BFF810B14FF0FF30BAE794
:103CE0000121034880F82510A0F826900020B2E7B3
:103CF0005C00002038B50446282C02DD4FF0FF3070
:103D000038BDDCB9002000F0EBFB00208DF800008E
:103D100007208DF801002E4A1268917C2C4A5268C7
:103D200010786B460222FDF796F810B14FF0FF3085
:103D3000E6E70021264801750020E1E7012000F0B8
:103D4000CFFB20208DF80000012C06D100208DF83B
:103D50000100052000F0FAFB17E0052C06DC01202D
:103D60008DF80100052000F0F1FB0EE0142C06DCBC
:103D700002208DF801000A2000F0E8FB05E0032096
:103D80008DF80100142000F0E1FB9DF801000721EF
:103D900001EB8010C0B28DF801000D4A1268917CD1
:103DA0000B4A526810786B460222FDF754F810B1A6
:103DB0004FF0FF30A4E7082105488172002101730C
:103DC000012101750020FFF7CDFB002098E70000DE
:103DD0005C000020F8B504460F4616462C4890F8C3
:103DE000240010B94FF0FF30F8BD2948807A10B98F
:103DF0004FF0FF30F8E7264A1268917A244A526859
:103E000010786B460222FCF780FF10B14FF0FF30B4
:103E1000EAE79DF801009DF8001040EA0125A5425F
:103E200003DA00203070401EDEE719484068408801
:103E3000B5EB600F17DD164A1268517C144A5268C0
:103E400010786B460122FCF760FF10B14FF0FF3095
:103E5000CAE79DF8000000F0100020B100F05AF809
:103E60006FF00100C0E7E2B2094B1B68D97A084B3A
:103E70005B6818783B46FCF748FF10B14FF0FF3005
:103E8000B2E795FBF4F0401E30700020ACE7000074
:103E90005C000020F8B504460D46164616B94FF0F2
:103EA000FF30F8BD1A48807A10B94FF0FF30F8E7BC
:103EB00020128DF80000E0B28DF801009DF801009D
:103EC0002844134949684989884202DD4FF0FF3090
:103ED000E7E70F4A1268117E0D4A526810786B4668
:103EE0000222FCF7B8FF10B14FF0FF30D9E7EAB279
:103EF000074B1B68597D064B5B6818783346FCF707
:103F000004FF10B14FF0FF30CBE70020C9E70000FD
:103F10005C00002008B57048807A10B94FF0FF307F
:103F200008BD002000906C4A1268D17B6A4A526832
:103F300010786B460122FCF78EFF10B14FF0FF3076
:103F4000EEE7654A12685179634A526810786B4609
:103F50000122FCF780FF10B14FF0FF30E0E75E4A2E
:103F6000126811795C4A526810786B460122FCF79E
:103F700072FF10B14FF0FF30D2E7574890F824009D
:103F8000002853D00C200090534A12681179524AED
:103F9000526810786B460122FCF75DFF10B14FF0BC
:103FA000FF30BDE73220FEF759F8C02000904A48A4
:103FB000807A00F0010020B19DF8000040F0200060
:103FC0000090454A12681179434A526810786B464E
:103FD0000122FCF740FF10B14FF0FF30A0E73E4850
:103FE000407C10B10220009001E0002000903A4A8D
:103FF0001268D17B384A526810786B460122FCF770
:104000002AFF10B14FF0FF308AE700200090324ABB
:1040100012685179304A526810786B460122FCF7D9
:104020001AFF002855D04FF0FF3079E704200090A8
:10403000294A12681179284A526810786B46012281
:10404000FCF709FF10B14FF0FF3069E72248807C90
:1040500020B92148807A00F0010010B9402000907A
:1040600001E0602000901C4A126811791A4A5268D7
:1040700010786B460122FCF7EEFE10B14FF0FF30D6
:104080004EE73220FDF7EAFF1348407C10B10120D3
:10409000009001E0002000900F4A1268D17B0E4A88
:1040A000526810786B460122FCF7D5FE10B14FF034
:1040B000FF3035E7084A12685179074A526810788C
:1040C000054B10330122FCF7C6FE10B14FF0FF3054
:1040D00026E7002024E700005C0000202DE9F04FD7
:1040E0008DB083460F4602200C90424890F8240081
:1040F00020B1002000F068F9012600E0002603A8A6
:10410000FFF722FC05A8FFF7C7FB01A8FFF766FC35
:1041100002A8FFF78BFC374890F80AA004A8FFF725
:104120000BFC002407E0002239465846FEF724FE27
:1041300000B902E0641C022CF5DB00BF022C01D1A7
:10414000002528E0002407E0012206A909A8FEF7BF
:1041500013FE00B902E0641C022CF5DB00BF022C48
:1041600001D1002517E006A93846FDF71BFB00F03A
:10417000FF0809A95846FFF737F800F0FF090025A6
:10418000B9F1000F01D145F00105B8F1000F01D1DF
:1041900045F0020500BFFF2016490872FF211548AF
:1041A0004172C1724FF6FF71C181FF2181720174AA
:1041B00001210173BDF80C0000F04EF99DF81400C8
:1041C00000F01AF8BDF8040000F0C0F9BDF80800CE
:1041D00000F0FEF9504600F049FA9DF81000FFF794
:1041E000C1F916B1012000F0EFF828460DB0BDE886
:1041F000F08F00005C00002038B504461E48807A2D
:1042000010B94FF0FF3038BD022C06D0042C07D077
:10421000082C08D0102C0CD108E0002000900BE0F6
:104220000820009008E01020009005E01820009081
:1042300002E04FF0FF30E6E700BF0F48407A9DF8FC
:104240000010B0EBE10F01D10020DCE70A4A126850
:10425000D179094A526810786B460122FCF7FBFDC0
:1042600010B14FF0FF30CEE79DF80000C1100248BA
:1042700041720020C7E700005C00002038B504460A
:104280005048807CA04201D1002038BD002C46D08F
:104290004C4A126811794B4A526810786B460122D9
:1042A000FCF733FD10B14FF0FF30EEE79DF8000052
:1042B00020F020000090434A12681179414A526868
:1042C00010786B460122FCF7C6FD10B14FF0FF30AD
:1042D000DBE70320FDF7C2FE02200090394890F88A
:1042E000220020B19DF8000040F080000090354889
:1042F00090F8230020B19DF8000040F030000090BD
:10430000304A1268117D2F4A526810786B4601229C
:10431000FCF7A1FD002851D04FF0FF30B5E7294A46
:1043200012681179274A526810786B460122FCF70F
:10433000ECFC10B14FF0FF30A7E72248807A00F084
:10434000010028B19DF8000040F02000009004E03A
:104350009DF8000020F0200000901A4A12681179A0
:10436000184A526810786B460122FCF774FD10B1B0
:104370004FF0FF3089E70320FDF770FE114890F8F9
:10438000220010B18020009001E0002000900D4834
:1043900090F8230020B19DF8000040F0300000901C
:1043A000084A1268117D074A526810786B4601224C
:1043B000FCF751FD10B14FF0FF3066E701488474FF
:1043C000002062E75C00002038B50446214890F8E0
:1043D0002400A04201D1002038BD24B31D4890F82C
:1043E000250010B94FF0FF30F6E7002000F014FB75
:1043F0000020FFF743FF1749C88C00F0E9F80020C0
:1044000000901449496808786B4601222321FCF783
:1044100022FD01210F4880F82410012000F0FCFA51
:10442000FFF778FD13E0002000F0F6FA0948007C61
:1044300000900849496808786B4601222321FCF75F
:104440000AFD0021034880F82410FFF763FD0020D7
:10445000C2E700005C00002038B504461F48807A9F
:1044600010B94FF0FF3038BDFA2C09D0B4F5FA7FFF
:1044700009D0B4F57A7F09D0B4F5FA6F0CD108E011
:10448000002000900BE00820009008E01020009031
:1044900005E01820009002E04FF0FF30E3E700BF96
:1044A0000E48007A9DF80010B0EBE10F01D100201A
:1044B000D9E70A4A12689179084A526810786B461F
:1044C0000122FCF7C8FC10B14FF0FF30CBE79DF89C
:1044D0000000C010014908720020C4E75C00002001
:1044E00038B50446184890F82300A04201D10020B6
:1044F00038BD14B13020009001E000200090124837
:10450000807C20B19DF8000040F0020000900E4831
:1045100090F8220020B19DF8000040F0800000904B
:10452000094A1268117D084A526810786B460122C8
:10453000FCF791FC10B14FF0FF30D9E7024880F84A
:1045400023400020D4E700005C00002038B504467A
:104550001E48807A10B94FF0FF3038BDBC2C02DB0A
:104560000120009015E0622C02DB0220009010E098
:104570002A2C02DB032000900BE0142C02DB042029
:10458000009006E00A2C02DB0520009001E00620E6
:1045900000900E48C07A9DF80010884201D100209A
:1045A000DBE70A4A12689178084A526810786B462D
:1045B0000122FCF750FC10B14FF0FF30CDE79DF821
:1045C00000100248C1720020C7E700005C00002014
:1045D00038B504462448807A10B94FF0FF3038BD12
:1045E000214890F8240010B14FF0FF30F7E71E4843
:1045F000007D50B134B1282C04DCE0B2FFF77AFB27
:104600000020ECE70020FFF775FB042C01DA0424FE
:1046100004E0B4F57A7F01DD4FF47A744FF47A70D8
:1046200090FBF4F0401EC0B200900F4A126851781F
:104630000D4A526810786B460122FCF70CFC10B151
:104640004FF0FF30CBE79DF80000401C4FF47A712B
:1046500091FBF0F081B20448C1810146C98948103C
:10466000FFF774FF0020BAE75C00002038B504466D
:1046700004F0700010B10120009005E014B100209A
:10468000009001E0402000902B4A1268917C2A4A59
:10469000526810786B460122FCF7DDFB20B1002147
:1046A00025488172481E38BD9DF8000020F0400169
:1046B000214801730020009004F0400020B99DF8CB
:1046C000000040F00400009004F0200020B99DF8A4
:1046D000000040F00200009004F0100020B99DF8A6
:1046E000000040F00100009004F0080020B99DF89F
:1046F000000040F0380000900F4A1268D17C0E4A4A
:10470000526810786B460122FCF7A5FB20B100210E
:1047100009488172481EC6E724B1082C02D0002047
:10472000FFF7DEFE04488472002101753220FDF798
:1047300095FC0020B7E700005C000020F8B50446B7
:104740000D46164616B94FF0FF30F8BD1A48807A6C
:1047500010B94FF0FF30F8E720128DF80000E0B2FA
:104760008DF801009DF801002844134949684989E2
:10477000884202DD4FF0FF30E7E70F4A1268117EF2
:104780000D4A526810786B460222FCF764FB10B1A8
:104790004FF0FF30D9E7EAB2074B1B68597D064B53
:1047A0005B6818783346FCF756FB10B14FF0FF30CA
:1047B000CBE70020C9E700005C00002070B505468B
:1047C0000C462146284601F051FA01D2254608E060
:1047D00084F000462946304601F048FA01D284F0C0
:1047E0000045284670BD2DE9F05F04460D4616468B
:1047F0004FF07E51E06A01F09DF80AD1701B01F084
:1048000009F9E0604FF07E51E06A00F063FFE0627A
:1048100001E02069E060701B01F0FCF82061D4E940
:10482000041000F057FF6061D4E9031001F050FA62
:104830008146A16801F04EF907466169606801F0A0
:1048400049F98346616AFEF792FD81462169206835
:1048500001F040F98246494600F03CFF8046394667
:1048600000F038FF2063A16A206B01F0FFF809D245
:10487000A06A80F000473846216B01F0F7F801D2BA
:1048800000202063206BE061D4E90701FEF76FFD93
:10489000E061BDE8F09FF0B505AC70CC016042600E
:1048A000836086624562046200278761C761C760D2
:1048B000076147614FF07E57C762F0BD30B589B0E0
:1048C00005460C4601210846FCF75CFB012104204B
:1048D000FCF768FB0320ADF820008DF822001820BB
:1048E0008DF8230008A91C48FBF763FF0020ADF8F2
:1048F0001A00ADF81600ADF81850ADF814408DF858
:104900001C0005A94FF08040FCF750FD6020ADF879
:1049100004000020ADF80E00ADF80A000120ADF84B
:10492000060001A98007FCF78BFC01A94FF080402D
:10493000FCF7DCFC0821C806FCF7CEFC0821C80601
:10494000FCF726FD01218807FCF762FC012188079E
:10495000FCF76AFC09B030BD0008014010B5054AFB
:1049600005490648FEF736FE034800680449086119
:1049700010BD00005800002054000020500000200E
:104980006002002070B588B002A905A8FFF7A6FB59
:104990000446032C3ED101A8FEF7F8FF059801F06C
:1049A00039F80646019901F095F8054600F0F6FF42
:1049B0000590069801F02EF80646019901F08AF854
:1049C000054600F0EBFF0690079801F023F8064635
:1049D000019901F07FF8054600F0E0FF079005A877
:1049E000FDF7C0FE6846FEF77DFFBDF80010029897
:1049F00048430290BDF80010039848430390BDF867
:104A0000001004984843049002A8FDF7DBFD002045
:104A100008B070BD0120FBE738B50446214890F886
:104A20002400C0B114B10220009001E000200090E9
:104A30001C4A1268D17B1B4A526810786B460122CF
:104A4000FCF709FA10B14FF0FF3038BD9DF80010A7
:104A50001448417423E01348807A10B94FF0FF30B6
:104A6000F3E724B10F48407C08B10020EDE714B112
:104A70000120009001E0002000900A4A1268D17BDA
:104A8000084A526810786B460122FCF7E4F910B12D
:104A90004FF0FF30D9E79DF8001002484174002024
:104AA000D3E700005C00002070B504460D46032CDF
:104AB00002D0042C51D126E00021284601F0D6F87E
:104AC00007D201202649086000202649C1F8840148
:104AD00012E00021284600F0C9FF07D2002020493B
:104AE000086001201F49C1F8840105E001201C492C
:104AF00008601C49C1F884012846FCF743FE4FF0CA
:104B00008041888629E00021284601F0AFF808D2CC
:104B1000012013490C31086000201249C1F88801B6
:104B200014E00021284600F0A1FF08D200200C4923
:104B30000C31086001200B49C1F8880106E0012012
:104B400007490C3108600749C1F888012846FCF77D
:104B500019FE4FF08041088700BF00BF70BD000004
:104B600080012242000022422DE9F04106460F4614
:104B700000F0B4FB041E0D4618BF0120284320F0AE
:104B80000040C0F17F6000F1E040C00F0ED0301C4B
:104B900018BF0120384320F00040C0F17F6000F1D1
:104BA000E040C00F04BF0120FBF7F2FC204629467D
:104BB000BDE8F08110B586B00446012144F204003E
:104BC000FCF7F0F94FF40070ADF8140003208DF8F5
:104BD000160018208DF8170005A91C48FBF7E9FD01
:104BE0004FF48060ADF8140004208DF8170005A97B
:104BF0001648FBF7DEFD25208DF8000003208DF818
:104C000001008DF8020001208DF803006846FCF7D2
:104C100075F901940020ADF80800ADF80A00ADF870
:104C20000C00ADF810000C20ADF80E0001A90848EA
:104C3000FCF7AEFC012240F225510548FCF782FC4E
:104C400001210348FCF748FC06B010BD00080140F4
:104C50000038014021F00042A2F16052B2F5801FFD
:104C600001F0004328BFD2F17F6C0BD95FEA001C32
:104C700043EAC20242EB507018BF704728BF20F0D1
:104C800001007047B2F5801FBCBF184670474FEA5D
:104C9000410C1CF5001F02D2084600F0E2BF70B5BF
:104CA00000F0BCFA00000089FFF7F6BF4FF00040AB
:104CB000A0F580007047000010B591EA030F48BFCF
:104CC00083F0004300F1F883841A71EB030C05D2E2
:104CD000121943EB0C03001B61EB0C01DFF824E11C
:104CE0004FEA1154A4EB135C1EEA430F18BF9EEA6F
:104CF000445F73D023EA0E03DCF1200E21EA045155
:104D000043F4801332D322FA0CFE10EB0E0023FA88
:104D10000CFE41EB0E01CCF1200E03FA0EFE10EB5F
:104D20000E0051F10001B1F5801FCCF1200E32D2FE
:104D300001EB045112FA0EF2BDE8104058BF704763
:104D4000401C38BF5FEA420218BF7047002814BFFA
:104D500020F0010041F100014FEA410313F5001F6B
:104D600038BF7047A1F1C04100F0A6BA012A43EB59
:104D70000302ACF1200CDCF11F0E32BF4FF0000E2D
:104D800023FA0CF310EB030041EB0451B4EB115F79
:104D9000D0D0A1EB045101F5801149085FEA300041
:104DA00001EB04510ED350F1000038BF12FA0EFE91
:104DB00008D1BDE81040C9E7401C38BF5FEA420295
:104DC000CAD1C3E7BDE810404FEA410313F5001F05
:104DD00038BF7047A1F1C04100F06EBA9EEA445F4F
:104DE00008D011EA5E0FBDE8104004BF01F0004199
:104DF00000207047BDE8104070B500F00FFA00BF0A
:104E000064FBBE3E0000E0FF02494FF0000000F0EE
:104E1000D4BF00BF0000F87F2DE9C04130B4DFF8F7
:104E2000A0C23CEA111418BF3CEA131400F0EC8055
:104E300081EA03051CEA111444EAD57418BF1CEA80
:104E4000131500F0C780A4EB05044FF0004545EAB8
:104E5000C12145EAC32341EA505143EA525304F1C8
:104E60007F74994204F500344FEAC0204FEAC22211
:104E700008BF904200F09C804FEA13650FF2401685
:104E8000765D4FEA134506FB05F7C7F1807706FB11
:104E900007F74FEAD737A7FB03687642C8F5803893
:104EA000A7FB06CE38BFA8F1010807FB08E64FF0C4
:104EB000000EA6FB028CE6FB03CEDCF1000CCEF16B
:104EC000004E38BFAEF1010EA6FB0C584FF00007A4
:104ED0004FF00005E6FB0E87A1FB08C6A0FB07CE3E
:104EE00016EB0E0645F10005E1FB076515F1E04EF6
:104EF0007EBFA4F580345FEA46066D4116F1800757
:104F000045F100054FEA17274FEA066647EA0567AD
:104F1000A6F1DE46B6F1805F4FEA15251FD9384667
:104F200024F0010C05EBC471BCF1FE6F01EB0C1118
:104F300002D8F0BCBDE8008124425CBF01F5801EB0
:104F40009EEAC47F02D4F0BCBDE80081244238D47C
:104F5000F0BCA1F1C041BDE8004100F0ADB94FEA9D
:104F6000D22242EA43524FEAD323A7FB02864FEAFA
:104F7000D02040EA415007FB03661EEA0E0F4FEABD
:104F8000D12105FB026658BFA6EB0056B6EB0056D2
:104F90004FEA520E4EEAC37E18EB0E0E56EB530E3E
:104FA000BDD518EB02085E417F1C55F10005B6E740
:104FB0004FF480154FF000074FF000064FF0000847
:104FC000ADE7F0BC4FF0000001F1C04101F000413D
:104FD000BDE8008111EA0C1F0CEA131500D00CE0AB
:104FE00013EA0C1F00F025804FF00000F0BC81EAAE
:104FF000030101F00041BDE80081F0BCBDE80041C3
:1050000081EA030100F058B9F0BCBDE8004170B579
:1050100000F004F9097EFC3E00F007B881EA0301C4
:105020004FF0000001F00041704781EA030100F0F9
:1050300043B9F0BCBDE800414FF000002149704782
:10504000FFFDFBF9F7F5F4F2F0EEEDEBE9E8E6E44D
:10505000E3E1E0DEDDDBDAD8D7D5D4D3D1D0CFCDD4
:10506000CCCBCAC8C7C6C5C4C2C1C0BFBEBDBCBB0D
:10507000BAB9B8B7B6B5B4B3B2B1B0AFAEADACAB08
:10508000AAA9A8A8A7A6A5A4A3A3A2A1A09F9F9EE2
:105090009D9C9C9B9A999998979796959594939394
:1050A000929191908F8F8E8E8D8C8C8B8B8A89892B
:1050B00088888787868585848483838282818180AE
:1050C0000000FF070000F87FDFF848C170B51CEA58
:1050D000111E1EBF1CEA13159EEA0C0F95EA0C0F59
:1050E00000F06F8081EA030423EA4C134EEAD47E79
:1050F00021EA4C1141F4801143F48013AE44A1FB2A
:10510000024CA0FB0365AEF17F7E361955EB0C0512
:10511000A1FB034C4CF10003A0FB021C16EB0C0698
:10512000654153F10003094218BF46F0010613F42C
:10513000007F0BD14FEA03314FEA0530340341EAD7
:10514000155140EA16506FF003020AE04FEAC321FE
:105150004FEAC520F40241EA555140EA56506FF03B
:10516000020202EB2E4201EB025585EACE710AD013
:105170005FEA440C18BF24F0004450F1000041F1F4
:10518000000120EAD47040F2FE7C624500D270BD7E
:10519000A84214BF4FF080444FF04044002E08BF97
:1051A0000024BEF1806FA8BFA1F1C041BDE87040EE
:1051B00080F282804FF0000001F1C04101F0004117
:1051C00070479EEA0C0F0CEA131518BF95EA0C0FF6
:1051D00006D04FF0000081EA030E0EF0004170BDD2
:1051E00000F01CF88900013E00F007B800F009B893
:1051F0004FEA430C5FEA5C5C08D081EA030100F0EF
:105200005BB84FEA410C5FEA5C5CF6D14FF00000FE
:10521000014970470000FF070000F87F0EF1020E01
:105220002EF0030E5EF8046B364205D4012A43EBE0
:10523000030515F5001F12D8012841EB010C1CF5E0
:10524000001F0CD80ED14FEAD17C15F5001F0CEBD6
:105250004C0C0CF1020C08BF4CEBD37C04E04FF07B
:10526000080C01E04FEAD37C0CEB4C0526FA05F65E
:1052700006F00706B6F1040C06D20EEB860CBDE86C
:1052800070404CF0010C6047DFE80CF0090B0202A3
:105290004FF000414FF00000A1F5002170BD19460C
:1052A0001046012851EB010418BFD4F5001484BF47
:1052B000002001F0004170BD0808A0F500114FEA80
:1052C0003101704791EA030F10B581F000413FF5BD
:1052D000FBAC83F0004300F0EFB800002DE9F04193
:1052E00001F5801CBCF5001FC0F2C3804FEA115CC1
:1052F00021EA0C510CF1FD0C41F480115FEA5C0CC9
:105300000CF5C07C01D3400049413DA4890241EA2B
:10531000905187028E0E0A0CA45D04FB04F602FB7A
:1053200006F6C6F14046A4FB0662F60D46EA4226A2
:1053300006FB06F4A4FB01235242C3F1404338BFED
:105340005B1EA6FB02420024E6FB0324D20B42EACA
:105350004446A6FB0623A1FB02E2A3FB07E4A41834
:105360004FF0000252F10002E3FB01426442C2F13D
:10537000404E38BFAEF1010EA6FB04234FF00002F1
:10538000E6FB0E32A2FB03464FF00004B61954F1BF
:105390000004E2FB0264A1FB06E6A4FB07E816EBAF
:1053A00008064FF0000858F10008E4FB0168764257
:1053B000C8F1405838BFA8F10108A2FB06E4A3FBDE
:1053C00008E52D194FF0000454F10004E2FB0854E5
:1053D000A1FB05E6A7FB04E818EB06084FF0000662
:1053E00056F10006E1FB048618F1200556F100068F
:1053F000A809A8F11B08B10908F03F08B8F10A0F85
:1054000040EA86601CD901EB0C51BDE8F08100BF79
:10541000FCF5EEE8E2DDD8D3CFCBC7C3C0BDB9B64B
:10542000B4B1AEACA9A7A5A3A19F9D9B9A98969550
:105430009392908F8D8C8B898887868584838281D7
:10544000A0FB006800FB01F208EB4208B8EB8728DC
:1054500007D5341858EB0104D5D5401C51F1000193
:10546000D1E7341A78EB0104CDD4401E71F100016C
:10547000C9E75FEA4C0C5FEA9C5C0DD105D34FF0A5
:10548000000001F00041BDE8F081BDE8F04170B5D9
:10549000FFF7C4FE6DDBFFBEBDE8F0414FF000003A
:1054A000004970470000F87F10B591EA030F48BF2C
:1054B00083F000433FF508AC841A71EB030C07D26C
:1054C00012198CF0004C43EB0C03001B61EB0C0138
:1054D000DFF8A4E14FEA1154A4EB135C1EEA430F7A
:1054E00018BF9EEA445F00F0B08023EA6E03524288
:1054F00021EA0451C3EB6E0338BF5B1EDCF1200EC2
:1055000025D322FA0CFE10EB0E0043FA0CFE41EB01
:105510000E01CCF1200E03FA0EFE10EB0E0051F13D
:105520000001CCF1200E29D412FA0EF201EB045145
:10553000BDE8104058BF7047401C1CBFB2F1004F7F
:10554000704700280CBF491C20F00100704712EB87
:10555000020E43EB030218BF4FF0010E4EEA420267
:10556000ACF1200CDCF11E0E54D943FA0CFE10EB0A
:105570000E0051F1FF31CCF11E0ED5D50EF1010E0A
:1055800012FA0EFE404141EB010101EB445C5FEA7F
:105590005C5C10D910EBDE7001EB045138BFBEF13A
:1055A000004FBDE8104018BF704700280CBF491CD1
:1055B00020F00100704730D24FEAD42C11F50011D1
:1055C00024F400641BD0B1FA81F20B3AA41AA41E91
:1055D000D2F12003914030FA03F31943904001EBDC
:1055E000CC71002C01EB0451BDE81040A8BF7047FE
:1055F00001F1C0414FF0000001F000417047B0FAE6
:1056000080F310FA03F100D110BDE41A173C4805ED
:10561000C90AE4E701EB045110BD491001EB045144
:10562000BDE810404FEA300002E04FF00001704743
:105630004A0008BF0042F8D0B2F5001F28BF7047EB
:1056400001F000414FF0000070479EEA445F07D030
:1056500011EA5E0FBDE8104004BF00210020704732
:10566000BDE8104070B5FFF7D9FD00BF40DFF63E42
:1056700083F00041104670470000E0FF43004FEA0E
:10568000D30C4FEA3C0C43401FBF40070CF1605164
:1056900013F0FE4F70471CF0006F03D100200CF098
:1056A000004170470CF0004343EA507010B540EAE7
:1056B000CC0000F090FA00BF000000924FEA000119
:1056C000FFF7FABD4FF000414FF00000A1F50021B7
:1056D0007047000090EA010F48BF81F0004100F1DF
:1056E000FE82421A3CBF801A89184FEAD0524FF00E
:1056F0007F4C1CEA410FA2EBD15318BF9CEA026F0A
:1057000000F03B804FF0004C4CEA00204CEA0121B5
:1057100021FA03FC10EB0C0C1ED202F1FF325FEAFF
:105720001C2040EBC25038BF70471CF07F0F4FEA7F
:10573000400C18BFBCF17F4F38BF7047C3F1200346
:10574000994008BF20F00100BCF17F4F38BF70477F
:10575000A0F1C04000F085BA4FEA3C00000A40EBDF
:10576000C25028BF1CF0FF0F4FEA400CE6D018BF14
:10577000BCF17F4F38BF7047EAE79CEA026F05D063
:1057800010EA5C0F08BF00F00040704710B500F051
:1057900022FA00BF64FBBE3E401058BFC0F140403B
:1057A000491058BFC1F140418142EFF3008070477A
:1057B0004FF47F0C1CEAD0121EBF1CEAD11392EAF0
:1057C0000C0F93EA0C0F00F0858090EA010F48BFA0
:1057D00042F4807240F4000C41F400002CF07F4150
:1057E00020F07F4000B58142A2EB03020FF2081CBB
:1057F000ACEB504EC0F100009EF800E04FEA4E0EB8
:1058000000FB0EFC38BF49004FEA2C1C02F5FA02DF
:105810000CFB0EF34FEACE1E4FEA112C4FEAC121CA
:105820000EEB635E42EB22420EFB0CFC4FEA1C5374
:1058300000FB03114FEA112C4FEA01310EFB0CFC67
:105840004FEADC4C00FB0C11C14228BF09184CEB9D
:1058500003335DF804EB10EB410143EBC250B2F5AA
:105860007C0F38BF704729D512F0F00F1CBF00F134
:10587000C04000F0004070470081828384858687A5
:1058800088898B8C8D8E8F919293959697999A9CFF
:105890009D9FA0A2A3A5A7A8AAACAEB0B2B3B5B76E
:1058A000B9BCBEC0C2C5C7C9CCCED1D4D7D9DCDF44
:1058B000E2E6E9ECF0F3F7FAFE0000004FEA400CF4
:1058C0000CF1807CBCF17E4F28BF7047B0F1C04026
:1058D00000F0C7B990EA010F0CEAD11348BF42F4B7
:1058E0008072624538BF634507D213F47F0F16D02C
:1058F00080EA010000F00040704710B500F06BF93D
:10590000097EFC3E00F005B880EA010000F000408E
:10591000704780EA010000F0004000F0A2B912F4E4
:105920007F0F04BF0248704780EA010000F099B978
:105930000000C07F50EA010C00F113801CF5000F3D
:1059400058BFBCF5000F01D48842704707D710F547
:10595000000F58BF11F5000F15D4884270478942D7
:1059600070471CF5000F04D5BCF5000FF7D5814238
:1059700070474FF0807C1CEB400F38BF1CEB410F91
:1059800001D28142704710B500F025F992244900F8
:105990004FF000504FF08051FFF7FEBE41000B0E5C
:1059A000D3F19E0208D950F400034FEA032323FAEF
:1059B00002F048BF4042704710B500F00CF900BF3C
:1059C00049922480002070476FF0004282EA200054
:1059D00070470000C10DD1F19E0206DB4FEA0023A3
:1059E00043F0004323FA02F07047004207D54FEA24
:1059F0004001B1F1FE4F02D24FF00000704710B5E8
:105A000000F0E9F849922480002070476FEA2000F6
:105A10007047000010F0004148BF4042B0FA80F3E8
:105A200010FA03F2C3F19D030BD051EAC35101EB0D
:105A30001220530638BF704700F1010008BF20F064
:105A400001007047B0FA80F310FA03F2C3F19D032E
:105A50000AD0D90501EB1220530638BF704700F178
:105A6000010008BF20F001007047000050EA010C5F
:105A700000F113801CF5000F58BFBCF5000F01D4D6
:105A80008842704707D710F5000F58BF11F5000F77
:105A900015D488427047894270471CF5000F04D521
:105AA000BCF5000FF7D5814270474FF0807C1CEBAE
:105AB000400F38BF1CEB410F01D28142704710B537
:105AC00000F089F8922449004FF000504FF08051C7
:105AD000FFF762BE4FF47F0C1CEAD0121EBF1CEA17
