:020000040800F2
:1000000060070020D501000855080008AD0500086C
:10001000510800088D0400086F0D00080000000062
:10002000000000000000000000000000D5090008EA
:100030009104000800000000DD080008E90A00083B
:10004000EF010008EF010008EF010008EF010008D0
:10005000EF010008EF010008EF010008EF010008C0
:10006000EF010008EF010008EF010008EF010008B0
:10007000EF010008EF010008EF010008EF010008A0
:10008000EF010008EF010008EF010008EF01000890
:10009000EF010008EF010008EF010008EF01000880
:1000A000EF010008EF010008EF010008EF01000870
:1000B000EF010008EF010008EF010008EF01000860
:1000C000EF010008EF010008EF010008EF01000850
:1000D000EF0100084D0B0008EF010008EF010008D8
:1000E000EF010008EF010008EF010008EF01000830
:1000F000EF010008EF010008EF010008EF01000820
:10010000EF010008EF010008EF010008EF0100080F
:10011000EF010008EF010008EF010008EF010008FF
:10012000EF010008EF010008EF010008EF010008EF
:1001300000F002F800F03FF80AA090E8000C8244BA
:100140008344AAF10107DA4501D100F034F8AFF297
:10015000090EBAE80F0013F0010F18BFFB1A43F0A5
:10016000010318474420000064200000103A24BF17
:1001700078C878C1FAD8520724BF30C830C144BF0C
:1001800004680C607047000000230024002500264E
:10019000103A28BF78C1FBD8520728BF30C148BFEA
:1001A0000B607047752900F07780002070471FB5FD
:1001B0001FBD10B510BD00F037F91146FFF7F7FF6E
:1001C00000F0C4FE00F055F903B4FFF7F2FF03BCE2
:1001D00000F0CFFD0948804709480047FEE7FEE7E9
:1001E000FEE7FEE7FEE7FEE7FEE7FEE7FEE7FEE7E7
:1001F00004480549054A064B70470000ED0A00080F
:100200003101000860010020600700206003002029
:1002100060030020704700000FB4044910B503AA22
:10022000029800F0D3F810BC5DF814FB1800002011
:100230002DE9F0410E460446002020622046E16888
:10024000884730B3252805D0D4E901219047206A9A
:10025000401CF2E7E168204600278847050018D0D7
:10026000A5F14100192802D820354FF40067324625
:10027000294620462760FFF795FF40B1012804D0AA
:10028000F61D26F007060836D8E7361DD6E72846BD
:10029000DAE7206ABDE8F0812DE9F0410646002446
:1002A00010687529314616A510D0AFF300800028DC
:1002B00002DA404213A507E031688A0701D512A58A
:1002C00002E0490704D511A5012401E0AFF3008045
:1002D00000210A2206F1240709E0B0FBF2FCB0FB82
:1002E000F2F302FB1C00303078541846491C0028F9
:1002F000F3D123462A463046BDE8F04100F00CB861
:10030000000000002D0000002B0000002000000075
:1003100070477047704770472DE9F0470D46994682
:100320009246044600F124080168880604D5E06975
:1003300021F01001216000E00120A84201DD471BEF
:1003400000E00027A1697A1902EB0900081AA061F0
:100350002078C00602D42046AFF30080002608E0D3
:10036000D4E901211AF806009047206A401C761C47
:1003700020624E45F4DB2078C0060AD52046AFF354
:10038000008006E0D4E9012130209047206A401C1B
:100390002062381EA7F10107F4DC07E0D4E901214F
:1003A00018F805009047206A401C2062281EA5F11D
:1003B0000105F3DC2046AFF300802078000602D56B
:1003C0000220BDE8F0870120FBE70000074B70B575
:1003D0000D467B4400F011F80446284600F020F852
:1003E00010B14FF0FF3070BD204670BD5B0B0000B8
:1003F00001694A1C02610878704700B58FB0CDE9E9
:1004000001310021059105497944CDE903101146D8
:100410006846FFF70DFF0FB000BD0000E5FFFFFFCE
:10042000007B00F080007047754600F02BF8AE4668
:1004300005006946534620F00700854618B020B5F0
:10044000FFF7D6FEBDE820404FF000064FF0000752
:100450004FF000084FF0000B21F00701AC46ACE86C
:10046000C009ACE8C009ACE8C009ACE8C0098D46D9
:10047000704710B50446AFF300802046BDE8104039
:10048000FFF7A2BE00487047FC00002000BFFEE757
:1004900070472DE9F0410246002500260020002388
:1004A0000024002791F803C00CF00F0591F803C059
:1004B0000CF0100CBCF1000F03D091F802C04CEA14
:1004C000050591F800C0BCF1000F31D01468002080
:1004D0002BE04FF0010C0CFA00F3B1F800C00CEA6D
:1004E00003069E4220D183004FF00F0C0CFA03F755
:1004F000BC4305FA03FC4CEA040491F803C0BCF1C8
:10050000280F06D14FF0010C0CFA00FCC2F814C001
:100510000AE091F803C0BCF1480F05D14FF0010C7F
:100520000CFA00FCC2F810C0401C0828D1D314609B
:10053000B1F800C0BCF1FF0F34DD546800202EE09C
:1005400000F1080C4FF0010808FA0CF3B1F800C0F4
:100550000CEA03069E4221D183004FF00F0C0CFAE7
:1005600003F7BC4305FA03FC4CEA040491F803C00A
:10057000BCF1280F05D100F1080C08FA0CF8C2F8FC
:10058000148091F803C0BCF1480F07D100F1080CAA
:100590004FF0010808FA0CF8C2F81080401C082837
:1005A000CED35460BDE8F0810161704700BFFEE723
:1005B00010B500200F4908600F48006820F0F000D7
:1005C0000D4908600846006840F0300008600020CF
:1005D0000A49C1F88401022000F016FC01200549F7
:1005E0000860022000F010FC00200449C1F88001DE
:1005F00010BD000080012242001001400000224294
:1006000008B50121102000F06BF910208DF80300CF
:100610000320ADF800008DF8020069460348FFF79B
:1006200038FF03210148FFF7BFFF08BD001001405C
:1006300010B500200F4908600F48006820F0F00056
:100640000D4908600846006840F03000086001204D
:100650000A49C1F88401022000F0D6FB01200549B7
:100660000860022000F0D0FB00200449C1F880019E
:1006700010BD000080012242001001400000224213
:1006800070B5054600241748006820F0F0001549B1
:1006900008600846006840F080000860002616E008
:1006A000002011490860022000F0AEFB01200F4934
:1006B000C1F880016006040E0B487C38006808B160
:1006C000601CC4B2022000F09FFB701CC6B2082E52
:1006D000E6DB15B1FFF76CFF01E0FFF7A9FF20464D
:1006E00070BD000000100140800122420000224243
:1006F00070B504461348006820F0F0001149086006
:100700000846006840F03000086000200E4908608C
:10071000002514E0E0090C49091D08606006040E7C
:1007200001200A49C1F88001022000F06DFB002081
:1007300005490860022000F067FB681CC5B2082D5F
:10074000E8DB70BD0010014080012242000022421F
:1007500010B50F48006820F0F0000D490860084609
:10076000006840F03000086001200A4908600A492A
:10077000C1F88001022000F047FB00200549086015
:10078000022000F041FB00200349C1F8800110BDA8
:1007900000100140840122420000224210B50F489F
:1007A000006820F0F0000D4908600846006840F03D
:1007B0003000086000200A4908600A49C1F8840135
:1007C000022000F021FB0120054908600549C1F81D
:1007D0008401022000F018FB10BD00000010014051
:1007E000800122420000224210B500241548006812
:1007F00020F0F000134908600846006840F08000CF
:100800000860012010490860022000F0FDFA012074
:100810000E49C1F88001022000F0F6FA07E0601CE2
:10082000C4B2FA2C03DDFFF7B9FF012010BD064862
:10083000803800680028F2D10349091F086000BF12
:10084000F4E700000010014084012242000022422F
:1008500000BFFEE77047000070B5002100230F22A3
:10086000C47804B3154C246804F4E064C4F5E0646F
:10087000210AC1F10403CA40447804FA03F18478E0
:100880001440214309010E4C0678A155047804F068
:100890001F050124AC4005786D11AD0005F1E02580
:1008A000C5F8004109E0047804F01F050124AC40BC
:1008B000044D0678761145F8264070BD0CED00E039
:1008C00000E400E080E100E002490143024A1160D7
:1008D000704700000000FA050CED00E070470000D2
:1008E00029B1064A92690243044B9A6104E0034A23
:1008F00092698243014B9A617047000000100240E8
:1009000030B500210022002400232D4D6D6805F034
:100910000C0121B1042905D0082923D105E0294D76
:10092000056022E0274D05601FE0254D6D6805F448
:100930007012234D6D6805F48034022505EB924258
:100940001CB9214D554305600BE01D4D6D6805F444
:1009500000351DB11C4D5543056002E0194D55434E
:10096000056002E0174D056000BF00BF144D6D68C3
:1009700005F0F0010909154D6B5C0568DD40456027
:100980000F4D6D6805F4E061090A104D6B5C456818
:10099000DD4085600A4D6D6805F46051C90A0B4D54
:1009A0006B5C4568DD40C560054D6D6805F44041F0
:1009B000890B074D6B5CC568B5FBF3F5056130BD70
:1009C0000010024000127A0000093D001E000020C5
:1009D0002E000020704710B500F002F810BD000096
:1009E0000CB50020019000903348006840F480303E
:1009F0003149086000BF3048006800F400300090C2
:100A00000198401C0190009818B90198B0F5A06FAA
:100A1000F1D12948006800F4003010B101200090A5
:100A200001E0002000900098012843D1234800688D
:100A300040F01000214908600846006820F00300DB
:100A400008600846006840F0020008601A484068E4
:100A5000194948600846406848600846406840F4C4
:100A6000806048600846406820F47C104860084672
:100A7000406840F4E81048600846006840F0807024
:100A8000086000BF0C48006800F000700028F9D032
:100A90000948406820F0030007494860084640685C
:100AA00040F00200486000BF0348406800F00C00BE
:100AB0000828F9D10CBD00000010024000200240BF
:100AC000042808D14FF0E021096941F004014FF0FA
:100AD000E022116107E04FF0E021096921F00401F3
:100AE0004FF0E022116170477047000010B51348C5
:100AF000006840F00100114908600846406810494C
:100B000008400E494860084600680E4908400B49F5
:100B100008600846006820F48020086008464068A5
:100B200020F4FE0048604FF41F008860FFF753FF79
:100B30004FF000600449086010BD00000010024042
:100B40000000FFF8FFFFF6FE08ED00E010B540F2F0
:100B500025511D4800F04AF810B31B4800F002F977
:100B6000C4B21A48008800F40040C8B91748008889
:100B700000F4804060B10A2C03D0002013490880A3
:100B800020E01248008840F400401049088019E035
:100B90000D2C06D10D48008840F480400B49088098
:100BA00010E00A480088C0F30D0009490C540748BA
:100BB0000088401C0549088008460088C72801DDD8
:100BC0000020088010BD0000003801401C000020FB
:100BD0003400002021B1828942F40052828104E075
:100BE00082894DF6FF731A408281704770B50246C4
:100BF000002400230025002040F66A16B14200D1EF
:100C000000BFC1F3421501F01F03012606FA03F3EA
:100C1000012D02D19689334006E0022D02D1168AB9
:100C2000334001E0968A33400C12012606FA04F4A0
:100C30001688344013B10CB1012000E0002070BDD3
:100C4000F0B50346002400260025002040F66A1770
:100C5000B94200D100BF1846C1F3421401F01F068B
:100C6000012707FA06F5012C01D10C3004E0022C13
:100C700001D1103000E014301AB107682F4307602B
:100C800002E00768AF430760F0BD00002DE9F047C0
:100C900086B005460E460024A24600BFA1460027A6
:100CA000B08900B100BF2F462C8A4CF6FF7004407B
:100CB000F08804432C82AC894EF6F3100440B088CF
:100CC00031890843718908430443AC81AC8A4FF6EB
:100CD000FF400440B0890443AC8201A8FFF710FE36
:100CE0001F48874202D1DDF810A001E0DDF80CA01A
:100CF000A88900F4004040B10AEBCA0000EB0A10DA
:100D000031684900B0FBF1F807E00AEBCA0000EBDC
:100D10000A1031688900B0FBF1F86420B8FBF0F0EC
:100D200004012009642101FB1089A88900F4004016
:100D300040B1322000EBC900B0FBF1F000F0070039
:100D4000044308E0322000EB09106421B0FBF1F00D
:100D500000F00F0004432C8106B0BDE8F0870000CE
:100D60000038014001468888C0F30800704700BF82
:100D7000FEE7014600BF704710B56FF00400FFF7B3
:100D80009FFE0A4800680A49B0FBF1F00949087063
:100D90000846007800EB4001C1EBC0104FF6FF7130
:100DA00001EAC0000449088010BD000000000020D6
:100DB00000127A0014000020160000200146114A9B
:100DC00012884A434FF0E0235A6100229A611A4682
:100DD000126942F001021A6100BF4FF0E02210696F
:100DE00000F001021AB100F48032002AF5D04FF071
:100DF000E022126922F001024FF0E0231A61002282
:100E00009A617047160000200146114A12784A4341
:100E10004FF0E0235A6100229A611A46126942F0AB
:100E200001021A6100BF4FF0E022106900F00102D8
:100E30001AB100F48032002AF5D04FF0E022126996
:100E400022F001024FF0E0231A6100229A617047FC
:100E5000140000202DE9F041C1F30A52A2F2FF363E
:100E60002F4A304B0D460446142E2FDA002E12DA8C
:100E700000F028FA0022134600F098FD4CD2002D15
:100E8000A4BF0024254647DA25F00040204318BFC0
:100E9000254D41D018E0DFF894C02CFA06F705EA9A
:100EA000070C5CEA040C08BFBDE8F08100F00AFA08
:100EB0000022134600F07AFD2ED2002D03DA4FF403
:100EC0008010F0400544BD43002425E0332EC8BF08
:100ED000BDE8F081A6F1140C4FF0FF3727FA0CF7AC
:100EE0003C4208BFBDE8F08100F096FD00221346A9
:100EF00000F05CFD10D2002D0DDA142E08BF6D1C21
:100F000009D0C6F13400012101FA00F02044A042CA
:100F100038BF6D1C0446BC4329462046BDE8F0811D
:100F20009C7500883CE4377E0000F0BFFFFF0F0097
:100F300000BF054A128802F04002002AF9D0C2B26E
:100F4000014B1B1D1A80704700380140144C154D91
:100F5000FFF712FF4FF4A060FFF7B6FC4FF4E1304B
:100F600000F02EF9104800F025F818E02146002086
:100F700000F0E6F82946204600F070FE04460B49D2
:100F8000204600F09BFF01D1094D05E005492046B0
:100F900000F094FF00D1034DC820FFF70FFFE5E7F5
:100FA0000000B4420000A0400000484200002F436F
:100FB0000000A0C010B50446FFF722FB0021084640
:100FC00000F0A7F8204600F01FF810BD70B50446E9
:100FD000FFF7BEFB8020FFF78BFBFFF705FC2046E9
:100FE000FFF786FBFFF700FCFFF7B2FB8120FFF75E
:100FF0007FFBFFF7F9FB0020FFF742FB0546FFF7F9
:10100000CDFB284670BD00002DE9FC5F83465846A5
:1010100000F0F8FD8046294A294B00F0C9FB06463E
:1010200000F01EF983460024264D0022264B204660
:10103000294600F0FBF904460D46584600F0E2FD53
:10104000064632460B462046294600F0EFF9044694
:101050000D4600221D4B2046294600F0E9FC0446BF
:101060000D4600221A4B2046294600F02BF9064671
:10107000FFF7F0FE804600F031FBC0B20190002087
:10108000FFF7A4FF82460AF07F0040F010000090B6
:101090000020009900F03DF8FE20019900F039F899
:1010A0005146002000F035F80220FFF787FE4AF095
:1010B000A101002000F02DF8BDE8FC9F713D0AD78A
:1010C000A370ED3F84D777410000B0400000F03FAF
:1010D0000000E03F70B504460D461646E9B2A20096
:1010E000921DD0B200F015F8A100C91DC8B2C5F319
:1010F000072100F00EF8F1B2A2000832D0B200F0E1
:1011000008F8A1000931C8B2C6F3072100F001F8C0
:1011100070BD70B505460C46FFF71AFB8020FFF73F
:10112000E7FAFFF761FB2846FFF7E2FAFFF75CFBFF
:101130002046FFF7DDFAFFF757FBFFF72FFB70BDE7
:101140002DE9F34F85B08A46002004904FF080418E
:10115000504600F0E7FE1349009000F0EDFD0190CD
:1011600000F050FD064600220F4B00F0ABF80022C5
:101170000E4BCDE9020100F059F9044600220C4B58
:1011800000F016FB804600F0A9FA8346594609A0F4
:10119000FFF742F85A46DDE90410FFF79BFF07B05E
:1011A000BDE8F08F000034430000E03F0000344011
:1011B0000000B0406F6666206973203A2575000014
:1011C00010B586B00446012144F20400FFF788FB05
:1011D0004FF40070ADF8140003208DF816001820AD
:1011E0008DF8170005A91C48FFF753F94FF48060EC
:1011F000ADF8140004208DF8170005A91648FFF774
:1012000048F925208DF8000003208DF801008DF8A5
:10121000020001208DF803006846FFF71DFB0194D2
:101220000020ADF80800ADF80A00ADF80C00ADF8EC
:1012300010000C20ADF80E0001A90848FFF726FDAC
:10124000012240F225510548FFF7FAFC012103482D
:10125000FFF7C0FC06B010BD000801400038014097
:1012600021F00042A2F16052B2F5801F01F000436C
:1012700028BFD2F17F6C0BD95FEA001C43EAC2029F
:1012800042EB507018BF704728BF20F00100704734
:10129000B2F5801FBCBF184670474FEA410C1CF5E1
:1012A000001F02D2084600F004BF70B500F02AFB10
:1012B00000000089FFF7F6BF4FF00040A0F5800066
:1012C0007047000010B591EA030F48BF83F0004358
:1012D00000F1B683841A71EB030C05D2121943EBAB
:1012E0000C03001B61EB0C01DFF824E14FEA115401
:1012F000A4EB135C1EEA430F18BF9EEA445F73D051
:1013000023EA0E03DCF1200E21EA045143F480139A
:1013100032D322FA0CFE10EB0E0023FA0CFE41EB46
:101320000E01CCF1200E03FA0EFE10EB0E0051F16F
:101330000001B1F5801FCCF1200E32D201EB045137
:1013400012FA0EF2BDE8104058BF7047401C38BF7B
:101350005FEA420218BF7047002814BF20F0010066
:1013600041F100014FEA410313F5001F38BF7047F8
:10137000A1F1C04100F014BB012A43EB0302ACF120
:10138000200CDCF11F0E32BF4FF0000E23FA0CF3DD
:1013900010EB030041EB0451B4EB115FD0D0A1EB93
:1013A000045101F5801149085FEA300001EB045156
:1013B0000ED350F1000038BF12FA0EFE08D1BDE87E
:1013C0001040C9E7401C38BF5FEA4202CAD1C3E7F8
:1013D000BDE810404FEA410313F5001F38BF7047C6
:1013E000A1F1C04100F0DCBA9EEA445F08D011EAE6
:1013F0005E0FBDE8104004BF01F0004100207047BF
:10140000BDE8104070B500F07DFA00BF64FBBE3E41
:101410000000E0FF491058BFC1F140415B1058BFC8
:10142000C3F140438B42EFF3008070472DE9C04188
:1014300030B4DFF8A0C23CEA111418BF3CEA131420
:1014400000F0EC8081EA03051CEA111444EAD5742B
:1014500018BF1CEA131500F0C780A4EB05044FF079
:10146000004545EAC12145EAC32341EA505143EA18
:10147000525304F17F74994204F500344FEAC020BE
:101480004FEAC22208BF904200F09C804FEA1365E9
:101490000FF24016765D4FEA134506FB05F7C7F1DC
:1014A000807706FB07F74FEAD737A7FB036876423A
:1014B000C8F58038A7FB06CE38BFA8F1010807FBA6
:1014C00008E64FF0000EA6FB028CE6FB03CEDCF133
:1014D000000CCEF1004E38BFAEF1010EA6FB0C5849
:1014E0004FF000074FF00005E6FB0E87A1FB08C692
:1014F000A0FB07CE16EB0E0645F10005E1FB0765E4
:1015000015F1E04E7EBFA4F580345FEA46066D41DA
:1015100016F1800745F100054FEA17274FEA0666E6
:1015200047EA0567A6F1DE46B6F1805F4FEA15256A
:101530001FD9384624F0010C05EBC471BCF1FE6FD5
:1015400001EB0C1102D8F0BCBDE8008124425CBF65
:1015500001F5801E9EEAC47F02D4F0BCBDE8008184
:10156000244238D4F0BCA1F1C041BDE8004100F0F4
:1015700017BA4FEAD22242EA43524FEAD323A7FBDB
:1015800002864FEAD02040EA415007FB03661EEA7C
:101590000E0F4FEAD12105FB026658BFA6EB00569D
:1015A000B6EB00564FEA520E4EEAC37E18EB0E0E13
:1015B00056EB530EBDD518EB02085E417F1C55F16A
:1015C0000005B6E74FF480154FF000074FF0000616
:1015D0004FF00008ADE7F0BC4FF0000001F1C04152
:1015E00001F00041BDE8008111EA0C1F0CEA13155F
:1015F00000D00CE013EA0C1F00F025804FF0000033
:10160000F0BC81EA030101F00041BDE80081F0BCBB
:10161000BDE8004181EA030100F0C2B9F0BCBDE8B9
:10162000004170B500F06EF9097EFC3E00F007B88D
:1016300081EA03014FF0000001F00041704781EAA8
:10164000030100F0ADB9F0BCBDE800414FF000006F
:1016500021497047FFFDFBF9F7F5F4F2F0EEEDEBF1
:10166000E9E8E6E4E3E1E0DEDDDBDAD8D7D5D4D3A0
:10167000D1D0CFCDCCCBCAC8C7C6C5C4C2C1C0BFEC
:10168000BEBDBCBBBAB9B8B7B6B5B4B3B2B1B0AFF2
:10169000AEADACABAAA9A8A8A7A6A5A4A3A3A2A1D6
:1016A000A09F9F9E9D9C9C9B9A9999989797969591
:1016B00095949393929191908F8F8E8E8D8C8C8B2D
:1016C0008B8A8989888887878685858484838382B5
:1016D000828181800000FF070000F87F4FEA1153EC
:1016E000A3F58063D3F11E03A8BFD3F1200C08DB60
:1016F0004FF0004242EAC12252EA505232FA03F05D
:10170000704709420BD4102BC4BF0020704703F56B
:10171000787CBCF1FF3F05D04FF0FF3070474FF0B1
:101720000000704770B500F0EDF800BF49922480CA
:1017300000207047F0E7000051EA030C17D41CF5B5
:10174000801F58BFBCF5801F00F10680994218BF6A
:10175000704708BF9042704707D711F5801F58BFE8
:1017600013F5801F19D499427047894270471CF5C0
:10177000801F08D5BCF5801FF7D58B4218BF704776
:1017800008BF824270474FF4001C1CEB410F38BF6A
:101790001CEB430F01D28B42704770B500F0B2F8DA
:1017A000922449004FF000514FF08053FFF732BEB2
:1017B000DFF848C170B51CEA111E1EBF1CEA1315E4
:1017C0009EEA0C0F95EA0C0F00F06F8081EA03048B
:1017D00023EA4C134EEAD47E21EA4C1141F48011E5
:1017E00043F48013AE44A1FB024CA0FB0365AEF1B1
:1017F0007F7E361955EB0C05A1FB034C4CF1000321
:10180000A0FB021C16EB0C06654153F100030942D4
:1018100018BF46F0010613F4007F0BD14FEA0331E5
:101820004FEA0530340341EA155140EA16506FF093
:1018300003020AE04FEAC3214FEAC520F40241EA5D
:10184000555140EA56506FF0020202EB2E4201EB76
:10185000025585EACE710AD05FEA440C18BF24F025
:10186000004450F1000041F1000120EAD47040F240
:10187000FE7C624500D270BDA84214BF4FF0804488
:101880004FF04044002E08BF0024BEF1806FA8BF77
:10189000A1F1C041BDE8704080F282804FF00000AD
:1018A00001F1C04101F0004170479EEA0C0F0CEAC3
:1018B000131518BF95EA0C0F06D04FF0000081EA0F
:1018C000030E0EF0004170BD00F01CF88900013ECF
:1018D00000F007B800F009B84FEA430C5FEA5C5C1F
:1018E00008D081EA030100F05BB84FEA410C5FEADF
:1018F0005C5CF6D14FF00000014970470000FF0723
:101900000000F87F0EF1020E2EF0030E5EF8046B5D
:10191000364205D4012A43EB030515F5001F12D802
:10192000012841EB010C1CF5001F0CD80ED14FEA29
:10193000D17C15F5001F0CEB4C0C0CF1020C08BF10
:101940004CEBD37C04E04FF0080C01E04FEAD37C71
:101950000CEB4C0526FA05F606F00706B6F1040C6A
:1019600006D20EEB860CBDE870404CF0010C6047CF
:10197000DFE80CF0090B02024FF000414FF00000CD
:10198000A1F5002170BD19461046012851EB010454
:1019900018BFD4F5001484BF002001F0004170BDD1
:1019A0000808A0F500114FEA3101704753EA010C15
:1019B00017D41CF5801F58BFBCF5801F00F10680AE
:1019C0008B4218BF704708BF8242704707D713F594
:1019D000801F58BF11F5801F19D48B4270479B425E
:1019E00070471CF5801F08D5BCF5801FF7D59942BC
:1019F00018BF704708BF904270474FF4001C1CEBA3
:101A0000430F38BF1CEB410F01D2994270470FB40E
:101A10000CBC03BCFFF7C1BE91EA030F10B581F007
:101A200000413FF557AC83F0004300F009B80000D7
:101A300010B591EA030F48BF83F000433FF54AAC6D
:101A4000841A71EB030C07D212198CF0004C43EB93
:101A50000C03001B61EB0C01DFF8A4E14FEA115409
:101A6000A4EB135C1EEA430F18BF9EEA445F00F02C
:101A7000B08023EA6E03524221EA0451C3EB6E03A5
:101A800038BF5B1EDCF1200E25D322FA0CFE10EBD2
:101A90000E0043FA0CFE41EB0E01CCF1200E03FACE
:101AA0000EFE10EB0E0051F10001CCF1200E29D4F6
:101AB00012FA0EF201EB0451BDE8104058BF704716
:101AC000401C1CBFB2F1004F704700280CBF491CDE
:101AD00020F00100704712EB020E43EB030218BF27
:101AE0004FF0010E4EEA4202ACF1200CDCF11E0E6A
:101AF00054D943FA0CFE10EB0E0051F1FF31CCF13A
:101B00001E0ED5D50EF1010E12FA0EFE404141EB2C
:101B1000010101EB445C5FEA5C5C10D910EBDE7004
:101B200001EB045138BFBEF1004FBDE8104018BFB3
:101B3000704700280CBF491C20F00100704730D2CC
:101B40004FEAD42C11F5001124F400641BD0B1FA33
:101B500081F20B3AA41AA41ED2F12003914030FA6C
:101B600003F31943904001EBCC71002C01EB0451BD
:101B7000BDE81040A8BF704701F1C0414FF0000020
:101B800001F000417047B0FA80F310FA03F100D180
:101B900010BDE41A173C4805C90AE4E701EB0451FB
:101BA00010BD491001EB0451BDE810404FEA300070
:101BB00002E04FF0000170474A0008BF0042F8D031
:101BC000B2F5001F28BF704701F000414FF0000040
:101BD00070479EEA445F07D011EA5E0FBDE81040EF
:101BE00004BF002100207047BDE8104070B5FFF72A
:101BF00089FE00BF40DFF63E83F00041104670478B
:101C00000000E0FF43004FEAD30C4FEA3C0C434096
:101C10001FBF40070CF1605113F0FE4F70471CF0DE
:101C2000006F03D100200CF0004170470CF000431E
:101C300043EA507010B540EACC0000F0F4F900BF60
:101C4000000000924FEA0001FFF7AABE4FF00041EA
:101C50004FF00000A1F500217047000090EA010F4D
:101C600048BF81F0004100F13082421A3CBF801A27
:101C700089184FEAD0524FF07F4C1CEA410FA2EB7B
:101C8000D15318BF9CEA026F00F03B804FF0004C2C
:101C90004CEA00204CEA012121FA03FC10EB0C0C69
:101CA0001ED202F1FF325FEA1C2040EBC25038BF67
:101CB00070471CF07F0F4FEA400C18BFBCF17F4FFC
:101CC00038BF7047C3F12003994008BF20F00100DE
:101CD000BCF17F4F38BF7047A0F1C04000F0E9B9B8
:101CE0004FEA3C00000A40EBC25028BF1CF0FF0F37
:101CF0004FEA400CE6D018BFBCF17F4F38BF7047A9
:101D0000EAE79CEA026F05D010EA5C0F08BF00F01A
:101D10000040704710B500F086F900BF64FBBE3E7E
:101D2000401058BFC0F14040491058BFC1F1404178
:101D30008142EFF3008070474FF47F0C1CEAD01211
:101D40001EBF1CEAD11392EA0C0F93EA0C0F00F0AD
:101D5000858090EA010F48BF42F4807240F4000C85
:101D600041F400002CF07F4120F07F4000B581421B
:101D7000A2EB03020FF2081CACEB504EC0F10000C6
:101D80009EF800E04FEA4E0E00FB0EFC38BF490003
:101D90004FEA2C1C02F5FA020CFB0EF34FEACE1EA2
:101DA0004FEA112C4FEAC1210EEB635E42EB224257
:101DB0000EFB0CFC4FEA1C5300FB03114FEA112CE5
:101DC0004FEA01310EFB0CFC4FEADC4C00FB0C111E
:101DD000C14228BF09184CEB03335DF804EB10EB4C
:101DE000410143EBC250B2F57C0F38BF704729D593
:101DF00012F0F00F1CBF00F1C04000F0004070472F
:101E0000008182838485868788898B8C8D8E8F91D3
:101E10009293959697999A9C9D9FA0A2A3A5A7A8F7
:101E2000AAACAEB0B2B3B5B7B9BCBEC0C2C5C7C923
:101E3000CCCED1D4D7D9DCDFE2E6E9ECF0F3F7FA87
:101E4000FE0000004FEA400C0CF1807CBCF17E4F9C
:101E500028BF7047B0F1C04000F02BB990EA010FE5
:101E60000CEAD11348BF42F48072624538BF634523
:101E700007D213F47F0F16D080EA010000F0004073
:101E8000704710B500F0CFF8097EFC3E00F005B8B1
:101E900080EA010000F00040704780EA010000F095
:101EA000004000F006B912F47F0F04BF02487047EB
:101EB00080EA010000F0FDB80000C07F50EA010C8C
:101EC00000F113801CF5000F58BFBCF5000F01D4C2
:101ED0008842704707D710F5000F58BF11F5000F63
:101EE00015D488427047894270471CF5000F04D50D
:101EF000BCF5000FF7D5814270474FF0807C1CEB9A
:101F0000400F38BF1CEB410F01D28142704710B522
:101F100000F089F8922449004FF000504FF08051B2
:101F2000FFF7FEBE4FF47F0C1CEAD0121EBF1CEA66
:101F3000D11392EA0C0F93EA0C0F00F0478090EA5D
:101F4000010F48BF42F480724FF0004C4CEA002071
:101F50004CEA012102EB0302A0FB0113A2F50002EF
:101F6000002918BF43F001035B0028BF4FEA330389
:101F700042EB22425FEA132C4CEBC2502EBFBCEB6B
:101F8000436FB2F57C0F70474FEA036CBCF1004F12
:101F900008BF20F00100B2F57C0F38BF70470BD5A9
:101FA00082F0FF0212F5803FC8BF704700F1C040C9
:101FB000D8BF00F00040704700F5000C5FEA4C0C01
:101FC00048BF7047B0F1C04000F073B890EA010F0D
:101FD0000CEAD11348BF42F48072624538BF6345B2
:101FE00004D280EA010000F00040704710B500F014
:101FF0001AF800BF8900013E00F007B800F009B8E8
:102000005FEA410C5FEA1C6C08D080EA010000F036
:1020100050B85FEA400C5FEA1C6CF6D14FF000400C
:10202000A0F5800070470EF1020E2EF0030E5EF850
:10203000044B244204D44FEA4102B2F17F4F11D83D
:102040004FEA4003B3F17F4F0CD80ED14FEAD07C5A
:10205000B2F17F4F0CEB4C0C0CF1020C08BF4CEBB7
:10206000D17C04E04FF0080C01E04FEAD17C0CEB8E
:102070004C0324FA03F404F00704B4F1040C06D270
:102080000EEB840CBDE810404CF0010C6047DFE81B
:102090000CF0070802024FF00040A0F5800010BDD0
:1020A0000846420018BFD2F1807288BF00F000409D
:1020B00010BDFF2141EAD050C005704790EA010FE2
:1020C00048BF81F000413FF5D0AD421A04D882F0FC
:1020D0000042A0EB020011444FEAD0524FF07F4C77
:1020E0001CEA410FA2EBD15318BF9CEA026F4AD001
:1020F0004FF0004C4CEA00204CEA012121FA03FC8D
:10210000B0EB0C0C0FD412F0FE0F36D05FEA4C008F
:102110001DD5001240EBC25038BF70471CF03F0F76
:1021200018BF70470BE0A2F101025FEA1C2040EBF0
:10213000C25038BF70471CF07F0F18BF7047C3F103
:102140002003994014BF401E20F001007047800812
:102150004FEA122308BF7047B0FA80FCA2EB0C02D2
:10216000CCF1280C60FA0CF093EA122F04BF00EBBC
:10217000C25070474FEAC3707047130A5FEADC1021
:1021800008BF7047F6E79CEA026F04D010EA5C0FC4
:1021900008BF0020704710B5FFF745FF40DFF63E4F
:1021A00081F0004070470000C821000800000020B6
:1021B000340000006C010008FC21000834000020FD
:1021C0002C0700008801000800A24A04000000005B
:1021D00000000000010203040607080900000000D7
:1021E00000000000000000000000010203040102E2
:0C21F000030406070809020406080000AA
:04000005080001D519
:00000001FF
