:020000040800F2
:1000000040080020CD010008CD0300089903000836
:100010009D0300087D020008030D00080000000099
:10002000000000000000000000000000990400082B
:100030008102000800000000550400088505000842
:10004000E7010008E7010008E7010008E7010008F0
:10005000E7010008E7010008E7010008E7010008E0
:10006000E7010008E7010008E7010008E7010008D0
:10007000E7010008E7010008E7010008E7010008C0
:10008000E7010008E7010008E7010008E7010008B0
:10009000E7010008E7010008E7010008E7010008A0
:1000A000E7010008E7010008E7010008E701000890
:1000B00029080008E7010008E7010008E701000837
:1000C000E7010008E7010008E7010008E701000870
:1000D000E7010008C10B0008490C0008750C000876
:1000E000E7010008E7010008E7010008E701000850
:1000F000E7010008E7010008E7010008E701000840
:10010000E7010008E7010008E7010008E70100082F
:10011000790B00089D0B0008E7010008E7010008C3
:10012000E7010008E7010008E7010008E70100080F
:1001300000F002F800F03AF80AA090E8000C8244BF
:100140008344AAF10107DA4501D100F02FF8AFF29C
:10015000090EBAE80F0013F0010F18BFFB1A43F0A5
:10016000010318471811000038110000103A24BF8D
:1001700078C878C1FAD8520724BF30C830C144BF0C
:1001800004680C607047000000230024002500264E
:10019000103A28BF78C1FBD8520728BF30C148BFEA
:1001A0000B6070471FB51FBD10B510BD00F038F8CB
:1001B0001146FFF7F7FF00F08DFE00F056F803B48C
:1001C000FFF7F2FF03BC00F09EFD000009488047E6
:1001D00009480047FEE7FEE7FEE7FEE7FEE7FEE729
:1001E000FEE7FEE7FEE7FEE704480549054A064B41
:1001F0007047000089050008310100084002002016
:100200004008002040040020400400207047704750
:10021000704770477047000000487047DC010020BD
:100220007546FFF7F9FFAE4605006946534620F0D4
:100230000700854618B020B5FFF7D6FFBDE820407F
:100240004FF000064FF000074FF000084FF0000B92
:1002500021F00701AC46ACE8C009ACE8C009ACE845
:10026000C009ACE8C0098D46704710B50446AFF32D
:1002700000802046BDE81040FFF7A1BF00BFFEE7A9
:1002800070472DE9F041024600250026002000239A
:100290000024002791F803C00CF00F0591F803C06B
:1002A0000CF0100CBCF1000F03D091F802C04CEA26
:1002B000050591F800C0BCF1000F31D01468002092
:1002C0002BE04FF0010C0CFA00F3B1F800C00CEA7F
:1002D00003069E4220D183004FF00F0C0CFA03F767
:1002E000BC4305FA03FC4CEA040491F803C0BCF1DA
:1002F000280F06D14FF0010C0CFA00FCC2F814C014
:100300000AE091F803C0BCF1480F05D14FF0010C91
:100310000CFA00FCC2F810C0401C0828D1D31460AD
:10032000B1F800C0BCF1FF0F34DD546800202EE0AE
:1003300000F1080C4FF0010808FA0CF3B1F800C006
:100340000CEA03069E4221D183004FF00F0C0CFAF9
:1003500003F7BC4305FA03FC4CEA040491F803C01C
:10036000BCF1280F05D100F1080C08FA0CF8C2F80E
:10037000148091F803C0BCF1480F07D100F1080CBC
:100380004FF0010808FA0CF8C2F81080401C082849
:10039000CED35460BDE8F08100BFFEE700BFFEE7AA
:1003A00008B50121402000F067F84FF47C40ADF81B
:1003B000000010208DF8030003208DF8020069462C
:1003C0000148FFF75EFF08BD0018014070470000BC
:1003D00070B5002100230F22C47804B3154C2468A3
:1003E00004F4E064C4F5E064210AC1F10403CA40E6
:1003F000447804FA03F184781440214309010E4C37
:100400000678A155047804F01F050124AC40057856
:100410006D11AD0005F1E025C5F8004109E0047853
:1004200004F01F050124AC40044D0678761145F810
:10043000264070BD0CED00E000E400E080E100E04B
:1004400002490143024A1160704700000000FA05AA
:100450000CED00E07047000029B1064AD269024362
:10046000044BDA6104E0034AD2698243014BDA614A
:10047000704700000010024029B1064A9269024309
:10048000044B9A6104E0034A92698243014B9A61EA
:100490007047000000100240704710B500F002F8ED
:1004A00010BD00000CB5002001900090334800689A
:1004B00040F480303149086000BF3048006800F4E3
:1004C000003000900198401C0190009818B90198E4
:1004D000B0F5A06FF1D12948006800F4003010B1E8
:1004E0000120009001E0002000900098012843D1F5
:1004F0002348006840F01000214908600846006861
:1005000020F0030008600846006840F00200086020
:100510001A484068194948600846406848600846DB
:10052000406840F4806048600846406820F47C10D1
:1005300048600846406840F4E81048600846006893
:1005400040F08070086000BF0C48006800F0007048
:100550000028F9D00948406820F0030007494860A6
:100560000846406840F00200486000BF0348406809
:1005700000F00C000828F9D10CBD0000001002406A
:10058000002002407047000010B51348006840F09A
:1005900001001149086008464068104908400E49AA
:1005A0004860084600680E4908400B490860084644
:1005B000006820F4802008600846406820F4FE00AF
:1005C00048604FF41F008860FFF767FF4FF000603E
:1005D0000449086010BD0000001002400000FFF850
:1005E000FFFFF6FE08ED00E0F0B50C4615460022D0
:1005F0000021068C4FF6FE773E400684028B018C6C
:100600004FF60C7632407E1C06EA03162E43324328
:10061000104EB0420ED0104EB0420BD0B0F1804F11
:1006200008D00E4EB04205D00D4EB04202D00D4E55
:10063000B04206D14FF6FD76314044F00106314319
:1006400005E04FF6F576314044F001063143028370
:100650000184F0BD002C0140003401400004004042
:1006600000080040000C0040F0B50C461546002282
:1006700000210026078C4FF6EF7C07EA0C07078461
:10068000028B018C4FF6FF7707EA041640F6FF470E
:100690003A404FF6FF7707EA03373A434FF6FF77C2
:1006A00007EA05273A43114FB8420ED0104FB8421F
:1006B0000BD0B0F1804F08D00E4FB84205D00E4F8E
:1006C000B84202D00D4FB84206D14FF6DF7739401D
:1006D00046F01007394305E04FF65F77394044F0A4
:1006E0001007394302830184F0BD0000002C014053
:1006F000003401400004004000080040000C0040AD
:10070000F0B50C461546002200210026078C4FF656
:10071000FF6C07EA0C070784828B018C4FF6FF778A
:1007200007EA04264FF60C773A404FF6FF7707EAC0
:1007300003172F433A43114FB8420ED0104FB8421F
:100740000BD0B0F1804F08D00E4FB84205D00E4FFD
:10075000B84202D00D4FB84206D14FF6FF5739408C
:1007600046F48077394305E04FF2FF57394044F4AF
:100770008077394382830184F0BD0000002C014062
:10078000003401400004004000080040000C00401C
:10079000F0B50C461546002200210026078C4EF6C7
:1007A000FF7C07EA0C070784828B018C4FF6FF77EA
:1007B00007EA043640F6FF473A404FF6FF7707EA6C
:1007C00005273A434FF6FF7707EA03373A43114FBD
:1007D000B8420ED0104FB8420BD0B0F1804F08D0C5
:1007E0000E4FB84205D00E4FB84202D00D4FB8425E
:1007F00006D14DF6FF77394046F48057394305E07E
:1008000047F6FF57394044F48057394382830184C7
:10081000F0BD0000002C0140003401400004004005
:1008200000080040000C00402DE9F0470121880736
:1008300000F0AAF8012867D1364800686421B0FBAF
:10084000F1F201FB1200002859D1032000F070FBE7
:100850003149C968A0EB010A504600F0E6FB80462A
:100860002E4A2F4B00F0F8FB064600222D4B00F0DD
:10087000F3FB044600F0AAFB27490860042000F0BF
:1008800057FB25490969A0EB010A504600F0CDFB52
:100890000646224A224B00F0DFFB80460022214B15
:1008A00000F0DAFB044600F091FB1B49486005208C
:1008B00000F03EFB18494969A0EB010A504600F0E0
:1008C000B4FB0646154A164B00F0C6FB0446002250
:1008D000144B00F0C1FB804600F078FB0E498860A5
:1008E000032000F025FB0C49C860042000F020FB29
:1008F00009490861052000F01BFB074948610548CC
:100900000068401C034908600121880700F00CF8CA
:10091000BDE8F087080000200C010020B26323101E
:10092000AFEBA73F00002440CA430282704721B1C9
:10093000028842F00102028004E002884FF6FE7352
:100940001A4002807047F0B50C4615461E4600213D
:10095000002200230189028B038C4FF6F87739407F
:1009600021434FF6FC473A4040F201173A434FF615
:10097000DD773B404FF6FF7707EA06172F433B43EF
:10098000018102830384F0BD30B5024600200023BC
:100990000024158A05EA0103958905EA010413B1CB
:1009A0000CB1012000E0002030BD000070B505460C
:1009B0000C46244885420ED0234885420BD0B5F121
:1009C000804F08D02148854205D02148854202D079
:1009D0002048854200D100E000BF208850B923891B
:1009E000A28861882846FFF7FFFDE188284600F0CD
:1009F00045F825E0208804280AD12389A288618847
:100A00002846FFF731FEE188284600F040F817E05D
:100A1000208808280AD12389A28861882846FFF700
:100A20006FFEE188284600F03FF809E02389A2889C
:100A300061882846FFF7ACFEE188284600F03DF8C3
:100A400070BD0000002C0140003401400004004053
:100A500000080040000C004000210180418001217D
:100A600081800021C180018170471AB183890B43C5
:100A7000838102E083898B4383817047028B4FF629
:100A8000F3731A400283028B0A4302837047028B7E
:100A90004FF2FF331A400283028B4FF6FF7303EAD3
:100AA00001231A4302837047828B4FF6F3731A4077
:100AB0008283828B0A4382837047828B4FF2FF339B
:100AC0001A408283828B4FF6FF7303EA01231A4395
:100AD00082837047002202881D4B98420ED01D4B26
:100AE00098420BD0B0F1804F08D01B4B984205D0F4
:100AF0001A4B984202D01A4B984204D14FF68F738A
:100B00001A404B881A43174B984207D0164B98420D
:100B100004D04FF6FF431A40CB881A4302808B88DB
:100B200083850B8803850A4B98420BD0094B98426A
:100B300008D00E4B984205D00D4B984202D00D4B79
:100B4000984201D10B7A038601238382704700000B
:100B5000002C014000340140000400400008004027
:100B6000000C004000100040001400400040014014
:100B7000004401400048014010B540F225510548AD
:100B800000F090F828B1034800F0B6F8C4B202486B
:100B9000047010BD004C0040D001002010B540F2A0
:100BA0002551054800F07EF828B1034800F0A4F86C
:100BB000C4B20248447010BD00500040D001002073
:100BC00010B540F225511D4800F06CF810B31B48D9
:100BD00000F092F8C4B21A48008800F40040C8B986
:100BE0001748008800F4804060B10A2C03D0002030
:100BF0001349088020E01248008840F40040104962
:100C0000088019E00D2C06D10D48008840F4804082
:100C10000B49088010E00A480088C0F30D0009491C
:100C20000C5407480088401C054908800846008885
:100C3000C72801DD0020088010BD000000380140F9
:100C4000040000204400002010B540F22551074860
:100C500000F028F840B1054800F04EF8C4B2204634
:100C600000F0F8FA0249886010BD0000004400401E
:100C7000D001002010B540F22551074800F012F8CD
:100C800048B1054800F038F8C4B20448007801289B
:100C900001D10348847010BD0048004014000020BA
:100CA0001800002070B50246002400230025002013
:100CB00040F66A16B14200D100BFC1F3421501F0FF
:100CC0001F03012606FA03F3012D02D19689334052
:100CD00006E0022D02D1168A334001E0968A3340A5
:100CE0000C12012606FA04F41688344013B10CB134
:100CF000012000E0002070BD01468888C0F3080094
:100D0000704700BFFEE700BF704700000EB5064801
:100D10000649009143024FF07E52CDE9011004498B
:100D2000044800F0F5F80EBD0000204100007A44B0
:100D3000000048426801002010B500F005F800F0FE
:100D400045F800F085F810BD00B587B001210220FC
:100D5000FFF782FB01210420FFF78EFBC020ADF8D6
:100D6000000004208DF8030003208DF8020069467E
:100D70001448FFF786FA0020ADF81600ADF812000F
:100D80004FF6FF70ADF814000020ADF8100004A974
:100D90000D48FFF79FFE00231A4603210A48FFF77C
:100DA000D2FD01A8FFF758FE0A20ADF80C0001A9FA
:100DB0000548FFF7FBFD01210348FFF7B8FD07B029
:100DC00000BD0000000801400004004000B587B0ED
:100DD00001210420FFF740FB01210820FFF74CFB15
:100DE000C020ADF8000004208DF8030003208DF82A
:100DF000020069461448FFF744FA0020ADF81600D7
:100E0000ADF812004FF6FF70ADF814000020ADF8F9
:100E1000100004A90D48FFF75DFE00231A460321C8
:100E20000A48FFF790FD01A8FFF716FE0A20ADF86B
:100E30000C0001A90548FFF7B9FD01210348FFF7A0
:100E400076FD07B000BD0000000C01400008004026
:100E500000B587B001210820FFF7FEFA0121042028
:100E6000FFF70AFB0320ADF8000004208DF8030013
:100E700003208DF8020069461448FFF702FA0020AB
:100E8000ADF81600ADF812004FF6FF70ADF8140083
:100E90000020ADF8100004A90D48FFF71BFE002349
:100EA0001A4603210A48FFF74EFD01A8FFF7D4FDBB
:100EB0000A20ADF80C0001A90548FFF777FD0121D4
:100EC0000348FFF734FD07B000BD000000080140F3
:100ED000000C004010B54FF4A060FFF7B1FA1321E9
:100EE00040F60F6000F043F8FFF726FFFFF758FACF
:100EF000FFF70CFF0020044908620448C86100F0B5
:100F000033F8002010BD00003C0100200000F0413B
:100F1000F0B505AC70CC01604260836086624562CA
:100F2000046200278761C761C76007614761F0BD40
:100F30000146032907D0042902D0052909D105E07B
:100F4000064A108807E0064A108804E0054A10881F
:100F500001E0002000BF00BF7047000024080040EF
:100F600024040040240C004000E000BFFDE77FB5F2
:100F700005460C4601210846FFF76EFA0020ADF841
:100F80000A00ADF80600ADF80850ADF804400120A5
:100F90008DF80C0001A98007FFF79CFD0122114686
:100FA0009007FFF762FD01218807FFF7C0FC1C20B6
:100FB0008DF8000001208DF8030002208DF801005B
:100FC0008DF802006846FFF703FA7FBD4FEA410340
:100FD0004FEA5353A3F58063D3F11E03C8BFD3F187
:100FE000210C0CDD4FF0004242EAC12242EA50528D
:100FF00032FA03FC8CEAE17CACEBE1707047102B19
:10100000C4BF0020704703F5787CBCF1FF3F04D0DB
:101010006FF0004282EA2100704770B500F0C6F818
:101020004992248000207047F2E710F0004248BF48
:101030004042B0FA80F310FA03F10AD0C3F11D0365
:1010400003F580634FEA415002EB035202EBD121DA
:1010500070474FF000007047DFF848C170B51CEAD8
:10106000111E1EBF1CEA13159EEA0C0F95EA0C0F09
:1010700000F06F8081EA030423EA4C134EEAD47E29
:1010800021EA4C1141F4801143F48013AE44A1FBDA
:10109000024CA0FB0365AEF17F7E361955EB0C05C3
:1010A000A1FB034C4CF10003A0FB021C16EB0C0649
:1010B000654153F10003094218BF46F0010613F4DD
:1010C000007F0BD14FEA03314FEA0530340341EA88
:1010D000155140EA16506FF003020AE04FEAC321AF
:1010E0004FEAC520F40241EA555140EA56506FF0EC
:1010F000020202EB2E4201EB025585EACE710AD0C4
:101100005FEA440C18BF24F0004450F1000041F1A4
:10111000000120EAD47040F2FE7C624500D270BD2E
:10112000A84214BF4FF080444FF04044002E08BF47
:101130000024BEF1806FA8BFA1F1C041BDE870409E
:1011400080F282804FF0000001F1C04101F00041C7
:1011500070479EEA0C0F0CEA131518BF95EA0C0FA6
:1011600006D04FF0000081EA030E0EF0004170BD82
:1011700000F01CF88900013E00F007B800F009B843
:101180004FEA430C5FEA5C5C08D081EA030100F09F
:101190005BB84FEA410C5FEA5C5CF6D14FF00000AF
:1011A000014970470000FF070000F87F0EF1020EB2
:1011B0002EF0030E5EF8046B364205D4012A43EB91
:1011C000030515F5001F12D8012841EB010C1CF591
:1011D000001F0CD80ED14FEAD17C15F5001F0CEB87
:1011E0004C0C0CF1020C08BF4CEBD37C04E04FF02C
:1011F000080C01E04FEAD37C0CEB4C0526FA05F60F
:1012000006F00706B6F1040C06D20EEB860CBDE81C
:1012100070404CF0010C6047DFE80CF0090B020253
:101220004FF000414FF00000A1F5002170BD1946BC
:101230001046012851EB010418BFD4F5001484BFF7
:10124000002001F0004170BD0808A0F500114FEA30
:1012500031017047B0FA80F310FA03F2C3F19D0335
:101260000AD0D90501EB1220530638BF704700F1B0
:10127000010008BF20F00100704700009C12000828
:1012800000000020440000006C010008E01200088B
:1012900044000020FC070000880100080000000056
:1012A000000000000000000000000000000101003C
:1012B000000000000000000000000001020304051F
:1012C00006020105060304030401020604040602E3
:1012D00001040305030605010206040403020100DC
:04000005080001CD21
:00000001FF
